{
  "address": "0x4240DdDbbA5193C3df37404dA9b188528c50Ec80",
  "abi": [
    {
      "inputs": [],
      "stateMutability": "nonpayable",
      "type": "constructor"
    },
    {
      "inputs": [],
      "name": "Forbidden",
      "type": "error"
    },
    {
      "inputs": [
        {
          "internalType": "address",
          "name": "template",
          "type": "address"
        }
      ],
      "name": "InvalidTemplate",
      "type": "error"
    },
    {
      "inputs": [],
      "name": "TransferFailed",
      "type": "error"
    },
    {
      "anonymous": false,
      "inputs": [
        {
          "indexed": true,
          "internalType": "address",
          "name": "owner",
          "type": "address"
        },
        {
          "indexed": true,
          "internalType": "address",
          "name": "approved",
          "type": "address"
        },
        {
          "indexed": true,
          "internalType": "uint256",
          "name": "tokenId",
          "type": "uint256"
        }
      ],
      "name": "Approval",
      "type": "event"
    },
    {
      "anonymous": false,
      "inputs": [
        {
          "indexed": true,
          "internalType": "address",
          "name": "owner",
          "type": "address"
        },
        {
          "indexed": true,
          "internalType": "address",
          "name": "operator",
          "type": "address"
        },
        {
          "indexed": false,
          "internalType": "bool",
          "name": "approved",
          "type": "bool"
        }
      ],
      "name": "ApprovalForAll",
      "type": "event"
    },
    {
      "anonymous": false,
      "inputs": [
        {
          "indexed": false,
          "internalType": "uint8",
          "name": "version",
          "type": "uint8"
        }
      ],
      "name": "Initialized",
      "type": "event"
    },
    {
      "anonymous": false,
      "inputs": [
        {
          "indexed": true,
          "internalType": "address",
          "name": "overrider",
          "type": "address"
        },
        {
          "indexed": false,
          "internalType": "uint256",
          "name": "newFee",
          "type": "uint256"
        },
        {
          "indexed": false,
          "internalType": "bool",
          "name": "overrided",
          "type": "bool"
        }
      ],
      "name": "OverrideMintFee",
      "type": "event"
    },
    {
      "anonymous": false,
      "inputs": [
        {
          "indexed": true,
          "internalType": "address",
          "name": "previousOwner",
          "type": "address"
        },
        {
          "indexed": true,
          "internalType": "address",
          "name": "newOwner",
          "type": "address"
        }
      ],
      "name": "OwnershipTransferred",
      "type": "event"
    },
    {
      "anonymous": false,
      "inputs": [
        {
          "indexed": true,
          "internalType": "address",
          "name": "addr",
          "type": "address"
        },
        {
          "indexed": false,
          "internalType": "bool",
          "name": "enabled",
          "type": "bool"
        }
      ],
      "name": "SetExclusiveContract",
      "type": "event"
    },
    {
      "anonymous": false,
      "inputs": [
        {
          "indexed": false,
          "internalType": "uint256",
          "name": "supply",
          "type": "uint256"
        }
      ],
      "name": "SetMaxSupply",
      "type": "event"
    },
    {
      "anonymous": false,
      "inputs": [
        {
          "indexed": true,
          "internalType": "address",
          "name": "minter",
          "type": "address"
        },
        {
          "indexed": false,
          "internalType": "bool",
          "name": "enabled",
          "type": "bool"
        }
      ],
      "name": "SetMinter",
      "type": "event"
    },
    {
      "anonymous": false,
      "inputs": [
        {
          "indexed": true,
          "internalType": "address",
          "name": "receiver",
          "type": "address"
        },
        {
          "indexed": true,
          "internalType": "uint256",
          "name": "percentage",
          "type": "uint256"
        }
      ],
      "name": "SetRoyalty",
      "type": "event"
    },
    {
      "anonymous": false,
      "inputs": [],
      "name": "StopNewMinter",
      "type": "event"
    },
    {
      "anonymous": false,
      "inputs": [
        {
          "indexed": true,
          "internalType": "address",
          "name": "from",
          "type": "address"
        },
        {
          "indexed": true,
          "internalType": "address",
          "name": "to",
          "type": "address"
        },
        {
          "indexed": true,
          "internalType": "uint256",
          "name": "tokenId",
          "type": "uint256"
        }
      ],
      "name": "Transfer",
      "type": "event"
    },
    {
      "inputs": [
        {
          "internalType": "address",
          "name": "to",
          "type": "address"
        },
        {
          "internalType": "uint256",
          "name": "tokenId",
          "type": "uint256"
        }
      ],
      "name": "approve",
      "outputs": [],
      "stateMutability": "nonpayable",
      "type": "function"
    },
    {
      "inputs": [
        {
          "internalType": "address",
          "name": "owner",
          "type": "address"
        }
      ],
      "name": "balanceOf",
      "outputs": [
        {
          "internalType": "uint256",
          "name": "",
          "type": "uint256"
        }
      ],
      "stateMutability": "view",
      "type": "function"
    },
    {
      "inputs": [],
      "name": "baseTokenUriPrefix",
      "outputs": [
        {
          "internalType": "string",
          "name": "",
          "type": "string"
        }
      ],
      "stateMutability": "view",
      "type": "function"
    },
    {
      "inputs": [],
      "name": "baseTokenUriSuffix",
      "outputs": [
        {
          "internalType": "string",
          "name": "",
          "type": "string"
        }
      ],
      "stateMutability": "view",
      "type": "function"
    },
    {
      "inputs": [],
      "name": "collectionId",
      "outputs": [
        {
          "internalType": "bytes32",
          "name": "",
          "type": "bytes32"
        }
      ],
      "stateMutability": "view",
      "type": "function"
    },
    {
      "inputs": [],
      "name": "contractURI",
      "outputs": [
        {
          "internalType": "string",
          "name": "",
          "type": "string"
        }
      ],
      "stateMutability": "view",
      "type": "function"
    },
    {
      "inputs": [
        {
          "internalType": "address",
          "name": "template",
          "type": "address"
        },
        {
          "internalType": "bytes",
          "name": "data",
          "type": "bytes"
        }
      ],
      "name": "deployMinter",
      "outputs": [
        {
          "internalType": "contract IAxelarSeaMinterInitializable",
          "name": "minter",
          "type": "address"
        }
      ],
      "stateMutability": "nonpayable",
      "type": "function"
    },
    {
      "inputs": [],
      "name": "enableMintFeeOverride",
      "outputs": [
        {
          "internalType": "bool",
          "name": "",
          "type": "bool"
        }
      ],
      "stateMutability": "view",
      "type": "function"
    },
    {
      "inputs": [
        {
          "internalType": "address",
          "name": "",
          "type": "address"
        }
      ],
      "name": "exclusiveContract",
      "outputs": [
        {
          "internalType": "bool",
          "name": "",
          "type": "bool"
        }
      ],
      "stateMutability": "view",
      "type": "function"
    },
    {
      "inputs": [],
      "name": "exclusiveLevel",
      "outputs": [
        {
          "internalType": "uint256",
          "name": "",
          "type": "uint256"
        }
      ],
      "stateMutability": "view",
      "type": "function"
    },
    {
      "inputs": [
        {
          "internalType": "uint256",
          "name": "tokenId",
          "type": "uint256"
        }
      ],
      "name": "exists",
      "outputs": [
        {
          "internalType": "bool",
          "name": "",
          "type": "bool"
        }
      ],
      "stateMutability": "view",
      "type": "function"
    },
    {
      "inputs": [],
      "name": "fundAddress",
      "outputs": [
        {
          "internalType": "address",
          "name": "",
          "type": "address"
        }
      ],
      "stateMutability": "view",
      "type": "function"
    },
    {
      "inputs": [],
      "name": "getAllMinters",
      "outputs": [
        {
          "internalType": "address[]",
          "name": "",
          "type": "address[]"
        }
      ],
      "stateMutability": "view",
      "type": "function"
    },
    {
      "inputs": [
        {
          "internalType": "uint256",
          "name": "tokenId",
          "type": "uint256"
        }
      ],
      "name": "getApproved",
      "outputs": [
        {
          "internalType": "address",
          "name": "",
          "type": "address"
        }
      ],
      "stateMutability": "view",
      "type": "function"
    },
    {
      "inputs": [
        {
          "internalType": "uint256",
          "name": "start",
          "type": "uint256"
        },
        {
          "internalType": "uint256",
          "name": "end",
          "type": "uint256"
        }
      ],
      "name": "getMinters",
      "outputs": [
        {
          "internalType": "address[]",
          "name": "",
          "type": "address[]"
        }
      ],
      "stateMutability": "view",
      "type": "function"
    },
    {
      "inputs": [
        {
          "internalType": "address",
          "name": "owner",
          "type": "address"
        },
        {
          "internalType": "bytes32",
          "name": "_collectionId",
          "type": "bytes32"
        },
        {
          "internalType": "uint256",
          "name": "_exclusiveLevel",
          "type": "uint256"
        },
        {
          "internalType": "uint256",
          "name": "_maxSupply",
          "type": "uint256"
        },
        {
          "internalType": "string",
          "name": "_nftName",
          "type": "string"
        },
        {
          "internalType": "string",
          "name": "_nftSymbol",
          "type": "string"
        }
      ],
      "name": "initialize",
      "outputs": [],
      "stateMutability": "nonpayable",
      "type": "function"
    },
    {
      "inputs": [
        {
          "internalType": "address",
          "name": "owner",
          "type": "address"
        },
        {
          "internalType": "address",
          "name": "operator",
          "type": "address"
        }
      ],
      "name": "isApprovedForAll",
      "outputs": [
        {
          "internalType": "bool",
          "name": "",
          "type": "bool"
        }
      ],
      "stateMutability": "view",
      "type": "function"
    },
    {
      "inputs": [
        {
          "internalType": "address",
          "name": "minter",
          "type": "address"
        }
      ],
      "name": "isMinter",
      "outputs": [
        {
          "internalType": "bool",
          "name": "",
          "type": "bool"
        }
      ],
      "stateMutability": "view",
      "type": "function"
    },
    {
      "inputs": [],
      "name": "maxSupply",
      "outputs": [
        {
          "internalType": "uint256",
          "name": "",
          "type": "uint256"
        }
      ],
      "stateMutability": "view",
      "type": "function"
    },
    {
      "inputs": [
        {
          "internalType": "address",
          "name": "to",
          "type": "address"
        },
        {
          "internalType": "uint256",
          "name": "amount",
          "type": "uint256"
        }
      ],
      "name": "mint",
      "outputs": [],
      "stateMutability": "nonpayable",
      "type": "function"
    },
    {
      "inputs": [],
      "name": "mintFee",
      "outputs": [
        {
          "internalType": "uint256",
          "name": "",
          "type": "uint256"
        }
      ],
      "stateMutability": "view",
      "type": "function"
    },
    {
      "inputs": [],
      "name": "mintFeeOverride",
      "outputs": [
        {
          "internalType": "uint256",
          "name": "",
          "type": "uint256"
        }
      ],
      "stateMutability": "view",
      "type": "function"
    },
    {
      "inputs": [],
      "name": "mintersLength",
      "outputs": [
        {
          "internalType": "uint256",
          "name": "",
          "type": "uint256"
        }
      ],
      "stateMutability": "view",
      "type": "function"
    },
    {
      "inputs": [],
      "name": "name",
      "outputs": [
        {
          "internalType": "string",
          "name": "",
          "type": "string"
        }
      ],
      "stateMutability": "view",
      "type": "function"
    },
    {
      "inputs": [],
      "name": "newMinterStopped",
      "outputs": [
        {
          "internalType": "bool",
          "name": "",
          "type": "bool"
        }
      ],
      "stateMutability": "view",
      "type": "function"
    },
    {
      "inputs": [
        {
          "internalType": "uint256",
          "name": "newFee",
          "type": "uint256"
        },
        {
          "internalType": "bool",
          "name": "overrided",
          "type": "bool"
        }
      ],
      "name": "overrideMintFee",
      "outputs": [],
      "stateMutability": "nonpayable",
      "type": "function"
    },
    {
      "inputs": [],
      "name": "owner",
      "outputs": [
        {
          "internalType": "address",
          "name": "",
          "type": "address"
        }
      ],
      "stateMutability": "view",
      "type": "function"
    },
    {
      "inputs": [
        {
          "internalType": "uint256",
          "name": "tokenId",
          "type": "uint256"
        }
      ],
      "name": "ownerOf",
      "outputs": [
        {
          "internalType": "address",
          "name": "",
          "type": "address"
        }
      ],
      "stateMutability": "view",
      "type": "function"
    },
    {
      "inputs": [],
      "name": "projectId",
      "outputs": [
        {
          "internalType": "bytes32",
          "name": "",
          "type": "bytes32"
        }
      ],
      "stateMutability": "view",
      "type": "function"
    },
    {
      "inputs": [
        {
          "internalType": "contract IERC20",
          "name": "token",
          "type": "address"
        }
      ],
      "name": "recoverERC20",
      "outputs": [],
      "stateMutability": "nonpayable",
      "type": "function"
    },
    {
      "inputs": [],
      "name": "recoverETH",
      "outputs": [],
      "stateMutability": "nonpayable",
      "type": "function"
    },
    {
      "inputs": [],
      "name": "registry",
      "outputs": [
        {
          "internalType": "contract AxelarSeaProjectRegistry",
          "name": "",
          "type": "address"
        }
      ],
      "stateMutability": "view",
      "type": "function"
    },
    {
      "inputs": [],
      "name": "renounceOwnership",
      "outputs": [],
      "stateMutability": "nonpayable",
      "type": "function"
    },
    {
      "inputs": [
        {
          "internalType": "uint256",
          "name": "",
          "type": "uint256"
        },
        {
          "internalType": "uint256",
          "name": "salePrice",
          "type": "uint256"
        }
      ],
      "name": "royaltyInfo",
      "outputs": [
        {
          "internalType": "address",
          "name": "receiver",
          "type": "address"
        },
        {
          "internalType": "uint256",
          "name": "royaltyAmount",
          "type": "uint256"
        }
      ],
      "stateMutability": "view",
      "type": "function"
    },
    {
      "inputs": [],
      "name": "royaltyPercentage",
      "outputs": [
        {
          "internalType": "uint256",
          "name": "",
          "type": "uint256"
        }
      ],
      "stateMutability": "view",
      "type": "function"
    },
    {
      "inputs": [],
      "name": "royaltyReceiver",
      "outputs": [
        {
          "internalType": "address",
          "name": "",
          "type": "address"
        }
      ],
      "stateMutability": "view",
      "type": "function"
    },
    {
      "inputs": [
        {
          "internalType": "address",
          "name": "from",
          "type": "address"
        },
        {
          "internalType": "address",
          "name": "to",
          "type": "address"
        },
        {
          "internalType": "uint256",
          "name": "tokenId",
          "type": "uint256"
        }
      ],
      "name": "safeTransferFrom",
      "outputs": [],
      "stateMutability": "nonpayable",
      "type": "function"
    },
    {
      "inputs": [
        {
          "internalType": "address",
          "name": "from",
          "type": "address"
        },
        {
          "internalType": "address",
          "name": "to",
          "type": "address"
        },
        {
          "internalType": "uint256",
          "name": "tokenId",
          "type": "uint256"
        },
        {
          "internalType": "bytes",
          "name": "data",
          "type": "bytes"
        }
      ],
      "name": "safeTransferFrom",
      "outputs": [],
      "stateMutability": "nonpayable",
      "type": "function"
    },
    {
      "inputs": [
        {
          "internalType": "address",
          "name": "operator",
          "type": "address"
        },
        {
          "internalType": "bool",
          "name": "approved",
          "type": "bool"
        }
      ],
      "name": "setApprovalForAll",
      "outputs": [],
      "stateMutability": "nonpayable",
      "type": "function"
    },
    {
      "inputs": [
        {
          "internalType": "string",
          "name": "newPrefix",
          "type": "string"
        }
      ],
      "name": "setBaseTokenUriPrefix",
      "outputs": [],
      "stateMutability": "nonpayable",
      "type": "function"
    },
    {
      "inputs": [
        {
          "internalType": "string",
          "name": "newSuffix",
          "type": "string"
        }
      ],
      "name": "setBaseTokenUriSuffix",
      "outputs": [],
      "stateMutability": "nonpayable",
      "type": "function"
    },
    {
      "inputs": [
        {
          "internalType": "address",
          "name": "addr",
          "type": "address"
        },
        {
          "internalType": "bool",
          "name": "enabled",
          "type": "bool"
        }
      ],
      "name": "setExclusiveContract",
      "outputs": [],
      "stateMutability": "nonpayable",
      "type": "function"
    },
    {
      "inputs": [
        {
          "internalType": "uint256",
          "name": "newSupply",
          "type": "uint256"
        }
      ],
      "name": "setMaxSupply",
      "outputs": [],
      "stateMutability": "nonpayable",
      "type": "function"
    },
    {
      "inputs": [
        {
          "internalType": "address",
          "name": "minter",
          "type": "address"
        },
        {
          "internalType": "bool",
          "name": "enabled",
          "type": "bool"
        }
      ],
      "name": "setMinter",
      "outputs": [],
      "stateMutability": "nonpayable",
      "type": "function"
    },
    {
      "inputs": [
        {
          "internalType": "address",
          "name": "receiver",
          "type": "address"
        },
        {
          "internalType": "uint256",
          "name": "percentage",
          "type": "uint256"
        }
      ],
      "name": "setRoyalty",
      "outputs": [],
      "stateMutability": "nonpayable",
      "type": "function"
    },
    {
      "inputs": [],
      "name": "stopNewMinter",
      "outputs": [],
      "stateMutability": "nonpayable",
      "type": "function"
    },
    {
      "inputs": [
        {
          "internalType": "bytes4",
          "name": "interfaceId",
          "type": "bytes4"
        }
      ],
      "name": "supportsInterface",
      "outputs": [
        {
          "internalType": "bool",
          "name": "",
          "type": "bool"
        }
      ],
      "stateMutability": "view",
      "type": "function"
    },
    {
      "inputs": [],
      "name": "symbol",
      "outputs": [
        {
          "internalType": "string",
          "name": "",
          "type": "string"
        }
      ],
      "stateMutability": "view",
      "type": "function"
    },
    {
      "inputs": [
        {
          "internalType": "uint256",
          "name": "index",
          "type": "uint256"
        }
      ],
      "name": "tokenByIndex",
      "outputs": [
        {
          "internalType": "uint256",
          "name": "",
          "type": "uint256"
        }
      ],
      "stateMutability": "view",
      "type": "function"
    },
    {
      "inputs": [
        {
          "internalType": "address",
          "name": "owner",
          "type": "address"
        },
        {
          "internalType": "uint256",
          "name": "index",
          "type": "uint256"
        }
      ],
      "name": "tokenOfOwnerByIndex",
      "outputs": [
        {
          "internalType": "uint256",
          "name": "",
          "type": "uint256"
        }
      ],
      "stateMutability": "view",
      "type": "function"
    },
    {
      "inputs": [
        {
          "internalType": "uint256",
          "name": "tokenId",
          "type": "uint256"
        }
      ],
      "name": "tokenURI",
      "outputs": [
        {
          "internalType": "string",
          "name": "",
          "type": "string"
        }
      ],
      "stateMutability": "view",
      "type": "function"
    },
    {
      "inputs": [],
      "name": "totalSupply",
      "outputs": [
        {
          "internalType": "uint256",
          "name": "",
          "type": "uint256"
        }
      ],
      "stateMutability": "view",
      "type": "function"
    },
    {
      "inputs": [
        {
          "internalType": "address",
          "name": "from",
          "type": "address"
        },
        {
          "internalType": "address",
          "name": "to",
          "type": "address"
        },
        {
          "internalType": "uint256",
          "name": "tokenId",
          "type": "uint256"
        }
      ],
      "name": "transferFrom",
      "outputs": [],
      "stateMutability": "nonpayable",
      "type": "function"
    },
    {
      "inputs": [
        {
          "internalType": "address",
          "name": "newOwner",
          "type": "address"
        }
      ],
      "name": "transferOwnership",
      "outputs": [],
      "stateMutability": "nonpayable",
      "type": "function"
    },
    {
      "inputs": [
        {
          "internalType": "address",
          "name": "",
          "type": "address"
        }
      ],
      "name": "walletMinted",
      "outputs": [
        {
          "internalType": "uint256",
          "name": "",
          "type": "uint256"
        }
      ],
      "stateMutability": "view",
      "type": "function"
    }
  ],
  "transactionHash": "0x6fe5884b2a1a3d5d37758ca4af27eae2a1d0d608ba157900a476d532539dcec2",
  "args": [],
  "numDeployments": 1,
  "solcInputHash": "161adc551240a37cf661d6862dee1448",
  "bytecode": "0x60806040523480156200001157600080fd5b506040805180820182526001808252605f60f81b6020808401828152855180870190965292855284015281519192916200004e916097916200006d565b508051620000649060989060208401906200006d565b5050506200014f565b8280546200007b9062000113565b90600052602060002090601f0160209004810192826200009f5760008555620000ea565b82601f10620000ba57805160ff1916838001178555620000ea565b82800160010185558215620000ea579182015b82811115620000ea578251825591602001919060010190620000cd565b50620000f8929150620000fc565b5090565b5b80821115620000f85760008155600101620000fd565b600181811c908216806200012857607f821691505b6020821081036200014957634e487b7160e01b600052602260045260246000fd5b50919050565b613712806200015f6000396000f3fe608060405234801561001057600080fd5b506004361061036d5760003560e01c80638a81b211116101d3578063b88d4fde11610104578063d8b4fc5b116100a2578063e985e9c51161007c578063e985e9c51461071a578063f2fde38b14610756578063f910617514610769578063fac651aa1461077157600080fd5b8063d8b4fc5b146106ec578063e82bef29146106ff578063e8a3d4851461071257600080fd5b8063c87b56dd116100de578063c87b56dd1461069d578063cf456ae7146106b0578063d3738fc8146106c3578063d5abeb01146106e357600080fd5b8063b88d4fde14610679578063b8c317811461068c578063c37bbabc1461069557600080fd5b80639fbc871311610171578063aa271e1a1161014b578063aa271e1a14610633578063ab5ea25214610646578063ace0103d14610659578063b850d0a11461066c57600080fd5b80639fbc871314610605578063a045442c14610618578063a22cb4651461062057600080fd5b8063918aa11b116101ad578063918aa11b146105a757806395d89b41146105ca57806396a85be8146105d25780639e8c708e146105f257600080fd5b80638a81b211146105705780638da5cb5b1461058357806390b2464b1461059457600080fd5b80633d26bb67116102ad5780636352211e1161024b578063715018a611610225578063715018a61461053457806375ec7d481461053c5780637b1039991461054f5780638a71bb2d1461056757600080fd5b80636352211e146104fb5780636f8b44b01461050e57806370a082311461052157600080fd5b806342842e0e1161028757806342842e0e146104ba5780634f558e79146104cd5780634f6ccce7146104e0578063537d4924146104f357600080fd5b80633d26bb67146104965780633fafa1271461049f57806340c10f19146104a757600080fd5b806313966db51161031a5780632a55205a116102f45780632a55205a1461043b5780632f745c591461046d57806333cde651146104805780633655116b1461048957600080fd5b806313966db51461040a57806318160ddd1461042057806323b872dd1461042857600080fd5b8063081812fc1161034b578063081812fc146103b9578063095ea7b3146103e457806310fd332b146103f757600080fd5b806301ffc9a7146103725780630614117a1461039a57806306fdde03146103a4575b600080fd5b610385610380366004612dab565b610779565b60405190151581526020015b60405180910390f35b6103a2610799565b005b6103ac61080d565b6040516103919190612e20565b6103cc6103c7366004612e33565b61081c565b6040516001600160a01b039091168152602001610391565b6103a26103f2366004612e61565b610843565b6103a2610405366004612e61565b61095d565b6104126109e1565b604051908152602001610391565b609f54610412565b6103a2610436366004612e8d565b610a6c565b61044e610449366004612ece565b610a9d565b604080516001600160a01b039093168352602083019190915201610391565b61041261047b366004612e61565b610ad9565b61041260ac5481565b60a1546103859060ff1681565b61041260a35481565b610412610b6f565b6103a26104b5366004612e61565b610bbd565b6103a26104c8366004612e8d565b610c6c565b6103856104db366004612e33565b610c87565b6104126104ee366004612e33565b610ca6565b6103ac610d39565b6103cc610509366004612e33565b610dc7565b6103a261051c366004612e33565b610e27565b61041261052f366004612ef0565b610e8e565b6103a2610f14565b6103a261054a366004612f1b565b610f28565b60a1546103cc9061010090046001600160a01b031681565b61041260b15481565b6103a261057e366004613019565b61102e565b6033546001600160a01b03166103cc565b6103a26105a236600461304e565b61104d565b6103856105b5366004612ef0565b60a86020526000908152604090205460ff1681565b6103ac6111e3565b6105e56105e0366004612ece565b6111ed565b60405161039191906130e0565b6103a2610600366004612ef0565b611297565b60b0546103cc906001600160a01b031681565b6105e561131e565b6103a261062e366004612f1b565b61132d565b610385610641366004612ef0565b611338565b6103a2610654366004613019565b611345565b6103cc61066736600461312d565b611360565b60ad546103859060ff1681565b6103a261068736600461317d565b61157b565b61041260a65481565b6104126115b3565b6103ac6106ab366004612e33565b6115bf565b6103a26106be366004612f1b565b6115ca565b6104126106d1366004612ef0565b60ab6020526000908152604090205481565b61041260a75481565b6103a26106fa3660046131e9565b611657565b60a2546103cc906001600160a01b031681565b6103ac611733565b61038561072836600461320e565b6001600160a01b039182166000908152609c6020908152604080832093909416825291909152205460ff1690565b6103a2610764366004612ef0565b6117e1565b6103ac611857565b6103a2611864565b6000610784826118a4565b806107935750610793826118cf565b92915050565b6107a16118f4565b604051600090339047908381818185875af1925050503d80600081146107e3576040519150601f19603f3d011682016040523d82523d6000602084013e6107e8565b606091505b505090508061080a576040516312171d8360e31b815260040160405180910390fd5b50565b606061081761194e565b905090565b6000610827826119e0565b506000908152609b60205260409020546001600160a01b031690565b600061084e82610dc7565b9050806001600160a01b0316836001600160a01b0316036108c05760405162461bcd60e51b815260206004820152602160248201527f4552433732313a20617070726f76616c20746f2063757272656e74206f776e656044820152603960f91b60648201526084015b60405180910390fd5b336001600160a01b03821614806108dc57506108dc8133610728565b61094e5760405162461bcd60e51b815260206004820152603e60248201527f4552433732313a20617070726f76652063616c6c6572206973206e6f7420746f60448201527f6b656e206f776e6572206e6f7220617070726f76656420666f7220616c6c000060648201526084016108b7565b6109588383611a3f565b505050565b6109656118f4565b670de0b6b3a764000081111561098e57604051631dd2188d60e31b815260040160405180910390fd5b60b080546001600160a01b0319166001600160a01b03841690811790915560b18290556040518291907faf80eecb6d383b7ffd8fa84554dd154b74dfdf6410e2dc8a7f5afda7f2d7e01890600090a35050565b60ad5460009060ff16610a655760a160019054906101000a90046001600160a01b03166001600160a01b031663f70210ea6040518163ffffffff1660e01b8152600401602060405180830381865afa158015610a41573d6000803e3d6000fd5b505050506040513d601f19601f82011682018060405250810190610817919061323c565b5060ac5490565b610a763382611aad565b610a925760405162461bcd60e51b81526004016108b790613255565b610958838383611b2c565b60b05460b1546001600160a01b0390911690600090670de0b6b3a764000090610ac690856132b9565b610ad091906132ee565b90509250929050565b6000610ae483610e8e565b8210610b465760405162461bcd60e51b815260206004820152602b60248201527f455243373231456e756d657261626c653a206f776e657220696e646578206f7560448201526a74206f6620626f756e647360a81b60648201526084016108b7565b506001600160a01b03919091166000908152609d60209081526040808320938352929052205490565b60a1546040516308d247d360e41b815230600482015260009161010090046001600160a01b031690638d247d3090602401602060405180830381865afa158015610a41573d6000803e3d6000fd5b33610bc960a982611cd3565b610c015760405162461bcd60e51b81526020600482015260096024820152682337b93134b23232b760b91b60448201526064016108b7565b600260655403610c535760405162461bcd60e51b815260206004820152601f60248201527f5265656e7472616e637947756172643a207265656e7472616e742063616c6c0060448201526064016108b7565b6002606555610c628383611cf8565b5050600160655550565b6109588383836040518060200160405280600081525061157b565b6000818152609960205260408120546001600160a01b03161515610793565b6000610cb1609f5490565b8210610d145760405162461bcd60e51b815260206004820152602c60248201527f455243373231456e756d657261626c653a20676c6f62616c20696e646578206f60448201526b7574206f6620626f756e647360a01b60648201526084016108b7565b609f8281548110610d2757610d27613302565b90600052602060002001549050919050565b60ae8054610d4690613318565b80601f0160208091040260200160405190810160405280929190818152602001828054610d7290613318565b8015610dbf5780601f10610d9457610100808354040283529160200191610dbf565b820191906000526020600020905b815481529060010190602001808311610da257829003601f168201915b505050505081565b6000818152609960205260408120546001600160a01b0316806107935760405162461bcd60e51b8152602060048201526018602482015277115490cdcc8c4e881a5b9d985b1a59081d1bdad95b88125160421b60448201526064016108b7565b610e2f6118f4565b60a15460ff1615610e5357604051631dd2188d60e31b815260040160405180910390fd5b60a78190556040518181527f3f8118fc46e72ecde0c5e090803cad8c88e817b2f1e93e820aa9bfbf51f2468d9060200160405180910390a150565b60006001600160a01b038216610ef85760405162461bcd60e51b815260206004820152602960248201527f4552433732313a2061646472657373207a65726f206973206e6f7420612076616044820152683634b21037bbb732b960b91b60648201526084016108b7565b506001600160a01b03166000908152609a602052604090205490565b610f1c6118f4565b610f266000611da5565b565b6033546001600160a01b03163314801590610fb0575060a15460405163027cf93b60e31b81523360048201526101009091046001600160a01b0316906313e7c9d890602401602060405180830381865afa158015610f8a573d6000803e3d6000fd5b505050506040513d601f19601f82011682018060405250810190610fae9190613352565b155b15610fce57604051631dd2188d60e31b815260040160405180910390fd5b6001600160a01b038216600081815260a86020908152604091829020805460ff191685151590811790915591519182527f05d3978e3d4c9953c7d2cbd54c2c9901050350ecd9c40284efa828e2bcdcb94191015b60405180910390a25050565b6110366118f4565b80516110499060af906020840190612cfc565b5050565b600054610100900460ff161580801561106d5750600054600160ff909116105b806110875750303b158015611087575060005460ff166001145b6110ea5760405162461bcd60e51b815260206004820152602e60248201527f496e697469616c697a61626c653a20636f6e747261637420697320616c72656160448201526d191e481a5b9a5d1a585b1a5e995960921b60648201526084016108b7565b6000805460ff19166001179055801561110d576000805461ff0019166101001790555b60a1805474ffffffffffffffffffffffffffffffffffffffff001916336101000217905560a386905560a685905560a784905582516111539060a4906020860190612cfc565b5081516111679060a5906020850190612cfc565b5060a280546001600160a01b0319166001600160a01b03891617905561118c87611da5565b611194611df7565b80156111da576000805461ff0019169055604051600181527f7f26b83ff96e1f2b6a682f133852f6798a09c465da95921460cefb38474024989060200160405180910390a15b50505050505050565b6060610817611e26565b606060006111fb848461336f565b905060008167ffffffffffffffff81111561121857611218612f54565b604051908082528060200260200182016040528015611241578160200160208202803683370190505b50905060005b8281101561128e5761125c60a9878301611e35565b82828151811061126e5761126e613302565b6001600160a01b0390921660209283029190910190910152600101611247565b50949350505050565b61129f6118f4565b6040516370a0823160e01b815230600482015261080a9033906001600160a01b038416906370a0823190602401602060405180830381865afa1580156112e9573d6000803e3d6000fd5b505050506040513d601f19601f8201168201806040525081019061130d919061323c565b6001600160a01b0384169190611e41565b606061081760006105e06115b3565b611049338383611eb9565b600061079360a983611cd3565b61134d6118f4565b80516110499060ae906020840190612cfc565b60006002606554036113b45760405162461bcd60e51b815260206004820152601f60248201527f5265656e7472616e637947756172643a207265656e7472616e742063616c6c0060448201526064016108b7565b60026065556033546001600160a01b031633148015906113e4575060a15461010090046001600160a01b03163314155b1561140257604051631dd2188d60e31b815260040160405180910390fd5b60a15460405163a90cb89b60e01b81526001600160a01b0385811660048301526101009092049091169063a90cb89b90602401602060405180830381865afa158015611452573d6000803e3d6000fd5b505050506040513d601f19601f820116820180604052508101906114769190613352565b61149e57604051633855dd1960e21b81526001600160a01b03841660048201526024016108b7565b6114a783611f87565b9050806001600160a01b031663cf7a1d77306114cb6033546001600160a01b031690565b856040518463ffffffff1660e01b81526004016114ea93929190613386565b600060405180830381600087803b15801561150457600080fd5b505af1158015611518573d6000803e3d6000fd5b505050506115308160a961203490919063ffffffff16565b50604051600181526001600160a01b038216907f1f96bc657d385fd83da973a43f2ad969e6d96b6779b779571a7306db7ca1cd009060200160405180910390a2600160655592915050565b6115853383611aad565b6115a15760405162461bcd60e51b81526004016108b790613255565b6115ad84848484612049565b50505050565b600061081760a961207c565b606061079382612086565b6115d26118f4565b60a15460ff16156115f657604051631dd2188d60e31b815260040160405180910390fd5b801561160d5761160760a983612034565b5061161a565b61161860a9836121e2565b505b816001600160a01b03167f1f96bc657d385fd83da973a43f2ad969e6d96b6779b779571a7306db7ca1cd0082604051611022911515815260200190565b60a15460405163027cf93b60e31b81523360048201526101009091046001600160a01b0316906313e7c9d890602401602060405180830381865afa1580156116a3573d6000803e3d6000fd5b505050506040513d601f19601f820116820180604052508101906116c79190613352565b6116e457604051631dd2188d60e31b815260040160405180910390fd5b60ad805460ff191682151590811790915560ac83905560408051848152602081019290925233917f3adcad50d42c2c3ec23ad4ebf52f75cf92212482d66ff9060f0b46735d74b9f09101611022565b606060a160019054906101000a90046001600160a01b03166001600160a01b03166380f2152e6040518163ffffffff1660e01b8152600401600060405180830381865afa158015611788573d6000803e3d6000fd5b505050506040513d6000823e601f3d908101601f191682016040526117b091908101906133bb565b60a3546117bc906121f7565b6040516020016117cd929190613429565b604051602081830303815290604052905090565b6117e96118f4565b6001600160a01b03811661184e5760405162461bcd60e51b815260206004820152602660248201527f4f776e61626c653a206e6577206f776e657220697320746865207a65726f206160448201526564647265737360d01b60648201526084016108b7565b61080a81611da5565b60af8054610d4690613318565b61186c6118f4565b60a1805460ff191660011790556040517f312de1f2fe8510f37391aa593066f10f0a60eda0aa8400eedbbf16fe320467b790600090a1565b60006118af826118cf565b8061079357506001600160e01b0319821663152a902d60e11b1492915050565b60006001600160e01b0319821663780e9d6360e01b148061079357506107938261224e565b6033546001600160a01b03163314610f265760405162461bcd60e51b815260206004820181905260248201527f4f776e61626c653a2063616c6c6572206973206e6f7420746865206f776e657260448201526064016108b7565b606060a4805461195d90613318565b80601f016020809104026020016040519081016040528092919081815260200182805461198990613318565b80156119d65780601f106119ab576101008083540402835291602001916119d6565b820191906000526020600020905b8154815290600101906020018083116119b957829003601f168201915b5050505050905090565b6000818152609960205260409020546001600160a01b031661080a5760405162461bcd60e51b8152602060048201526018602482015277115490cdcc8c4e881a5b9d985b1a59081d1bdad95b88125160421b60448201526064016108b7565b6000818152609b6020526040902080546001600160a01b0319166001600160a01b0384169081179091558190611a7482610dc7565b6001600160a01b03167f8c5be1e5ebec7d5bd14f71427d1e84f3dd0314c0f7b2291e5b200ac8c7c3b92560405160405180910390a45050565b600080611ab983610dc7565b9050806001600160a01b0316846001600160a01b03161480611b0057506001600160a01b038082166000908152609c602090815260408083209388168352929052205460ff165b80611b245750836001600160a01b0316611b198461081c565b6001600160a01b0316145b949350505050565b826001600160a01b0316611b3f82610dc7565b6001600160a01b031614611ba35760405162461bcd60e51b815260206004820152602560248201527f4552433732313a207472616e736665722066726f6d20696e636f72726563742060448201526437bbb732b960d91b60648201526084016108b7565b6001600160a01b038216611c055760405162461bcd60e51b8152602060048201526024808201527f4552433732313a207472616e7366657220746f20746865207a65726f206164646044820152637265737360e01b60648201526084016108b7565b611c1083838361229e565b611c1b600082611a3f565b6001600160a01b0383166000908152609a60205260408120805460019290611c4490849061336f565b90915550506001600160a01b0382166000908152609a60205260408120805460019290611c72908490613458565b909155505060008181526099602052604080822080546001600160a01b0319166001600160a01b0386811691821790925591518493918716917fddf252ad1be2c89b69c2b068fc378daa952ba7f163c4a11628f55a4df523b3ef91a4505050565b6001600160a01b038116600090815260018301602052604081205415155b9392505050565b6001600160a01b038216600090815260ab602052604081208054839290611d20908490613458565b9091555050609f5460a754611d358383613458565b1115611d725760405162461bcd60e51b815260206004820152600c60248201526b14dd5c1c1b1e481b585e195960a21b60448201526064016108b7565b81600103611d875761095883826001016122b2565b60015b8281116115ad57611d9d848284016122b2565b600101611d8a565b603380546001600160a01b038381166001600160a01b0319831681179093556040519116919082907f8be0079c531659141344cd1fd0a4f28419497f9722a3daafe3b4186f6b6457e090600090a35050565b600054610100900460ff16611e1e5760405162461bcd60e51b81526004016108b790613470565b610f266122cc565b606060a5805461195d90613318565b6000611cf183836122fa565b600060405163a9059cbb60e01b8152836004820152826024820152602060006044836000895af13d15601f3d11600160005114161716915050806115ad5760405162461bcd60e51b815260206004820152600f60248201526e1514905394d1915497d19052531151608a1b60448201526064016108b7565b816001600160a01b0316836001600160a01b031603611f1a5760405162461bcd60e51b815260206004820152601960248201527f4552433732313a20617070726f766520746f2063616c6c65720000000000000060448201526064016108b7565b6001600160a01b038381166000818152609c6020908152604080832094871680845294825291829020805460ff191686151590811790915591519182527f17307eab39ab6107e8899845ad3d59bd9653f200f220920489ca2b5937696c31910160405180910390a3505050565b60006040517f3d602d80600a3d3981f3363d3d373d3d3d363d7300000000000000000000000081528260601b60148201526e5af43d82803e903d91602b57fd5bf360881b60288201526037816000f09150506001600160a01b03811661202f5760405162461bcd60e51b815260206004820152601660248201527f455243313136373a20637265617465206661696c65640000000000000000000060448201526064016108b7565b919050565b6000611cf1836001600160a01b038416612324565b612054848484611b2c565b61206084848484612373565b6115ad5760405162461bcd60e51b81526004016108b7906134bb565b6000610793825490565b606061209182610c87565b6120f55760405162461bcd60e51b815260206004820152602f60248201527f4552433732314d657461646174613a2055524920717565727920666f72206e6f60448201526e3732bc34b9ba32b73a103a37b5b2b760891b60648201526084016108b7565b60ae805461210290613318565b90506000036121c35760a160019054906101000a90046001600160a01b03166001600160a01b031663d547cfb76040518163ffffffff1660e01b8152600401600060405180830381865afa15801561215e573d6000803e3d6000fd5b505050506040513d6000823e601f3d908101601f1916820160405261218691908101906133bb565b60a354612192906121f7565b61219b84612474565b6040516020016121ad9392919061350d565b6040516020818303038152906040529050919050565b60ae6121ce83612474565b60af6040516020016121ad939291906135f6565b6000611cf1836001600160a01b038416612575565b6060816000036122215750506040805180820190915260048152630307830360e41b602082015290565b8160005b8115612244578061223581613629565b915050600882901c9150612225565b611b248482612668565b60006001600160e01b031982166380ac58cd60e01b148061227f57506001600160e01b03198216635b5e139f60e01b145b8061079357506301ffc9a760e01b6001600160e01b0319831614610793565b6122a783612804565b610958838383612933565b6110498282604051806020016040528060008152506129eb565b600054610100900460ff166122f35760405162461bcd60e51b81526004016108b790613470565b6001606555565b600082600001828154811061231157612311613302565b9060005260206000200154905092915050565b600081815260018301602052604081205461236b57508154600181810184556000848152602080822090930184905584548482528286019093526040902091909155610793565b506000610793565b60006001600160a01b0384163b1561246957604051630a85bd0160e11b81526001600160a01b0385169063150b7a02906123b7903390899088908890600401613642565b6020604051808303816000875af19250505080156123f2575060408051601f3d908101601f191682019092526123ef9181019061367e565b60015b61244f573d808015612420576040519150601f19603f3d011682016040523d82523d6000602084013e612425565b606091505b5080516000036124475760405162461bcd60e51b81526004016108b7906134bb565b805181602001fd5b6001600160e01b031916630a85bd0160e11b149050611b24565b506001949350505050565b60608160000361249b5750506040805180820190915260018152600360fc1b602082015290565b8160005b81156124c557806124af81613629565b91506124be9050600a836132ee565b915061249f565b60008167ffffffffffffffff8111156124e0576124e0612f54565b6040519080825280601f01601f19166020018201604052801561250a576020820181803683370190505b5090505b8415611b245761251f60018361336f565b915061252c600a8661369b565b612537906030613458565b60f81b81838151811061254c5761254c613302565b60200101906001600160f81b031916908160001a90535061256e600a866132ee565b945061250e565b6000818152600183016020526040812054801561265e57600061259960018361336f565b85549091506000906125ad9060019061336f565b90508181146126125760008660000182815481106125cd576125cd613302565b90600052602060002001549050808760000184815481106125f0576125f0613302565b6000918252602080832090910192909255918252600188019052604090208390555b8554869080612623576126236136af565b600190038181906000526020600020016000905590558560010160008681526020019081526020016000206000905560019350505050610793565b6000915050610793565b606060006126778360026132b9565b612682906002613458565b67ffffffffffffffff81111561269a5761269a612f54565b6040519080825280601f01601f1916602001820160405280156126c4576020820181803683370190505b509050600360fc1b816000815181106126df576126df613302565b60200101906001600160f81b031916908160001a905350600f60fb1b8160018151811061270e5761270e613302565b60200101906001600160f81b031916908160001a90535060006127328460026132b9565b61273d906001613458565b90505b60018111156127b5576f181899199a1a9b1b9c1cb0b131b232b360811b85600f166010811061277157612771613302565b1a60f81b82828151811061278757612787613302565b60200101906001600160f81b031916908160001a90535060049490941c936127ae816136c5565b9050612740565b508315611cf15760405162461bcd60e51b815260206004820181905260248201527f537472696e67733a20686578206c656e67746820696e73756666696369656e7460448201526064016108b7565b6001600160a01b0381161561080a57600260a654106128515760405162461bcd60e51b815260206004820152600960248201526814dbdd5b189bdd5b9960ba1b60448201526064016108b7565b600160a65410806128cd575060a154604051637765acf760e11b81523360048201526101009091046001600160a01b03169063eecb59ee90602401602060405180830381865afa1580156128a9573d6000803e3d6000fd5b505050506040513d601f19601f820116820180604052508101906128cd9190613352565b806128e7575033600090815260a8602052604090205460ff165b61080a5760405162461bcd60e51b815260206004820152601660248201527f4578636c757369766520746f204178656c61725365610000000000000000000060448201526064016108b7565b6001600160a01b03831661298e5761298981609f8054600083815260a060205260408120829055600182018355919091527f0bc14066c33013fe88f66e314e4cf150b0b2d4d6451a1a51dbbd1c27cd11de280155565b6129b1565b816001600160a01b0316836001600160a01b0316146129b1576129b18382612a1e565b6001600160a01b0382166129c85761095881612abb565b826001600160a01b0316826001600160a01b031614610958576109588282612b6a565b6129f58383612bae565b612a026000848484612373565b6109585760405162461bcd60e51b81526004016108b7906134bb565b60006001612a2b84610e8e565b612a35919061336f565b6000838152609e6020526040902054909150808214612a88576001600160a01b0384166000908152609d602090815260408083208584528252808320548484528184208190558352609e90915290208190555b506000918252609e602090815260408084208490556001600160a01b039094168352609d81528383209183525290812055565b609f54600090612acd9060019061336f565b600083815260a06020526040812054609f8054939450909284908110612af557612af5613302565b9060005260206000200154905080609f8381548110612b1657612b16613302565b600091825260208083209091019290925582815260a09091526040808220849055858252812055609f805480612b4e57612b4e6136af565b6001900381819060005260206000200160009055905550505050565b6000612b7583610e8e565b6001600160a01b039093166000908152609d602090815260408083208684528252808320859055938252609e9052919091209190915550565b6001600160a01b038216612c045760405162461bcd60e51b815260206004820181905260248201527f4552433732313a206d696e7420746f20746865207a65726f206164647265737360448201526064016108b7565b6000818152609960205260409020546001600160a01b031615612c695760405162461bcd60e51b815260206004820152601c60248201527f4552433732313a20746f6b656e20616c7265616479206d696e7465640000000060448201526064016108b7565b612c756000838361229e565b6001600160a01b0382166000908152609a60205260408120805460019290612c9e908490613458565b909155505060008181526099602052604080822080546001600160a01b0319166001600160a01b03861690811790915590518392907fddf252ad1be2c89b69c2b068fc378daa952ba7f163c4a11628f55a4df523b3ef908290a45050565b828054612d0890613318565b90600052602060002090601f016020900481019282612d2a5760008555612d70565b82601f10612d4357805160ff1916838001178555612d70565b82800160010185558215612d70579182015b82811115612d70578251825591602001919060010190612d55565b50612d7c929150612d80565b5090565b5b80821115612d7c5760008155600101612d81565b6001600160e01b03198116811461080a57600080fd5b600060208284031215612dbd57600080fd5b8135611cf181612d95565b60005b83811015612de3578181015183820152602001612dcb565b838111156115ad5750506000910152565b60008151808452612e0c816020860160208601612dc8565b601f01601f19169290920160200192915050565b602081526000611cf16020830184612df4565b600060208284031215612e4557600080fd5b5035919050565b6001600160a01b038116811461080a57600080fd5b60008060408385031215612e7457600080fd5b8235612e7f81612e4c565b946020939093013593505050565b600080600060608486031215612ea257600080fd5b8335612ead81612e4c565b92506020840135612ebd81612e4c565b929592945050506040919091013590565b60008060408385031215612ee157600080fd5b50508035926020909101359150565b600060208284031215612f0257600080fd5b8135611cf181612e4c565b801515811461080a57600080fd5b60008060408385031215612f2e57600080fd5b8235612f3981612e4c565b91506020830135612f4981612f0d565b809150509250929050565b634e487b7160e01b600052604160045260246000fd5b604051601f8201601f1916810167ffffffffffffffff81118282101715612f9357612f93612f54565b604052919050565b600067ffffffffffffffff821115612fb557612fb5612f54565b50601f01601f191660200190565b600082601f830112612fd457600080fd5b8135612fe7612fe282612f9b565b612f6a565b818152846020838601011115612ffc57600080fd5b816020850160208301376000918101602001919091529392505050565b60006020828403121561302b57600080fd5b813567ffffffffffffffff81111561304257600080fd5b611b2484828501612fc3565b60008060008060008060c0878903121561306757600080fd5b863561307281612e4c565b9550602087013594506040870135935060608701359250608087013567ffffffffffffffff808211156130a457600080fd5b6130b08a838b01612fc3565b935060a08901359150808211156130c657600080fd5b506130d389828a01612fc3565b9150509295509295509295565b6020808252825182820181905260009190848201906040850190845b818110156131215783516001600160a01b0316835292840192918401916001016130fc565b50909695505050505050565b6000806040838503121561314057600080fd5b823561314b81612e4c565b9150602083013567ffffffffffffffff81111561316757600080fd5b61317385828601612fc3565b9150509250929050565b6000806000806080858703121561319357600080fd5b843561319e81612e4c565b935060208501356131ae81612e4c565b925060408501359150606085013567ffffffffffffffff8111156131d157600080fd5b6131dd87828801612fc3565b91505092959194509250565b600080604083850312156131fc57600080fd5b823591506020830135612f4981612f0d565b6000806040838503121561322157600080fd5b823561322c81612e4c565b91506020830135612f4981612e4c565b60006020828403121561324e57600080fd5b5051919050565b6020808252602e908201527f4552433732313a2063616c6c6572206973206e6f7420746f6b656e206f776e6560408201526d1c881b9bdc88185c1c1c9bdd995960921b606082015260800190565b634e487b7160e01b600052601160045260246000fd5b60008160001904831182151516156132d3576132d36132a3565b500290565b634e487b7160e01b600052601260045260246000fd5b6000826132fd576132fd6132d8565b500490565b634e487b7160e01b600052603260045260246000fd5b600181811c9082168061332c57607f821691505b60208210810361334c57634e487b7160e01b600052602260045260246000fd5b50919050565b60006020828403121561336457600080fd5b8151611cf181612f0d565b600082821015613381576133816132a3565b500390565b60006001600160a01b038086168352808516602084015250606060408301526133b26060830184612df4565b95945050505050565b6000602082840312156133cd57600080fd5b815167ffffffffffffffff8111156133e457600080fd5b8201601f810184136133f557600080fd5b8051613403612fe282612f9b565b81815285602083850101111561341857600080fd5b6133b2826020830160208601612dc8565b6000835161343b818460208801612dc8565b83519083019061344f818360208801612dc8565b01949350505050565b6000821982111561346b5761346b6132a3565b500190565b6020808252602b908201527f496e697469616c697a61626c653a20636f6e7472616374206973206e6f74206960408201526a6e697469616c697a696e6760a81b606082015260800190565b60208082526032908201527f4552433732313a207472616e7366657220746f206e6f6e20455243373231526560408201527131b2b4bb32b91034b6b83632b6b2b73a32b960711b606082015260800190565b6000845161351f818460208901612dc8565b845190830190613533818360208901612dc8565b602f60f81b91019081528351613550816001840160208801612dc8565b0160010195945050505050565b8054600090600181811c908083168061357757607f831692505b6020808410820361359857634e487b7160e01b600052602260045260246000fd5b8180156135ac57600181146135bd576135ea565b60ff198616895284890196506135ea565b60008881526020902060005b868110156135e25781548b8201529085019083016135c9565b505084890196505b50505050505092915050565b6000613602828661355d565b8451613612818360208901612dc8565b61361e8183018661355d565b979650505050505050565b60006001820161363b5761363b6132a3565b5060010190565b60006001600160a01b038087168352808616602084015250836040830152608060608301526136746080830184612df4565b9695505050505050565b60006020828403121561369057600080fd5b8151611cf181612d95565b6000826136aa576136aa6132d8565b500690565b634e487b7160e01b600052603160045260246000fd5b6000816136d4576136d46132a3565b50600019019056fea26469706673582212200aa793aac0fe62bcd5717cfb2cb97c232596a7bd7cde1e299a3137f502e733e664736f6c634300080d0033",
  "devdoc": {
    "kind": "dev",
    "methods": {
      "approve(address,uint256)": {
        "details": "See {IERC721-approve}."
      },
      "balanceOf(address)": {
        "details": "See {IERC721-balanceOf}."
      },
      "getApproved(uint256)": {
        "details": "See {IERC721-getApproved}."
      },
      "isApprovedForAll(address,address)": {
        "details": "See {IERC721-isApprovedForAll}."
      },
      "name()": {
        "details": "See {IERC721Metadata-name}."
      },
      "owner()": {
        "details": "Returns the address of the current owner."
      },
      "ownerOf(uint256)": {
        "details": "See {IERC721-ownerOf}."
      },
      "renounceOwnership()": {
        "details": "Leaves the contract without owner. It will not be possible to call `onlyOwner` functions anymore. Can only be called by the current owner. NOTE: Renouncing ownership will leave the contract without an owner, thereby removing any functionality that is only available to the owner."
      },
      "royaltyInfo(uint256,uint256)": {
        "details": "Returns how much royalty is owed and to whom, based on a sale price that may be denominated in any unit of exchange. The royalty amount is denominated and should be paid in that same unit of exchange."
      },
      "safeTransferFrom(address,address,uint256)": {
        "details": "See {IERC721-safeTransferFrom}."
      },
      "safeTransferFrom(address,address,uint256,bytes)": {
        "details": "See {IERC721-safeTransferFrom}."
      },
      "setApprovalForAll(address,bool)": {
        "details": "See {IERC721-setApprovalForAll}."
      },
      "supportsInterface(bytes4)": {
        "details": "See {IERC165-supportsInterface}."
      },
      "symbol()": {
        "details": "See {IERC721Metadata-symbol}."
      },
      "tokenByIndex(uint256)": {
        "details": "See {IERC721Enumerable-tokenByIndex}."
      },
      "tokenOfOwnerByIndex(address,uint256)": {
        "details": "See {IERC721Enumerable-tokenOfOwnerByIndex}."
      },
      "tokenURI(uint256)": {
        "details": "See {IERC721Metadata-tokenURI}."
      },
      "totalSupply()": {
        "details": "See {IERC721Enumerable-totalSupply}."
      },
      "transferFrom(address,address,uint256)": {
        "details": "See {IERC721-transferFrom}."
      },
      "transferOwnership(address)": {
        "details": "Transfers ownership of the contract to a new account (`newOwner`). Can only be called by the current owner."
      }
    },
    "version": 1
  },
  "userdoc": {
    "kind": "user",
    "methods": {},
    "version": 1
  },
  "storageLayout": {
    "storage": [
      {
        "astId": 138,
        "contract": "contracts/mint/AxelarSeaNft721Enumerable.sol:AxelarSeaNft721Enumerable",
        "label": "_initialized",
        "offset": 0,
        "slot": "0",
        "type": "t_uint8"
      },
      {
        "astId": 141,
        "contract": "contracts/mint/AxelarSeaNft721Enumerable.sol:AxelarSeaNft721Enumerable",
        "label": "_initializing",
        "offset": 1,
        "slot": "0",
        "type": "t_bool"
      },
      {
        "astId": 625,
        "contract": "contracts/mint/AxelarSeaNft721Enumerable.sol:AxelarSeaNft721Enumerable",
        "label": "__gap",
        "offset": 0,
        "slot": "1",
        "type": "t_array(t_uint256)50_storage"
      },
      {
        "astId": 10,
        "contract": "contracts/mint/AxelarSeaNft721Enumerable.sol:AxelarSeaNft721Enumerable",
        "label": "_owner",
        "offset": 0,
        "slot": "51",
        "type": "t_address"
      },
      {
        "astId": 130,
        "contract": "contracts/mint/AxelarSeaNft721Enumerable.sol:AxelarSeaNft721Enumerable",
        "label": "__gap",
        "offset": 0,
        "slot": "52",
        "type": "t_array(t_uint256)49_storage"
      },
      {
        "astId": 296,
        "contract": "contracts/mint/AxelarSeaNft721Enumerable.sol:AxelarSeaNft721Enumerable",
        "label": "_status",
        "offset": 0,
        "slot": "101",
        "type": "t_uint256"
      },
      {
        "astId": 340,
        "contract": "contracts/mint/AxelarSeaNft721Enumerable.sol:AxelarSeaNft721Enumerable",
        "label": "__gap",
        "offset": 0,
        "slot": "102",
        "type": "t_array(t_uint256)49_storage"
      },
      {
        "astId": 942,
        "contract": "contracts/mint/AxelarSeaNft721Enumerable.sol:AxelarSeaNft721Enumerable",
        "label": "_name",
        "offset": 0,
        "slot": "151",
        "type": "t_string_storage"
      },
      {
        "astId": 944,
        "contract": "contracts/mint/AxelarSeaNft721Enumerable.sol:AxelarSeaNft721Enumerable",
        "label": "_symbol",
        "offset": 0,
        "slot": "152",
        "type": "t_string_storage"
      },
      {
        "astId": 948,
        "contract": "contracts/mint/AxelarSeaNft721Enumerable.sol:AxelarSeaNft721Enumerable",
        "label": "_owners",
        "offset": 0,
        "slot": "153",
        "type": "t_mapping(t_uint256,t_address)"
      },
      {
        "astId": 952,
        "contract": "contracts/mint/AxelarSeaNft721Enumerable.sol:AxelarSeaNft721Enumerable",
        "label": "_balances",
        "offset": 0,
        "slot": "154",
        "type": "t_mapping(t_address,t_uint256)"
      },
      {
        "astId": 956,
        "contract": "contracts/mint/AxelarSeaNft721Enumerable.sol:AxelarSeaNft721Enumerable",
        "label": "_tokenApprovals",
        "offset": 0,
        "slot": "155",
        "type": "t_mapping(t_uint256,t_address)"
      },
      {
        "astId": 962,
        "contract": "contracts/mint/AxelarSeaNft721Enumerable.sol:AxelarSeaNft721Enumerable",
        "label": "_operatorApprovals",
        "offset": 0,
        "slot": "156",
        "type": "t_mapping(t_address,t_mapping(t_address,t_bool))"
      },
      {
        "astId": 1932,
        "contract": "contracts/mint/AxelarSeaNft721Enumerable.sol:AxelarSeaNft721Enumerable",
        "label": "_ownedTokens",
        "offset": 0,
        "slot": "157",
        "type": "t_mapping(t_address,t_mapping(t_uint256,t_uint256))"
      },
      {
        "astId": 1936,
        "contract": "contracts/mint/AxelarSeaNft721Enumerable.sol:AxelarSeaNft721Enumerable",
        "label": "_ownedTokensIndex",
        "offset": 0,
        "slot": "158",
        "type": "t_mapping(t_uint256,t_uint256)"
      },
      {
        "astId": 1939,
        "contract": "contracts/mint/AxelarSeaNft721Enumerable.sol:AxelarSeaNft721Enumerable",
        "label": "_allTokens",
        "offset": 0,
        "slot": "159",
        "type": "t_array(t_uint256)dyn_storage"
      },
      {
        "astId": 1943,
        "contract": "contracts/mint/AxelarSeaNft721Enumerable.sol:AxelarSeaNft721Enumerable",
        "label": "_allTokensIndex",
        "offset": 0,
        "slot": "160",
        "type": "t_mapping(t_uint256,t_uint256)"
      },
      {
        "astId": 6318,
        "contract": "contracts/mint/AxelarSeaNft721Enumerable.sol:AxelarSeaNft721Enumerable",
        "label": "newMinterStopped",
        "offset": 0,
        "slot": "161",
        "type": "t_bool"
      },
      {
        "astId": 6321,
        "contract": "contracts/mint/AxelarSeaNft721Enumerable.sol:AxelarSeaNft721Enumerable",
        "label": "registry",
        "offset": 1,
        "slot": "161",
        "type": "t_contract(AxelarSeaProjectRegistry)6259"
      },
      {
        "astId": 6323,
        "contract": "contracts/mint/AxelarSeaNft721Enumerable.sol:AxelarSeaNft721Enumerable",
        "label": "fundAddress",
        "offset": 0,
        "slot": "162",
        "type": "t_address"
      },
      {
        "astId": 6325,
        "contract": "contracts/mint/AxelarSeaNft721Enumerable.sol:AxelarSeaNft721Enumerable",
        "label": "collectionId",
        "offset": 0,
        "slot": "163",
        "type": "t_bytes32"
      },
      {
        "astId": 6327,
        "contract": "contracts/mint/AxelarSeaNft721Enumerable.sol:AxelarSeaNft721Enumerable",
        "label": "nftName",
        "offset": 0,
        "slot": "164",
        "type": "t_string_storage"
      },
      {
        "astId": 6329,
        "contract": "contracts/mint/AxelarSeaNft721Enumerable.sol:AxelarSeaNft721Enumerable",
        "label": "nftSymbol",
        "offset": 0,
        "slot": "165",
        "type": "t_string_storage"
      },
      {
        "astId": 6331,
        "contract": "contracts/mint/AxelarSeaNft721Enumerable.sol:AxelarSeaNft721Enumerable",
        "label": "exclusiveLevel",
        "offset": 0,
        "slot": "166",
        "type": "t_uint256"
      },
      {
        "astId": 6333,
        "contract": "contracts/mint/AxelarSeaNft721Enumerable.sol:AxelarSeaNft721Enumerable",
        "label": "maxSupply",
        "offset": 0,
        "slot": "167",
        "type": "t_uint256"
      },
      {
        "astId": 6337,
        "contract": "contracts/mint/AxelarSeaNft721Enumerable.sol:AxelarSeaNft721Enumerable",
        "label": "exclusiveContract",
        "offset": 0,
        "slot": "168",
        "type": "t_mapping(t_address,t_bool)"
      },
      {
        "astId": 6340,
        "contract": "contracts/mint/AxelarSeaNft721Enumerable.sol:AxelarSeaNft721Enumerable",
        "label": "minters",
        "offset": 0,
        "slot": "169",
        "type": "t_struct(AddressSet)3706_storage"
      },
      {
        "astId": 6344,
        "contract": "contracts/mint/AxelarSeaNft721Enumerable.sol:AxelarSeaNft721Enumerable",
        "label": "walletMinted",
        "offset": 0,
        "slot": "171",
        "type": "t_mapping(t_address,t_uint256)"
      },
      {
        "astId": 6346,
        "contract": "contracts/mint/AxelarSeaNft721Enumerable.sol:AxelarSeaNft721Enumerable",
        "label": "mintFeeOverride",
        "offset": 0,
        "slot": "172",
        "type": "t_uint256"
      },
      {
        "astId": 6348,
        "contract": "contracts/mint/AxelarSeaNft721Enumerable.sol:AxelarSeaNft721Enumerable",
        "label": "enableMintFeeOverride",
        "offset": 0,
        "slot": "173",
        "type": "t_bool"
      },
      {
        "astId": 6350,
        "contract": "contracts/mint/AxelarSeaNft721Enumerable.sol:AxelarSeaNft721Enumerable",
        "label": "baseTokenUriPrefix",
        "offset": 0,
        "slot": "174",
        "type": "t_string_storage"
      },
      {
        "astId": 6352,
        "contract": "contracts/mint/AxelarSeaNft721Enumerable.sol:AxelarSeaNft721Enumerable",
        "label": "baseTokenUriSuffix",
        "offset": 0,
        "slot": "175",
        "type": "t_string_storage"
      },
      {
        "astId": 6354,
        "contract": "contracts/mint/AxelarSeaNft721Enumerable.sol:AxelarSeaNft721Enumerable",
        "label": "royaltyReceiver",
        "offset": 0,
        "slot": "176",
        "type": "t_address"
      },
      {
        "astId": 6356,
        "contract": "contracts/mint/AxelarSeaNft721Enumerable.sol:AxelarSeaNft721Enumerable",
        "label": "royaltyPercentage",
        "offset": 0,
        "slot": "177",
        "type": "t_uint256"
      }
    ],
    "types": {
      "t_address": {
        "encoding": "inplace",
        "label": "address",
        "numberOfBytes": "20"
      },
      "t_array(t_bytes32)dyn_storage": {
        "base": "t_bytes32",
        "encoding": "dynamic_array",
        "label": "bytes32[]",
        "numberOfBytes": "32"
      },
      "t_array(t_uint256)49_storage": {
        "base": "t_uint256",
        "encoding": "inplace",
        "label": "uint256[49]",
        "numberOfBytes": "1568"
      },
      "t_array(t_uint256)50_storage": {
        "base": "t_uint256",
        "encoding": "inplace",
        "label": "uint256[50]",
        "numberOfBytes": "1600"
      },
      "t_array(t_uint256)dyn_storage": {
        "base": "t_uint256",
        "encoding": "dynamic_array",
        "label": "uint256[]",
        "numberOfBytes": "32"
      },
      "t_bool": {
        "encoding": "inplace",
        "label": "bool",
        "numberOfBytes": "1"
      },
      "t_bytes32": {
        "encoding": "inplace",
        "label": "bytes32",
        "numberOfBytes": "32"
      },
      "t_contract(AxelarSeaProjectRegistry)6259": {
        "encoding": "inplace",
        "label": "contract AxelarSeaProjectRegistry",
        "numberOfBytes": "20"
      },
      "t_mapping(t_address,t_bool)": {
        "encoding": "mapping",
        "key": "t_address",
        "label": "mapping(address => bool)",
        "numberOfBytes": "32",
        "value": "t_bool"
      },
      "t_mapping(t_address,t_mapping(t_address,t_bool))": {
        "encoding": "mapping",
        "key": "t_address",
        "label": "mapping(address => mapping(address => bool))",
        "numberOfBytes": "32",
        "value": "t_mapping(t_address,t_bool)"
      },
      "t_mapping(t_address,t_mapping(t_uint256,t_uint256))": {
        "encoding": "mapping",
        "key": "t_address",
        "label": "mapping(address => mapping(uint256 => uint256))",
        "numberOfBytes": "32",
        "value": "t_mapping(t_uint256,t_uint256)"
      },
      "t_mapping(t_address,t_uint256)": {
        "encoding": "mapping",
        "key": "t_address",
        "label": "mapping(address => uint256)",
        "numberOfBytes": "32",
        "value": "t_uint256"
      },
      "t_mapping(t_bytes32,t_uint256)": {
        "encoding": "mapping",
        "key": "t_bytes32",
        "label": "mapping(bytes32 => uint256)",
        "numberOfBytes": "32",
        "value": "t_uint256"
      },
      "t_mapping(t_uint256,t_address)": {
        "encoding": "mapping",
        "key": "t_uint256",
        "label": "mapping(uint256 => address)",
        "numberOfBytes": "32",
        "value": "t_address"
      },
      "t_mapping(t_uint256,t_uint256)": {
        "encoding": "mapping",
        "key": "t_uint256",
        "label": "mapping(uint256 => uint256)",
        "numberOfBytes": "32",
        "value": "t_uint256"
      },
      "t_string_storage": {
        "encoding": "bytes",
        "label": "string",
        "numberOfBytes": "32"
      },
      "t_struct(AddressSet)3706_storage": {
        "encoding": "inplace",
        "label": "struct EnumerableSet.AddressSet",
        "members": [
          {
            "astId": 3705,
            "contract": "contracts/mint/AxelarSeaNft721Enumerable.sol:AxelarSeaNft721Enumerable",
            "label": "_inner",
            "offset": 0,
            "slot": "0",
            "type": "t_struct(Set)3405_storage"
          }
        ],
        "numberOfBytes": "64"
      },
      "t_struct(Set)3405_storage": {
        "encoding": "inplace",
        "label": "struct EnumerableSet.Set",
        "members": [
          {
            "astId": 3400,
            "contract": "contracts/mint/AxelarSeaNft721Enumerable.sol:AxelarSeaNft721Enumerable",
            "label": "_values",
            "offset": 0,
            "slot": "0",
            "type": "t_array(t_bytes32)dyn_storage"
          },
          {
            "astId": 3404,
            "contract": "contracts/mint/AxelarSeaNft721Enumerable.sol:AxelarSeaNft721Enumerable",
            "label": "_indexes",
            "offset": 0,
            "slot": "1",
            "type": "t_mapping(t_bytes32,t_uint256)"
          }
        ],
        "numberOfBytes": "64"
      },
      "t_uint256": {
        "encoding": "inplace",
        "label": "uint256",
        "numberOfBytes": "32"
      },
      "t_uint8": {
        "encoding": "inplace",
        "label": "uint8",
        "numberOfBytes": "1"
      }
    }
  }
}