{
  "address": "0x0e36a1F1a38781705f739ef0eaDDb394De81013B",
  "abi": [
    {
      "inputs": [],
      "stateMutability": "nonpayable",
      "type": "constructor"
    },
    {
      "inputs": [],
      "name": "ApprovalCallerNotOwnerNorApproved",
      "type": "error"
    },
    {
      "inputs": [],
      "name": "ApprovalQueryForNonexistentToken",
      "type": "error"
    },
    {
      "inputs": [],
      "name": "ApproveToCaller",
      "type": "error"
    },
    {
      "inputs": [],
      "name": "BalanceQueryForZeroAddress",
      "type": "error"
    },
    {
      "inputs": [],
      "name": "Forbidden",
      "type": "error"
    },
    {
      "inputs": [],
      "name": "InvalidQueryRange",
      "type": "error"
    },
    {
      "inputs": [
        {
          "internalType": "address",
          "name": "template",
          "type": "address"
        }
      ],
      "name": "InvalidTemplate",
      "type": "error"
    },
    {
      "inputs": [],
      "name": "MintERC2309QuantityExceedsLimit",
      "type": "error"
    },
    {
      "inputs": [],
      "name": "MintToZeroAddress",
      "type": "error"
    },
    {
      "inputs": [],
      "name": "MintZeroQuantity",
      "type": "error"
    },
    {
      "inputs": [],
      "name": "OwnerQueryForNonexistentToken",
      "type": "error"
    },
    {
      "inputs": [],
      "name": "OwnershipNotInitializedForExtraData",
      "type": "error"
    },
    {
      "inputs": [],
      "name": "SupplyLimited",
      "type": "error"
    },
    {
      "inputs": [],
      "name": "TransferCallerNotOwnerNorApproved",
      "type": "error"
    },
    {
      "inputs": [],
      "name": "TransferFailed",
      "type": "error"
    },
    {
      "inputs": [],
      "name": "TransferFromIncorrectOwner",
      "type": "error"
    },
    {
      "inputs": [],
      "name": "TransferToNonERC721ReceiverImplementer",
      "type": "error"
    },
    {
      "inputs": [],
      "name": "TransferToZeroAddress",
      "type": "error"
    },
    {
      "inputs": [],
      "name": "URIQueryForNonexistentToken",
      "type": "error"
    },
    {
      "anonymous": false,
      "inputs": [
        {
          "indexed": true,
          "internalType": "address",
          "name": "owner",
          "type": "address"
        },
        {
          "indexed": true,
          "internalType": "address",
          "name": "approved",
          "type": "address"
        },
        {
          "indexed": true,
          "internalType": "uint256",
          "name": "tokenId",
          "type": "uint256"
        }
      ],
      "name": "Approval",
      "type": "event"
    },
    {
      "anonymous": false,
      "inputs": [
        {
          "indexed": true,
          "internalType": "address",
          "name": "owner",
          "type": "address"
        },
        {
          "indexed": true,
          "internalType": "address",
          "name": "operator",
          "type": "address"
        },
        {
          "indexed": false,
          "internalType": "bool",
          "name": "approved",
          "type": "bool"
        }
      ],
      "name": "ApprovalForAll",
      "type": "event"
    },
    {
      "anonymous": false,
      "inputs": [
        {
          "indexed": true,
          "internalType": "uint256",
          "name": "fromTokenId",
          "type": "uint256"
        },
        {
          "indexed": false,
          "internalType": "uint256",
          "name": "toTokenId",
          "type": "uint256"
        },
        {
          "indexed": true,
          "internalType": "address",
          "name": "from",
          "type": "address"
        },
        {
          "indexed": true,
          "internalType": "address",
          "name": "to",
          "type": "address"
        }
      ],
      "name": "ConsecutiveTransfer",
      "type": "event"
    },
    {
      "anonymous": false,
      "inputs": [
        {
          "indexed": false,
          "internalType": "uint8",
          "name": "version",
          "type": "uint8"
        }
      ],
      "name": "Initialized",
      "type": "event"
    },
    {
      "anonymous": false,
      "inputs": [
        {
          "indexed": true,
          "internalType": "address",
          "name": "overrider",
          "type": "address"
        },
        {
          "indexed": false,
          "internalType": "uint256",
          "name": "newFee",
          "type": "uint256"
        },
        {
          "indexed": false,
          "internalType": "bool",
          "name": "overrided",
          "type": "bool"
        }
      ],
      "name": "OverrideMintFee",
      "type": "event"
    },
    {
      "anonymous": false,
      "inputs": [
        {
          "indexed": true,
          "internalType": "address",
          "name": "previousOwner",
          "type": "address"
        },
        {
          "indexed": true,
          "internalType": "address",
          "name": "newOwner",
          "type": "address"
        }
      ],
      "name": "OwnershipTransferred",
      "type": "event"
    },
    {
      "anonymous": false,
      "inputs": [
        {
          "indexed": true,
          "internalType": "address",
          "name": "addr",
          "type": "address"
        },
        {
          "indexed": false,
          "internalType": "bool",
          "name": "enabled",
          "type": "bool"
        }
      ],
      "name": "SetExclusiveContract",
      "type": "event"
    },
    {
      "anonymous": false,
      "inputs": [
        {
          "indexed": false,
          "internalType": "uint256",
          "name": "supply",
          "type": "uint256"
        }
      ],
      "name": "SetMaxSupply",
      "type": "event"
    },
    {
      "anonymous": false,
      "inputs": [
        {
          "indexed": true,
          "internalType": "address",
          "name": "minter",
          "type": "address"
        },
        {
          "indexed": false,
          "internalType": "bool",
          "name": "enabled",
          "type": "bool"
        }
      ],
      "name": "SetMinter",
      "type": "event"
    },
    {
      "anonymous": false,
      "inputs": [
        {
          "indexed": true,
          "internalType": "address",
          "name": "receiver",
          "type": "address"
        },
        {
          "indexed": true,
          "internalType": "uint256",
          "name": "percentage",
          "type": "uint256"
        }
      ],
      "name": "SetRoyalty",
      "type": "event"
    },
    {
      "anonymous": false,
      "inputs": [],
      "name": "StopNewMinter",
      "type": "event"
    },
    {
      "anonymous": false,
      "inputs": [
        {
          "indexed": true,
          "internalType": "address",
          "name": "from",
          "type": "address"
        },
        {
          "indexed": true,
          "internalType": "address",
          "name": "to",
          "type": "address"
        },
        {
          "indexed": true,
          "internalType": "uint256",
          "name": "tokenId",
          "type": "uint256"
        }
      ],
      "name": "Transfer",
      "type": "event"
    },
    {
      "inputs": [
        {
          "internalType": "address",
          "name": "to",
          "type": "address"
        },
        {
          "internalType": "uint256",
          "name": "tokenId",
          "type": "uint256"
        }
      ],
      "name": "approve",
      "outputs": [],
      "stateMutability": "nonpayable",
      "type": "function"
    },
    {
      "inputs": [
        {
          "internalType": "address",
          "name": "owner",
          "type": "address"
        }
      ],
      "name": "balanceOf",
      "outputs": [
        {
          "internalType": "uint256",
          "name": "",
          "type": "uint256"
        }
      ],
      "stateMutability": "view",
      "type": "function"
    },
    {
      "inputs": [],
      "name": "baseTokenUriPrefix",
      "outputs": [
        {
          "internalType": "string",
          "name": "",
          "type": "string"
        }
      ],
      "stateMutability": "view",
      "type": "function"
    },
    {
      "inputs": [],
      "name": "baseTokenUriSuffix",
      "outputs": [
        {
          "internalType": "string",
          "name": "",
          "type": "string"
        }
      ],
      "stateMutability": "view",
      "type": "function"
    },
    {
      "inputs": [],
      "name": "collectionId",
      "outputs": [
        {
          "internalType": "bytes32",
          "name": "",
          "type": "bytes32"
        }
      ],
      "stateMutability": "view",
      "type": "function"
    },
    {
      "inputs": [],
      "name": "contractURI",
      "outputs": [
        {
          "internalType": "string",
          "name": "",
          "type": "string"
        }
      ],
      "stateMutability": "view",
      "type": "function"
    },
    {
      "inputs": [
        {
          "internalType": "address",
          "name": "template",
          "type": "address"
        },
        {
          "internalType": "bytes",
          "name": "data",
          "type": "bytes"
        }
      ],
      "name": "deployMinter",
      "outputs": [
        {
          "internalType": "contract IAxelarSeaMinterInitializable",
          "name": "minter",
          "type": "address"
        }
      ],
      "stateMutability": "nonpayable",
      "type": "function"
    },
    {
      "inputs": [],
      "name": "enableMintFeeOverride",
      "outputs": [
        {
          "internalType": "bool",
          "name": "",
          "type": "bool"
        }
      ],
      "stateMutability": "view",
      "type": "function"
    },
    {
      "inputs": [
        {
          "internalType": "address",
          "name": "",
          "type": "address"
        }
      ],
      "name": "exclusiveContract",
      "outputs": [
        {
          "internalType": "bool",
          "name": "",
          "type": "bool"
        }
      ],
      "stateMutability": "view",
      "type": "function"
    },
    {
      "inputs": [],
      "name": "exclusiveLevel",
      "outputs": [
        {
          "internalType": "uint256",
          "name": "",
          "type": "uint256"
        }
      ],
      "stateMutability": "view",
      "type": "function"
    },
    {
      "inputs": [
        {
          "internalType": "uint256",
          "name": "tokenId",
          "type": "uint256"
        }
      ],
      "name": "exists",
      "outputs": [
        {
          "internalType": "bool",
          "name": "",
          "type": "bool"
        }
      ],
      "stateMutability": "view",
      "type": "function"
    },
    {
      "inputs": [
        {
          "internalType": "uint256",
          "name": "tokenId",
          "type": "uint256"
        }
      ],
      "name": "explicitOwnershipOf",
      "outputs": [
        {
          "components": [
            {
              "internalType": "address",
              "name": "addr",
              "type": "address"
            },
            {
              "internalType": "uint64",
              "name": "startTimestamp",
              "type": "uint64"
            },
            {
              "internalType": "bool",
              "name": "burned",
              "type": "bool"
            },
            {
              "internalType": "uint24",
              "name": "extraData",
              "type": "uint24"
            }
          ],
          "internalType": "struct IERC721A.TokenOwnership",
          "name": "",
          "type": "tuple"
        }
      ],
      "stateMutability": "view",
      "type": "function"
    },
    {
      "inputs": [
        {
          "internalType": "uint256[]",
          "name": "tokenIds",
          "type": "uint256[]"
        }
      ],
      "name": "explicitOwnershipsOf",
      "outputs": [
        {
          "components": [
            {
              "internalType": "address",
              "name": "addr",
              "type": "address"
            },
            {
              "internalType": "uint64",
              "name": "startTimestamp",
              "type": "uint64"
            },
            {
              "internalType": "bool",
              "name": "burned",
              "type": "bool"
            },
            {
              "internalType": "uint24",
              "name": "extraData",
              "type": "uint24"
            }
          ],
          "internalType": "struct IERC721A.TokenOwnership[]",
          "name": "",
          "type": "tuple[]"
        }
      ],
      "stateMutability": "view",
      "type": "function"
    },
    {
      "inputs": [],
      "name": "fundAddress",
      "outputs": [
        {
          "internalType": "address",
          "name": "",
          "type": "address"
        }
      ],
      "stateMutability": "view",
      "type": "function"
    },
    {
      "inputs": [],
      "name": "getAllMinters",
      "outputs": [
        {
          "internalType": "address[]",
          "name": "",
          "type": "address[]"
        }
      ],
      "stateMutability": "view",
      "type": "function"
    },
    {
      "inputs": [
        {
          "internalType": "uint256",
          "name": "tokenId",
          "type": "uint256"
        }
      ],
      "name": "getApproved",
      "outputs": [
        {
          "internalType": "address",
          "name": "",
          "type": "address"
        }
      ],
      "stateMutability": "view",
      "type": "function"
    },
    {
      "inputs": [
        {
          "internalType": "uint256",
          "name": "start",
          "type": "uint256"
        },
        {
          "internalType": "uint256",
          "name": "end",
          "type": "uint256"
        }
      ],
      "name": "getMinters",
      "outputs": [
        {
          "internalType": "address[]",
          "name": "",
          "type": "address[]"
        }
      ],
      "stateMutability": "view",
      "type": "function"
    },
    {
      "inputs": [
        {
          "internalType": "address",
          "name": "owner",
          "type": "address"
        },
        {
          "internalType": "bytes32",
          "name": "_collectionId",
          "type": "bytes32"
        },
        {
          "internalType": "uint256",
          "name": "_exclusiveLevel",
          "type": "uint256"
        },
        {
          "internalType": "uint256",
          "name": "_maxSupply",
          "type": "uint256"
        },
        {
          "internalType": "string",
          "name": "_nftName",
          "type": "string"
        },
        {
          "internalType": "string",
          "name": "_nftSymbol",
          "type": "string"
        }
      ],
      "name": "initialize",
      "outputs": [],
      "stateMutability": "nonpayable",
      "type": "function"
    },
    {
      "inputs": [
        {
          "internalType": "address",
          "name": "owner",
          "type": "address"
        },
        {
          "internalType": "address",
          "name": "operator",
          "type": "address"
        }
      ],
      "name": "isApprovedForAll",
      "outputs": [
        {
          "internalType": "bool",
          "name": "",
          "type": "bool"
        }
      ],
      "stateMutability": "view",
      "type": "function"
    },
    {
      "inputs": [
        {
          "internalType": "address",
          "name": "minter",
          "type": "address"
        }
      ],
      "name": "isMinter",
      "outputs": [
        {
          "internalType": "bool",
          "name": "",
          "type": "bool"
        }
      ],
      "stateMutability": "view",
      "type": "function"
    },
    {
      "inputs": [],
      "name": "maxSupply",
      "outputs": [
        {
          "internalType": "uint256",
          "name": "",
          "type": "uint256"
        }
      ],
      "stateMutability": "view",
      "type": "function"
    },
    {
      "inputs": [
        {
          "internalType": "address",
          "name": "to",
          "type": "address"
        },
        {
          "internalType": "uint256",
          "name": "amount",
          "type": "uint256"
        }
      ],
      "name": "mint",
      "outputs": [],
      "stateMutability": "nonpayable",
      "type": "function"
    },
    {
      "inputs": [],
      "name": "mintFee",
      "outputs": [
        {
          "internalType": "uint256",
          "name": "",
          "type": "uint256"
        }
      ],
      "stateMutability": "view",
      "type": "function"
    },
    {
      "inputs": [],
      "name": "mintFeeOverride",
      "outputs": [
        {
          "internalType": "uint256",
          "name": "",
          "type": "uint256"
        }
      ],
      "stateMutability": "view",
      "type": "function"
    },
    {
      "inputs": [],
      "name": "mintersLength",
      "outputs": [
        {
          "internalType": "uint256",
          "name": "",
          "type": "uint256"
        }
      ],
      "stateMutability": "view",
      "type": "function"
    },
    {
      "inputs": [],
      "name": "name",
      "outputs": [
        {
          "internalType": "string",
          "name": "",
          "type": "string"
        }
      ],
      "stateMutability": "view",
      "type": "function"
    },
    {
      "inputs": [],
      "name": "newMinterStopped",
      "outputs": [
        {
          "internalType": "bool",
          "name": "",
          "type": "bool"
        }
      ],
      "stateMutability": "view",
      "type": "function"
    },
    {
      "inputs": [
        {
          "internalType": "uint256",
          "name": "newFee",
          "type": "uint256"
        },
        {
          "internalType": "bool",
          "name": "overrided",
          "type": "bool"
        }
      ],
      "name": "overrideMintFee",
      "outputs": [],
      "stateMutability": "nonpayable",
      "type": "function"
    },
    {
      "inputs": [],
      "name": "owner",
      "outputs": [
        {
          "internalType": "address",
          "name": "",
          "type": "address"
        }
      ],
      "stateMutability": "view",
      "type": "function"
    },
    {
      "inputs": [
        {
          "internalType": "uint256",
          "name": "tokenId",
          "type": "uint256"
        }
      ],
      "name": "ownerOf",
      "outputs": [
        {
          "internalType": "address",
          "name": "",
          "type": "address"
        }
      ],
      "stateMutability": "view",
      "type": "function"
    },
    {
      "inputs": [],
      "name": "projectId",
      "outputs": [
        {
          "internalType": "bytes32",
          "name": "",
          "type": "bytes32"
        }
      ],
      "stateMutability": "view",
      "type": "function"
    },
    {
      "inputs": [
        {
          "internalType": "contract IERC20",
          "name": "token",
          "type": "address"
        }
      ],
      "name": "recoverERC20",
      "outputs": [],
      "stateMutability": "nonpayable",
      "type": "function"
    },
    {
      "inputs": [],
      "name": "recoverETH",
      "outputs": [],
      "stateMutability": "nonpayable",
      "type": "function"
    },
    {
      "inputs": [],
      "name": "registry",
      "outputs": [
        {
          "internalType": "contract AxelarSeaProjectRegistry",
          "name": "",
          "type": "address"
        }
      ],
      "stateMutability": "view",
      "type": "function"
    },
    {
      "inputs": [],
      "name": "renounceOwnership",
      "outputs": [],
      "stateMutability": "nonpayable",
      "type": "function"
    },
    {
      "inputs": [
        {
          "internalType": "uint256",
          "name": "",
          "type": "uint256"
        },
        {
          "internalType": "uint256",
          "name": "salePrice",
          "type": "uint256"
        }
      ],
      "name": "royaltyInfo",
      "outputs": [
        {
          "internalType": "address",
          "name": "receiver",
          "type": "address"
        },
        {
          "internalType": "uint256",
          "name": "royaltyAmount",
          "type": "uint256"
        }
      ],
      "stateMutability": "view",
      "type": "function"
    },
    {
      "inputs": [],
      "name": "royaltyPercentage",
      "outputs": [
        {
          "internalType": "uint256",
          "name": "",
          "type": "uint256"
        }
      ],
      "stateMutability": "view",
      "type": "function"
    },
    {
      "inputs": [],
      "name": "royaltyReceiver",
      "outputs": [
        {
          "internalType": "address",
          "name": "",
          "type": "address"
        }
      ],
      "stateMutability": "view",
      "type": "function"
    },
    {
      "inputs": [
        {
          "internalType": "address",
          "name": "from",
          "type": "address"
        },
        {
          "internalType": "address",
          "name": "to",
          "type": "address"
        },
        {
          "internalType": "uint256",
          "name": "tokenId",
          "type": "uint256"
        }
      ],
      "name": "safeTransferFrom",
      "outputs": [],
      "stateMutability": "nonpayable",
      "type": "function"
    },
    {
      "inputs": [
        {
          "internalType": "address",
          "name": "from",
          "type": "address"
        },
        {
          "internalType": "address",
          "name": "to",
          "type": "address"
        },
        {
          "internalType": "uint256",
          "name": "tokenId",
          "type": "uint256"
        },
        {
          "internalType": "bytes",
          "name": "_data",
          "type": "bytes"
        }
      ],
      "name": "safeTransferFrom",
      "outputs": [],
      "stateMutability": "nonpayable",
      "type": "function"
    },
    {
      "inputs": [
        {
          "internalType": "address",
          "name": "operator",
          "type": "address"
        },
        {
          "internalType": "bool",
          "name": "approved",
          "type": "bool"
        }
      ],
      "name": "setApprovalForAll",
      "outputs": [],
      "stateMutability": "nonpayable",
      "type": "function"
    },
    {
      "inputs": [
        {
          "internalType": "string",
          "name": "newPrefix",
          "type": "string"
        }
      ],
      "name": "setBaseTokenUriPrefix",
      "outputs": [],
      "stateMutability": "nonpayable",
      "type": "function"
    },
    {
      "inputs": [
        {
          "internalType": "string",
          "name": "newSuffix",
          "type": "string"
        }
      ],
      "name": "setBaseTokenUriSuffix",
      "outputs": [],
      "stateMutability": "nonpayable",
      "type": "function"
    },
    {
      "inputs": [
        {
          "internalType": "address",
          "name": "addr",
          "type": "address"
        },
        {
          "internalType": "bool",
          "name": "enabled",
          "type": "bool"
        }
      ],
      "name": "setExclusiveContract",
      "outputs": [],
      "stateMutability": "nonpayable",
      "type": "function"
    },
    {
      "inputs": [
        {
          "internalType": "uint256",
          "name": "newSupply",
          "type": "uint256"
        }
      ],
      "name": "setMaxSupply",
      "outputs": [],
      "stateMutability": "nonpayable",
      "type": "function"
    },
    {
      "inputs": [
        {
          "internalType": "address",
          "name": "minter",
          "type": "address"
        },
        {
          "internalType": "bool",
          "name": "enabled",
          "type": "bool"
        }
      ],
      "name": "setMinter",
      "outputs": [],
      "stateMutability": "nonpayable",
      "type": "function"
    },
    {
      "inputs": [
        {
          "internalType": "address",
          "name": "receiver",
          "type": "address"
        },
        {
          "internalType": "uint256",
          "name": "percentage",
          "type": "uint256"
        }
      ],
      "name": "setRoyalty",
      "outputs": [],
      "stateMutability": "nonpayable",
      "type": "function"
    },
    {
      "inputs": [],
      "name": "stopNewMinter",
      "outputs": [],
      "stateMutability": "nonpayable",
      "type": "function"
    },
    {
      "inputs": [
        {
          "internalType": "bytes4",
          "name": "interfaceId",
          "type": "bytes4"
        }
      ],
      "name": "supportsInterface",
      "outputs": [
        {
          "internalType": "bool",
          "name": "",
          "type": "bool"
        }
      ],
      "stateMutability": "view",
      "type": "function"
    },
    {
      "inputs": [],
      "name": "symbol",
      "outputs": [
        {
          "internalType": "string",
          "name": "",
          "type": "string"
        }
      ],
      "stateMutability": "view",
      "type": "function"
    },
    {
      "inputs": [
        {
          "internalType": "uint256",
          "name": "index",
          "type": "uint256"
        }
      ],
      "name": "tokenByIndex",
      "outputs": [
        {
          "internalType": "uint256",
          "name": "",
          "type": "uint256"
        }
      ],
      "stateMutability": "pure",
      "type": "function"
    },
    {
      "inputs": [
        {
          "internalType": "address",
          "name": "owner",
          "type": "address"
        },
        {
          "internalType": "uint256",
          "name": "index",
          "type": "uint256"
        }
      ],
      "name": "tokenOfOwnerByIndex",
      "outputs": [
        {
          "internalType": "uint256",
          "name": "",
          "type": "uint256"
        }
      ],
      "stateMutability": "view",
      "type": "function"
    },
    {
      "inputs": [
        {
          "internalType": "uint256",
          "name": "tokenId",
          "type": "uint256"
        }
      ],
      "name": "tokenURI",
      "outputs": [
        {
          "internalType": "string",
          "name": "",
          "type": "string"
        }
      ],
      "stateMutability": "view",
      "type": "function"
    },
    {
      "inputs": [
        {
          "internalType": "address",
          "name": "owner",
          "type": "address"
        }
      ],
      "name": "tokensOfOwner",
      "outputs": [
        {
          "internalType": "uint256[]",
          "name": "",
          "type": "uint256[]"
        }
      ],
      "stateMutability": "view",
      "type": "function"
    },
    {
      "inputs": [
        {
          "internalType": "address",
          "name": "owner",
          "type": "address"
        },
        {
          "internalType": "uint256",
          "name": "start",
          "type": "uint256"
        },
        {
          "internalType": "uint256",
          "name": "stop",
          "type": "uint256"
        }
      ],
      "name": "tokensOfOwnerIn",
      "outputs": [
        {
          "internalType": "uint256[]",
          "name": "",
          "type": "uint256[]"
        }
      ],
      "stateMutability": "view",
      "type": "function"
    },
    {
      "inputs": [],
      "name": "totalSupply",
      "outputs": [
        {
          "internalType": "uint256",
          "name": "",
          "type": "uint256"
        }
      ],
      "stateMutability": "view",
      "type": "function"
    },
    {
      "inputs": [
        {
          "internalType": "address",
          "name": "from",
          "type": "address"
        },
        {
          "internalType": "address",
          "name": "to",
          "type": "address"
        },
        {
          "internalType": "uint256",
          "name": "tokenId",
          "type": "uint256"
        }
      ],
      "name": "transferFrom",
      "outputs": [],
      "stateMutability": "nonpayable",
      "type": "function"
    },
    {
      "inputs": [
        {
          "internalType": "address",
          "name": "newOwner",
          "type": "address"
        }
      ],
      "name": "transferOwnership",
      "outputs": [],
      "stateMutability": "nonpayable",
      "type": "function"
    },
    {
      "inputs": [
        {
          "internalType": "address",
          "name": "",
          "type": "address"
        }
      ],
      "name": "walletMinted",
      "outputs": [
        {
          "internalType": "uint256",
          "name": "",
          "type": "uint256"
        }
      ],
      "stateMutability": "view",
      "type": "function"
    }
  ],
  "transactionHash": "0x39f4e0f2940f614f4ed6fd2ee5777bee4c39574fc530b60e14cb8720f74e56a7",
  "args": [],
  "numDeployments": 1,
  "solcInputHash": "b4400175bf4ba4fd154fdd2b4f6ab738",
  "bytecode": "0x60806040523480156200001157600080fd5b506040805180820182526001808252605f60f81b6020808401828152855180870190965292855284015281519192916200004e9160029162000071565b5080516200006490600390602084019062000071565b5050600080555062000153565b8280546200007f9062000117565b90600052602060002090601f016020900481019282620000a35760008555620000ee565b82601f10620000be57805160ff1916838001178555620000ee565b82800160010185558215620000ee579182015b82811115620000ee578251825591602001919060010190620000d1565b50620000fc92915062000100565b5090565b5b80821115620000fc576000815560010162000101565b600181811c908216806200012c57607f821691505b6020821081036200014d57634e487b7160e01b600052602260045260246000fd5b50919050565b61383280620001636000396000f3fe608060405234801561001057600080fd5b50600436106103995760003560e01c80638a81b211116101e9578063b88d4fde1161010f578063d5abeb01116100ad578063e985e9c51161007c578063e985e9c5146107bb578063f2fde38b146107f7578063f91061751461080a578063fac651aa1461081257600080fd5b8063d5abeb0114610784578063d8b4fc5b1461078d578063e82bef29146107a0578063e8a3d485146107b357600080fd5b8063c37bbabc116100e9578063c37bbabc14610736578063c87b56dd1461073e578063cf456ae714610751578063d3738fc81461076457600080fd5b8063b88d4fde146106fa578063b8c317811461070d578063c23dc68f1461071657600080fd5b80639e8c708e11610187578063aa271e1a11610156578063aa271e1a146106b4578063ab5ea252146106c7578063ace0103d146106da578063b850d0a1146106ed57600080fd5b80639e8c708e146106735780639fbc871314610686578063a045442c14610699578063a22cb465146106a157600080fd5b8063918aa11b116101c3578063918aa11b1461061557806395d89b411461063857806396a85be81461064057806399a2557a1461066057600080fd5b80638a81b211146105de5780638da5cb5b146105f157806390b2464b1461060257600080fd5b80633fafa127116102ce5780636352211e1161026c57806375ec7d481161023b57806375ec7d481461058a5780637b1039991461059d5780638462151c146105b55780638a71bb2d146105d557600080fd5b80636352211e146105495780636f8b44b01461055c57806370a082311461056f578063715018a61461058257600080fd5b80634f558e79116102a85780634f558e79146104fd5780634f6ccce714610510578063537d4924146105215780635bbb21771461052957600080fd5b80633fafa127146104cf57806340c10f19146104d757806342842e0e146104ea57600080fd5b806318160ddd1161033b5780632f745c59116103155780632f745c591461049d57806333cde651146104b05780633655116b146104b95780633d26bb67146104c657600080fd5b806318160ddd1461044c57806323b872dd146104585780632a55205a1461046b57600080fd5b8063081812fc11610377578063081812fc146103e5578063095ea7b31461041057806310fd332b1461042357806313966db51461043657600080fd5b806301ffc9a71461039e5780630614117a146103c657806306fdde03146103d0575b600080fd5b6103b16103ac366004612d38565b61081a565b60405190151581526020015b60405180910390f35b6103ce61083a565b005b6103d86108ae565b6040516103bd9190612dad565b6103f86103f3366004612dc0565b6108bd565b6040516001600160a01b0390911681526020016103bd565b6103ce61041e366004612dee565b610901565b6103ce610431366004612dee565b6109a1565b61043e610a3d565b6040519081526020016103bd565b6001546000540361043e565b6103ce610466366004612e1a565b610ac8565b61047e610479366004612e5b565b610ae1565b604080516001600160a01b0390931683526020830191909152016103bd565b61043e6104ab366004612dee565b610b1d565b61043e60aa5481565b609f546103b19060ff1681565b61043e60a15481565b61043e610bcd565b6103ce6104e5366004612dee565b610c1b565b6103ce6104f8366004612e1a565b610cb4565b6103b161050b366004612dc0565b610ccf565b61043e61051e366004612dc0565b90565b6103d8610cda565b61053c610537366004612e7d565b610d68565b6040516103bd9190612ef1565b6103f8610557366004612dc0565b610e33565b6103ce61056a366004612dc0565b610e3e565b61043e61057d366004612f6d565b610ea5565b6103ce610ef3565b6103ce610598366004612f98565b610f07565b609f546103f89061010090046001600160a01b031681565b6105c86105c3366004612f6d565b61100d565b6040516103bd9190612fd1565b61043e60af5481565b6103ce6105ec3660046130cc565b611115565b603b546001600160a01b03166103f8565b6103ce610610366004613100565b611134565b6103b1610623366004612f6d565b60a66020526000908152604090205460ff1681565b6103d86112ca565b61065361064e366004612e5b565b6112d4565b6040516103bd9190613191565b6105c861066e3660046131d2565b611374565b6103ce610681366004612f6d565b6114ed565b60ae546103f8906001600160a01b031681565b610653611574565b6103ce6106af366004612f98565b611583565b6103b16106c2366004612f6d565b611618565b6103ce6106d53660046130cc565b611625565b6103f86106e8366004613207565b611640565b60ab546103b19060ff1681565b6103ce610708366004613256565b611873565b61043e60a45481565b610729610724366004612dc0565b6118bd565b6040516103bd91906132c1565b61043e611935565b6103d861074c366004612dc0565b611941565b6103ce61075f366004612f98565b61194c565b61043e610772366004612f6d565b60a96020526000908152604090205481565b61043e60a55481565b6103ce61079b366004613305565b6119d9565b60a0546103f8906001600160a01b031681565b6103d8611ab5565b6103b16107c936600461332a565b6001600160a01b03918216600090815260076020908152604080832093909416825291909152205460ff1690565b6103ce610805366004612f6d565b611b63565b6103d8611bd9565b6103ce611be6565b600061082582611c26565b80610834575061083482611c5c565b92915050565b610842611caa565b604051600090339047908381818185875af1925050503d8060008114610884576040519150601f19603f3d011682016040523d82523d6000602084013e610889565b606091505b50509050806108ab576040516312171d8360e31b815260040160405180910390fd5b50565b60606108b8611d04565b905090565b60006108c882611d96565b6108e5576040516333d1c03960e21b815260040160405180910390fd5b506000908152600660205260409020546001600160a01b031690565b600061090c82610e33565b9050336001600160a01b038216146109455761092881336107c9565b610945576040516367d9dca160e11b815260040160405180910390fd5b60008281526006602052604080822080546001600160a01b0319166001600160a01b0387811691821790925591518593918516917f8c5be1e5ebec7d5bd14f71427d1e84f3dd0314c0f7b2291e5b200ac8c7c3b92591a4505050565b603b546001600160a01b031633148015906109cc5750609f5461010090046001600160a01b03163314155b156109ea57604051631dd2188d60e31b815260040160405180910390fd5b60ae80546001600160a01b0319166001600160a01b03841690811790915560af8290556040518291907faf80eecb6d383b7ffd8fa84554dd154b74dfdf6410e2dc8a7f5afda7f2d7e01890600090a35050565b60ab5460009060ff16610ac157609f60019054906101000a90046001600160a01b03166001600160a01b031663f70210ea6040518163ffffffff1660e01b8152600401602060405180830381865afa158015610a9d573d6000803e3d6000fd5b505050506040513d601f19601f820116820180604052508101906108b89190613358565b5060aa5490565b610ad183611dbd565b610adc838383611eec565b505050565b60ae5460af546001600160a01b0390911690600090670de0b6b3a764000090610b0a9085613387565b610b1491906133bc565b90509250929050565b6000306399a2557a8484610b328160016133d0565b6040516001600160e01b031960e086901b1681526001600160a01b03909316600484015260248301919091526044820152606401600060405180830381865afa158015610b83573d6000803e3d6000fd5b505050506040513d6000823e601f3d908101601f19168201604052610bab91908101906133e8565b600081518110610bbd57610bbd61348d565b6020026020010151905092915050565b609f546040516308d247d360e41b815230600482015260009161010090046001600160a01b031690638d247d3090602401602060405180830381865afa158015610a9d573d6000803e3d6000fd5b33610c2760a782612084565b610c4457604051631dd2188d60e31b815260040160405180910390fd5b6002606d5403610c9b5760405162461bcd60e51b815260206004820152601f60248201527f5265656e7472616e637947756172643a207265656e7472616e742063616c6c0060448201526064015b60405180910390fd5b6002606d55610caa83836120a6565b50506001606d5550565b610adc83838360405180602001604052806000815250611873565b600061083482611d96565b60ac8054610ce7906134a3565b80601f0160208091040260200160405190810160405280929190818152602001828054610d13906134a3565b8015610d605780601f10610d3557610100808354040283529160200191610d60565b820191906000526020600020905b815481529060010190602001808311610d4357829003601f168201915b505050505081565b6060816000816001600160401b03811115610d8557610d85613009565b604051908082528060200260200182016040528015610dd757816020015b604080516080810182526000808252602080830182905292820181905260608201528252600019909201910181610da35790505b50905060005b828114610e2a57610e05868683818110610df957610df961348d565b905060200201356118bd565b828281518110610e1757610e1761348d565b6020908102919091010152600101610ddd565b50949350505050565b60006108348261211c565b610e46611caa565b609f5460ff1615610e6a57604051631dd2188d60e31b815260040160405180910390fd5b60a58190556040518181527f3f8118fc46e72ecde0c5e090803cad8c88e817b2f1e93e820aa9bfbf51f2468d9060200160405180910390a150565b60006001600160a01b038216610ece576040516323d3ad8160e21b815260040160405180910390fd5b506001600160a01b03166000908152600560205260409020546001600160401b031690565b610efb611caa565b610f056000612183565b565b603b546001600160a01b03163314801590610f8f5750609f5460405163027cf93b60e31b81523360048201526101009091046001600160a01b0316906313e7c9d890602401602060405180830381865afa158015610f69573d6000803e3d6000fd5b505050506040513d601f19601f82011682018060405250810190610f8d91906134dd565b155b15610fad57604051631dd2188d60e31b815260040160405180910390fd5b6001600160a01b038216600081815260a66020908152604091829020805460ff191685151590811790915591519182527f05d3978e3d4c9953c7d2cbd54c2c9901050350ecd9c40284efa828e2bcdcb94191015b60405180910390a25050565b6060600080600061101d85610ea5565b90506000816001600160401b0381111561103957611039613009565b604051908082528060200260200182016040528015611062578160200160208202803683370190505b50905061108f60408051608081018252600080825260208201819052918101829052606081019190915290565b60005b838614611109576110a2816121d5565b915081604001516111015781516001600160a01b0316156110c257815194505b876001600160a01b0316856001600160a01b03160361110157808387806001019850815181106110f4576110f461348d565b6020026020010181815250505b600101611092565b50909695505050505050565b61111d611caa565b80516111309060ad906020840190612c89565b5050565b600854610100900460ff16158080156111545750600854600160ff909116105b8061116e5750303b15801561116e575060085460ff166001145b6111d15760405162461bcd60e51b815260206004820152602e60248201527f496e697469616c697a61626c653a20636f6e747261637420697320616c72656160448201526d191e481a5b9a5d1a585b1a5e995960921b6064820152608401610c92565b6008805460ff1916600117905580156111f4576008805461ff0019166101001790555b609f805474ffffffffffffffffffffffffffffffffffffffff001916336101000217905560a186905560a485905560a5849055825161123a9060a2906020860190612c89565b50815161124e9060a3906020850190612c89565b5060a080546001600160a01b0319166001600160a01b03891617905561127387612183565b61127b612211565b80156112c1576008805461ff0019169055604051600181527f7f26b83ff96e1f2b6a682f133852f6798a09c465da95921460cefb38474024989060200160405180910390a15b50505050505050565b60606108b8612240565b606060006112e284846134fa565b90506000816001600160401b038111156112fe576112fe613009565b604051908082528060200260200182016040528015611327578160200160208202803683370190505b50905060005b82811015610e2a5761134260a787830161224f565b8282815181106113545761135461348d565b6001600160a01b039092166020928302919091019091015260010161132d565b606081831061139657604051631960ccad60e11b815260040160405180910390fd5b6000806113a260005490565b9050808411156113b0578093505b60006113bb87610ea5565b9050848610156113da57858503818110156113d4578091505b506113de565b5060005b6000816001600160401b038111156113f8576113f8613009565b604051908082528060200260200182016040528015611421578160200160208202803683370190505b509050816000036114375793506114e692505050565b6000611442886118bd565b905060008160400151611453575080515b885b8881141580156114655750848714155b156114da57611473816121d5565b925082604001516114d25782516001600160a01b03161561149357825191505b8a6001600160a01b0316826001600160a01b0316036114d257808488806001019950815181106114c5576114c561348d565b6020026020010181815250505b600101611455565b50505092835250909150505b9392505050565b6114f5611caa565b6040516370a0823160e01b81523060048201526108ab9033906001600160a01b038416906370a0823190602401602060405180830381865afa15801561153f573d6000803e3d6000fd5b505050506040513d601f19601f820116820180604052508101906115639190613358565b6001600160a01b038416919061225b565b60606108b8600061064e611935565b336001600160a01b038316036115ac5760405163b06307db60e01b815260040160405180910390fd5b3360008181526007602090815260408083206001600160a01b03871680855290835292819020805460ff191686151590811790915590519081529192917f17307eab39ab6107e8899845ad3d59bd9653f200f220920489ca2b5937696c31910160405180910390a35050565b600061083460a783612084565b61162d611caa565b80516111309060ac906020840190612c89565b6000611654603b546001600160a01b031690565b6001600160a01b0316336001600160a01b0316141580156116855750609f5461010090046001600160a01b03163314155b156116a357604051631dd2188d60e31b815260040160405180910390fd5b6002606d54036116f55760405162461bcd60e51b815260206004820152601f60248201527f5265656e7472616e637947756172643a207265656e7472616e742063616c6c006044820152606401610c92565b6002606d55609f5460405163a90cb89b60e01b81526001600160a01b0385811660048301526101009092049091169063a90cb89b90602401602060405180830381865afa15801561174a573d6000803e3d6000fd5b505050506040513d601f19601f8201168201806040525081019061176e91906134dd565b61179657604051633855dd1960e21b81526001600160a01b0384166004820152602401610c92565b61179f836122d3565b9050806001600160a01b031663cf7a1d77306117c3603b546001600160a01b031690565b856040518463ffffffff1660e01b81526004016117e293929190613511565b600060405180830381600087803b1580156117fc57600080fd5b505af1158015611810573d6000803e3d6000fd5b505050506118288160a761238090919063ffffffff16565b50604051600181526001600160a01b038216907f1f96bc657d385fd83da973a43f2ad969e6d96b6779b779571a7306db7ca1cd009060200160405180910390a26001606d5592915050565b61187e848484610ac8565b6001600160a01b0383163b156118b75761189a84848484612395565b6118b7576040516368d2bf6b60e11b815260040160405180910390fd5b50505050565b60408051608080820183526000808352602080840182905283850182905260608085018390528551938401865282845290830182905293820181905292810183905290915060005483106119115792915050565b61191a836121d5565b905080604001511561192c5792915050565b6114e683612481565b60006108b860a76124b6565b6060610834826124c0565b611954611caa565b609f5460ff161561197857604051631dd2188d60e31b815260040160405180910390fd5b801561198f5761198960a783612380565b5061199c565b61199a60a78361261c565b505b816001600160a01b03167f1f96bc657d385fd83da973a43f2ad969e6d96b6779b779571a7306db7ca1cd0082604051611001911515815260200190565b609f5460405163027cf93b60e31b81523360048201526101009091046001600160a01b0316906313e7c9d890602401602060405180830381865afa158015611a25573d6000803e3d6000fd5b505050506040513d601f19601f82011682018060405250810190611a4991906134dd565b611a6657604051631dd2188d60e31b815260040160405180910390fd5b60ab805460ff191682151590811790915560aa83905560408051848152602081019290925233917f3adcad50d42c2c3ec23ad4ebf52f75cf92212482d66ff9060f0b46735d74b9f09101611001565b6060609f60019054906101000a90046001600160a01b03166001600160a01b03166380f2152e6040518163ffffffff1660e01b8152600401600060405180830381865afa158015611b0a573d6000803e3d6000fd5b505050506040513d6000823e601f3d908101601f19168201604052611b329190810190613546565b60a154611b3e90612631565b604051602001611b4f9291906135b3565b604051602081830303815290604052905090565b611b6b611caa565b6001600160a01b038116611bd05760405162461bcd60e51b815260206004820152602660248201527f4f776e61626c653a206e6577206f776e657220697320746865207a65726f206160448201526564647265737360d01b6064820152608401610c92565b6108ab81612183565b60ad8054610ce7906134a3565b611bee611caa565b609f805460ff191660011790556040517f312de1f2fe8510f37391aa593066f10f0a60eda0aa8400eedbbf16fe320467b790600090a1565b60006301ffc9a760e01b6001600160e01b03198316148061083457506001600160e01b0319821663152a902d60e11b1492915050565b60006301ffc9a760e01b6001600160e01b031983161480611c8d57506380ac58cd60e01b6001600160e01b03198316145b806108345750506001600160e01b031916635b5e139f60e01b1490565b603b546001600160a01b03163314610f055760405162461bcd60e51b815260206004820181905260248201527f4f776e61626c653a2063616c6c6572206973206e6f7420746865206f776e65726044820152606401610c92565b606060a28054611d13906134a3565b80601f0160208091040260200160405190810160405280929190818152602001828054611d3f906134a3565b8015611d8c5780601f10611d6157610100808354040283529160200191611d8c565b820191906000526020600020905b815481529060010190602001808311611d6f57829003601f168201915b5050505050905090565b6000805482108015610834575050600090815260046020526040902054600160e01b161590565b6001600160a01b038116156108ab57600260a45410611e0a5760405162461bcd60e51b815260206004820152600960248201526814dbdd5b189bdd5b9960ba1b6044820152606401610c92565b600160a4541080611e865750609f54604051637765acf760e11b81523360048201526101009091046001600160a01b03169063eecb59ee90602401602060405180830381865afa158015611e62573d6000803e3d6000fd5b505050506040513d601f19601f82011682018060405250810190611e8691906134dd565b80611ea0575033600090815260a6602052604090205460ff165b6108ab5760405162461bcd60e51b815260206004820152601660248201527f4578636c757369766520746f204178656c6172536561000000000000000000006044820152606401610c92565b6000611ef78261211c565b9050836001600160a01b0316816001600160a01b031614611f2a5760405162a1148160e81b815260040160405180910390fd5b60008281526006602052604090208054338082146001600160a01b03881690911417611f7757611f5a86336107c9565b611f7757604051632ce44b5f60e11b815260040160405180910390fd5b6001600160a01b038516611f9e57604051633a954ecd60e21b815260040160405180910390fd5b8015611fa957600082555b6001600160a01b038681166000908152600560205260408082208054600019019055918716808252919020805460010190554260a01b17600160e11b17600085815260046020526040812091909155600160e11b8416900361203b576001840160008181526004602052604081205490036120395760005481146120395760008181526004602052604090208490555b505b83856001600160a01b0316876001600160a01b03167fddf252ad1be2c89b69c2b068fc378daa952ba7f163c4a11628f55a4df523b3ef60405160405180910390a4505050505050565b6001600160a01b038116600090815260018301602052604081205415156114e6565b6001600160a01b038216600090815260a96020526040812080548392906120ce9084906133d0565b90915550600090506120e36001546000540390565b60a5549091506120f383836133d0565b111561211257604051639315093760e01b815260040160405180910390fd5b610adc8383612688565b60008160005481101561216a5760008181526004602052604081205490600160e01b82169003612168575b806000036114e6575060001901600081815260046020526040902054612147565b505b604051636f96cda160e11b815260040160405180910390fd5b603b80546001600160a01b038381166001600160a01b0319831681179093556040519116919082907f8be0079c531659141344cd1fd0a4f28419497f9722a3daafe3b4186f6b6457e090600090a35050565b604080516080810182526000808252602082018190529181018290526060810191909152600082815260046020526040902054610834906126a2565b600854610100900460ff166122385760405162461bcd60e51b8152600401610c92906135e2565b610f056126e9565b606060a38054611d13906134a3565b60006114e68383612717565b600060405163a9059cbb60e01b8152836004820152826024820152602060006044836000895af13d15601f3d11600160005114161716915050806118b75760405162461bcd60e51b815260206004820152600f60248201526e1514905394d1915497d19052531151608a1b6044820152606401610c92565b60006040517f3d602d80600a3d3981f3363d3d373d3d3d363d7300000000000000000000000081528260601b60148201526e5af43d82803e903d91602b57fd5bf360881b60288201526037816000f09150506001600160a01b03811661237b5760405162461bcd60e51b815260206004820152601660248201527f455243313136373a20637265617465206661696c6564000000000000000000006044820152606401610c92565b919050565b60006114e6836001600160a01b038416612741565b604051630a85bd0160e11b81526000906001600160a01b0385169063150b7a02906123ca90339089908890889060040161362d565b6020604051808303816000875af1925050508015612405575060408051601f3d908101601f1916820190925261240291810190613669565b60015b612463573d808015612433576040519150601f19603f3d011682016040523d82523d6000602084013e612438565b606091505b50805160000361245b576040516368d2bf6b60e11b815260040160405180910390fd5b805181602001fd5b6001600160e01b031916630a85bd0160e11b1490505b949350505050565b6040805160808101825260008082526020820181905291810182905260608101919091526108346124b18361211c565b6126a2565b6000610834825490565b60606124cb82610ccf565b61252f5760405162461bcd60e51b815260206004820152602f60248201527f4552433732314d657461646174613a2055524920717565727920666f72206e6f60448201526e3732bc34b9ba32b73a103a37b5b2b760891b6064820152608401610c92565b60ac805461253c906134a3565b90506000036125fd57609f60019054906101000a90046001600160a01b03166001600160a01b031663d547cfb76040518163ffffffff1660e01b8152600401600060405180830381865afa158015612598573d6000803e3d6000fd5b505050506040513d6000823e601f3d908101601f191682016040526125c09190810190613546565b60a1546125cc90612631565b6125d584612790565b6040516020016125e793929190613686565b6040516020818303038152906040529050919050565b60ac61260883612790565b60ad6040516020016125e79392919061376f565b60006114e6836001600160a01b038416612890565b60608160000361265b5750506040805180820190915260048152630307830360e41b602082015290565b8160005b811561267e578061266f816137a2565b915050600882901c915061265f565b6124798482612983565b611130828260405180602001604052806000815250612b1e565b604080516080810182526001600160a01b038316815260a083901c6001600160401b03166020820152600160e01b831615159181019190915260e89190911c606082015290565b600854610100900460ff166127105760405162461bcd60e51b8152600401610c92906135e2565b6001606d55565b600082600001828154811061272e5761272e61348d565b9060005260206000200154905092915050565b600081815260018301602052604081205461278857508154600181810184556000848152602080822090930184905584548482528286019093526040902091909155610834565b506000610834565b6060816000036127b75750506040805180820190915260018152600360fc1b602082015290565b8160005b81156127e157806127cb816137a2565b91506127da9050600a836133bc565b91506127bb565b6000816001600160401b038111156127fb576127fb613009565b6040519080825280601f01601f191660200182016040528015612825576020820181803683370190505b5090505b84156124795761283a6001836134fa565b9150612847600a866137bb565b6128529060306133d0565b60f81b8183815181106128675761286761348d565b60200101906001600160f81b031916908160001a905350612889600a866133bc565b9450612829565b600081815260018301602052604081205480156129795760006128b46001836134fa565b85549091506000906128c8906001906134fa565b905081811461292d5760008660000182815481106128e8576128e861348d565b906000526020600020015490508087600001848154811061290b5761290b61348d565b6000918252602080832090910192909255918252600188019052604090208390555b855486908061293e5761293e6137cf565b600190038181906000526020600020016000905590558560010160008681526020019081526020016000206000905560019350505050610834565b6000915050610834565b60606000612992836002613387565b61299d9060026133d0565b6001600160401b038111156129b4576129b4613009565b6040519080825280601f01601f1916602001820160405280156129de576020820181803683370190505b509050600360fc1b816000815181106129f9576129f961348d565b60200101906001600160f81b031916908160001a905350600f60fb1b81600181518110612a2857612a2861348d565b60200101906001600160f81b031916908160001a9053506000612a4c846002613387565b612a579060016133d0565b90505b6001811115612acf576f181899199a1a9b1b9c1cb0b131b232b360811b85600f1660108110612a8b57612a8b61348d565b1a60f81b828281518110612aa157612aa161348d565b60200101906001600160f81b031916908160001a90535060049490941c93612ac8816137e5565b9050612a5a565b5083156114e65760405162461bcd60e51b815260206004820181905260248201527f537472696e67733a20686578206c656e67746820696e73756666696369656e746044820152606401610c92565b612b288383612b8b565b6001600160a01b0383163b15610adc576000548281035b612b526000868380600101945086612395565b612b6f576040516368d2bf6b60e11b815260040160405180910390fd5b818110612b3f578160005414612b8457600080fd5b5050505050565b6000805490829003612bb05760405163b562e8dd60e01b815260040160405180910390fd5b6001600160a01b03831660008181526005602090815260408083208054680100000000000000018802019055848352600490915281206001851460e11b4260a01b178317905582840190839083907fddf252ad1be2c89b69c2b068fc378daa952ba7f163c4a11628f55a4df523b3ef8180a4600183015b818114612c5f57808360007fddf252ad1be2c89b69c2b068fc378daa952ba7f163c4a11628f55a4df523b3ef600080a4600101612c27565b5081600003612c8057604051622e076360e81b815260040160405180910390fd5b60005550505050565b828054612c95906134a3565b90600052602060002090601f016020900481019282612cb75760008555612cfd565b82601f10612cd057805160ff1916838001178555612cfd565b82800160010185558215612cfd579182015b82811115612cfd578251825591602001919060010190612ce2565b50612d09929150612d0d565b5090565b5b80821115612d095760008155600101612d0e565b6001600160e01b0319811681146108ab57600080fd5b600060208284031215612d4a57600080fd5b81356114e681612d22565b60005b83811015612d70578181015183820152602001612d58565b838111156118b75750506000910152565b60008151808452612d99816020860160208601612d55565b601f01601f19169290920160200192915050565b6020815260006114e66020830184612d81565b600060208284031215612dd257600080fd5b5035919050565b6001600160a01b03811681146108ab57600080fd5b60008060408385031215612e0157600080fd5b8235612e0c81612dd9565b946020939093013593505050565b600080600060608486031215612e2f57600080fd5b8335612e3a81612dd9565b92506020840135612e4a81612dd9565b929592945050506040919091013590565b60008060408385031215612e6e57600080fd5b50508035926020909101359150565b60008060208385031215612e9057600080fd5b82356001600160401b0380821115612ea757600080fd5b818501915085601f830112612ebb57600080fd5b813581811115612eca57600080fd5b8660208260051b8501011115612edf57600080fd5b60209290920196919550909350505050565b6020808252825182820181905260009190848201906040850190845b8181101561110957612f5a8385516001600160a01b0381511682526001600160401b03602082015116602083015260408101511515604083015262ffffff60608201511660608301525050565b9284019260809290920191600101612f0d565b600060208284031215612f7f57600080fd5b81356114e681612dd9565b80151581146108ab57600080fd5b60008060408385031215612fab57600080fd5b8235612fb681612dd9565b91506020830135612fc681612f8a565b809150509250929050565b6020808252825182820181905260009190848201906040850190845b8181101561110957835183529284019291840191600101612fed565b634e487b7160e01b600052604160045260246000fd5b604051601f8201601f191681016001600160401b038111828210171561304757613047613009565b604052919050565b60006001600160401b0382111561306857613068613009565b50601f01601f191660200190565b600082601f83011261308757600080fd5b813561309a6130958261304f565b61301f565b8181528460208386010111156130af57600080fd5b816020850160208301376000918101602001919091529392505050565b6000602082840312156130de57600080fd5b81356001600160401b038111156130f457600080fd5b61247984828501613076565b60008060008060008060c0878903121561311957600080fd5b863561312481612dd9565b955060208701359450604087013593506060870135925060808701356001600160401b038082111561315557600080fd5b6131618a838b01613076565b935060a089013591508082111561317757600080fd5b5061318489828a01613076565b9150509295509295509295565b6020808252825182820181905260009190848201906040850190845b818110156111095783516001600160a01b0316835292840192918401916001016131ad565b6000806000606084860312156131e757600080fd5b83356131f281612dd9565b95602085013595506040909401359392505050565b6000806040838503121561321a57600080fd5b823561322581612dd9565b915060208301356001600160401b0381111561324057600080fd5b61324c85828601613076565b9150509250929050565b6000806000806080858703121561326c57600080fd5b843561327781612dd9565b9350602085013561328781612dd9565b92506040850135915060608501356001600160401b038111156132a957600080fd5b6132b587828801613076565b91505092959194509250565b81516001600160a01b031681526020808301516001600160401b03169082015260408083015115159082015260608083015162ffffff169082015260808101610834565b6000806040838503121561331857600080fd5b823591506020830135612fc681612f8a565b6000806040838503121561333d57600080fd5b823561334881612dd9565b91506020830135612fc681612dd9565b60006020828403121561336a57600080fd5b5051919050565b634e487b7160e01b600052601160045260246000fd5b60008160001904831182151516156133a1576133a1613371565b500290565b634e487b7160e01b600052601260045260246000fd5b6000826133cb576133cb6133a6565b500490565b600082198211156133e3576133e3613371565b500190565b600060208083850312156133fb57600080fd5b82516001600160401b038082111561341257600080fd5b818501915085601f83011261342657600080fd5b81518181111561343857613438613009565b8060051b915061344984830161301f565b818152918301840191848101908884111561346357600080fd5b938501935b8385101561348157845182529385019390850190613468565b98975050505050505050565b634e487b7160e01b600052603260045260246000fd5b600181811c908216806134b757607f821691505b6020821081036134d757634e487b7160e01b600052602260045260246000fd5b50919050565b6000602082840312156134ef57600080fd5b81516114e681612f8a565b60008282101561350c5761350c613371565b500390565b60006001600160a01b0380861683528085166020840152506060604083015261353d6060830184612d81565b95945050505050565b60006020828403121561355857600080fd5b81516001600160401b0381111561356e57600080fd5b8201601f8101841361357f57600080fd5b805161358d6130958261304f565b8181528560208385010111156135a257600080fd5b61353d826020830160208601612d55565b600083516135c5818460208801612d55565b8351908301906135d9818360208801612d55565b01949350505050565b6020808252602b908201527f496e697469616c697a61626c653a20636f6e7472616374206973206e6f74206960408201526a6e697469616c697a696e6760a81b606082015260800190565b60006001600160a01b0380871683528086166020840152508360408301526080606083015261365f6080830184612d81565b9695505050505050565b60006020828403121561367b57600080fd5b81516114e681612d22565b60008451613698818460208901612d55565b8451908301906136ac818360208901612d55565b602f60f81b910190815283516136c9816001840160208801612d55565b0160010195945050505050565b8054600090600181811c90808316806136f057607f831692505b6020808410820361371157634e487b7160e01b600052602260045260246000fd5b818015613725576001811461373657613763565b60ff19861689528489019650613763565b60008881526020902060005b8681101561375b5781548b820152908501908301613742565b505084890196505b50505050505092915050565b600061377b82866136d6565b845161378b818360208901612d55565b613797818301866136d6565b979650505050505050565b6000600182016137b4576137b4613371565b5060010190565b6000826137ca576137ca6133a6565b500690565b634e487b7160e01b600052603160045260246000fd5b6000816137f4576137f4613371565b50600019019056fea26469706673582212209013cd2567e5e211caee0c63d151f04f9956342407555b7c4fbfd6ba71aa778564736f6c634300080d0033",
  "devdoc": {
    "kind": "dev",
    "methods": {
      "approve(address,uint256)": {
        "details": "Gives permission to `to` to transfer `tokenId` token to another account. The approval is cleared when the token is transferred. Only a single account can be approved at a time, so approving the zero address clears previous approvals. Requirements: - The caller must own the token or be an approved operator. - `tokenId` must exist. Emits an {Approval} event."
      },
      "balanceOf(address)": {
        "details": "Returns the number of tokens in `owner`'s account."
      },
      "explicitOwnershipOf(uint256)": {
        "details": "Returns the `TokenOwnership` struct at `tokenId` without reverting. If the `tokenId` is out of bounds: - `addr = address(0)` - `startTimestamp = 0` - `burned = false` - `extraData = 0` If the `tokenId` is burned: - `addr = <Address of owner before token was burned>` - `startTimestamp = <Timestamp when token was burned>` - `burned = true` - `extraData = <Extra data when token was burned>` Otherwise: - `addr = <Address of owner>` - `startTimestamp = <Timestamp of start of ownership>` - `burned = false` - `extraData = <Extra data at start of ownership>`"
      },
      "explicitOwnershipsOf(uint256[])": {
        "details": "Returns an array of `TokenOwnership` structs at `tokenIds` in order. See {ERC721AQueryable-explicitOwnershipOf}"
      },
      "getApproved(uint256)": {
        "details": "Returns the account approved for `tokenId` token. Requirements: - `tokenId` must exist."
      },
      "isApprovedForAll(address,address)": {
        "details": "Returns if the `operator` is allowed to manage all of the assets of `owner`. See {setApprovalForAll}."
      },
      "name()": {
        "details": "See {IERC721Metadata-name}."
      },
      "owner()": {
        "details": "Returns the address of the current owner."
      },
      "ownerOf(uint256)": {
        "details": "Returns the owner of the `tokenId` token. Requirements: - `tokenId` must exist."
      },
      "renounceOwnership()": {
        "details": "Leaves the contract without owner. It will not be possible to call `onlyOwner` functions anymore. Can only be called by the current owner. NOTE: Renouncing ownership will leave the contract without an owner, thereby removing any functionality that is only available to the owner."
      },
      "royaltyInfo(uint256,uint256)": {
        "details": "Returns how much royalty is owed and to whom, based on a sale price that may be denominated in any unit of exchange. The royalty amount is denominated and should be paid in that same unit of exchange."
      },
      "safeTransferFrom(address,address,uint256)": {
        "details": "Equivalent to `safeTransferFrom(from, to, tokenId, '')`."
      },
      "safeTransferFrom(address,address,uint256,bytes)": {
        "details": "Safely transfers `tokenId` token from `from` to `to`. Requirements: - `from` cannot be the zero address. - `to` cannot be the zero address. - `tokenId` token must exist and be owned by `from`. - If the caller is not `from`, it must be approved to move this token by either {approve} or {setApprovalForAll}. - If `to` refers to a smart contract, it must implement {IERC721Receiver-onERC721Received}, which is called upon a safe transfer. Emits a {Transfer} event."
      },
      "setApprovalForAll(address,bool)": {
        "details": "Approve or remove `operator` as an operator for the caller. Operators can call {transferFrom} or {safeTransferFrom} for any token owned by the caller. Requirements: - The `operator` cannot be the caller. Emits an {ApprovalForAll} event."
      },
      "supportsInterface(bytes4)": {
        "details": "See {IERC165-supportsInterface}."
      },
      "symbol()": {
        "details": "See {IERC721Metadata-symbol}."
      },
      "tokenByIndex(uint256)": {
        "details": "Returns a token ID at a given `index` of all the tokens stored by the contract. Use along with {totalSupply} to enumerate all tokens."
      },
      "tokenOfOwnerByIndex(address,uint256)": {
        "details": "Returns a token ID owned by `owner` at a given `index` of its token list. Use along with {balanceOf} to enumerate all of ``owner``'s tokens."
      },
      "tokenURI(uint256)": {
        "details": "See {IERC721Metadata-tokenURI}."
      },
      "tokensOfOwner(address)": {
        "details": "Returns an array of token IDs owned by `owner`. This function scans the ownership mapping and is O(`totalSupply`) in complexity. It is meant to be called off-chain. See {ERC721AQueryable-tokensOfOwnerIn} for splitting the scan into multiple smaller scans if the collection is large enough to cause an out-of-gas error (10K collections should be fine)."
      },
      "tokensOfOwnerIn(address,uint256,uint256)": {
        "details": "Returns an array of token IDs owned by `owner`, in the range [`start`, `stop`) (i.e. `start <= tokenId < stop`). This function allows for tokens to be queried if the collection grows too big for a single call of {ERC721AQueryable-tokensOfOwner}. Requirements: - `start < stop`"
      },
      "totalSupply()": {
        "details": "Returns the total number of tokens in existence. Burned tokens will reduce the count. To get the total number of tokens minted, please see {_totalMinted}."
      },
      "transferOwnership(address)": {
        "details": "Transfers ownership of the contract to a new account (`newOwner`). Can only be called by the current owner."
      }
    },
    "version": 1
  },
  "userdoc": {
    "errors": {
      "ApprovalCallerNotOwnerNorApproved()": [
        {
          "notice": "The caller must own the token or be an approved operator."
        }
      ],
      "ApprovalQueryForNonexistentToken()": [
        {
          "notice": "The token does not exist."
        }
      ],
      "ApproveToCaller()": [
        {
          "notice": "The caller cannot approve to their own address."
        }
      ],
      "BalanceQueryForZeroAddress()": [
        {
          "notice": "Cannot query the balance for the zero address."
        }
      ],
      "InvalidQueryRange()": [
        {
          "notice": "Invalid query range (`start` >= `stop`)."
        }
      ],
      "MintERC2309QuantityExceedsLimit()": [
        {
          "notice": "The `quantity` minted with ERC2309 exceeds the safety limit."
        }
      ],
      "MintToZeroAddress()": [
        {
          "notice": "Cannot mint to the zero address."
        }
      ],
      "MintZeroQuantity()": [
        {
          "notice": "The quantity of tokens minted must be more than zero."
        }
      ],
      "OwnerQueryForNonexistentToken()": [
        {
          "notice": "The token does not exist."
        }
      ],
      "OwnershipNotInitializedForExtraData()": [
        {
          "notice": "The `extraData` cannot be set on an unintialized ownership slot."
        }
      ],
      "TransferCallerNotOwnerNorApproved()": [
        {
          "notice": "The caller must own the token or be an approved operator."
        }
      ],
      "TransferFromIncorrectOwner()": [
        {
          "notice": "The token must be owned by `from`."
        }
      ],
      "TransferToNonERC721ReceiverImplementer()": [
        {
          "notice": "Cannot safely transfer to a contract that does not implement the ERC721Receiver interface."
        }
      ],
      "TransferToZeroAddress()": [
        {
          "notice": "Cannot transfer to the zero address."
        }
      ],
      "URIQueryForNonexistentToken()": [
        {
          "notice": "The token does not exist."
        }
      ]
    },
    "kind": "user",
    "methods": {},
    "version": 1
  },
  "storageLayout": {
    "storage": [
      {
        "astId": 8444,
        "contract": "contracts/mint/AxelarSeaNft721A.sol:AxelarSeaNft721A",
        "label": "_currentIndex",
        "offset": 0,
        "slot": "0",
        "type": "t_uint256"
      },
      {
        "astId": 8446,
        "contract": "contracts/mint/AxelarSeaNft721A.sol:AxelarSeaNft721A",
        "label": "_burnCounter",
        "offset": 0,
        "slot": "1",
        "type": "t_uint256"
      },
      {
        "astId": 8448,
        "contract": "contracts/mint/AxelarSeaNft721A.sol:AxelarSeaNft721A",
        "label": "_name",
        "offset": 0,
        "slot": "2",
        "type": "t_string_storage"
      },
      {
        "astId": 8450,
        "contract": "contracts/mint/AxelarSeaNft721A.sol:AxelarSeaNft721A",
        "label": "_symbol",
        "offset": 0,
        "slot": "3",
        "type": "t_string_storage"
      },
      {
        "astId": 8454,
        "contract": "contracts/mint/AxelarSeaNft721A.sol:AxelarSeaNft721A",
        "label": "_packedOwnerships",
        "offset": 0,
        "slot": "4",
        "type": "t_mapping(t_uint256,t_uint256)"
      },
      {
        "astId": 8458,
        "contract": "contracts/mint/AxelarSeaNft721A.sol:AxelarSeaNft721A",
        "label": "_packedAddressData",
        "offset": 0,
        "slot": "5",
        "type": "t_mapping(t_address,t_uint256)"
      },
      {
        "astId": 8463,
        "contract": "contracts/mint/AxelarSeaNft721A.sol:AxelarSeaNft721A",
        "label": "_tokenApprovals",
        "offset": 0,
        "slot": "6",
        "type": "t_mapping(t_uint256,t_struct(TokenApprovalRef)8376_storage)"
      },
      {
        "astId": 8469,
        "contract": "contracts/mint/AxelarSeaNft721A.sol:AxelarSeaNft721A",
        "label": "_operatorApprovals",
        "offset": 0,
        "slot": "7",
        "type": "t_mapping(t_address,t_mapping(t_address,t_bool))"
      },
      {
        "astId": 138,
        "contract": "contracts/mint/AxelarSeaNft721A.sol:AxelarSeaNft721A",
        "label": "_initialized",
        "offset": 0,
        "slot": "8",
        "type": "t_uint8"
      },
      {
        "astId": 141,
        "contract": "contracts/mint/AxelarSeaNft721A.sol:AxelarSeaNft721A",
        "label": "_initializing",
        "offset": 1,
        "slot": "8",
        "type": "t_bool"
      },
      {
        "astId": 625,
        "contract": "contracts/mint/AxelarSeaNft721A.sol:AxelarSeaNft721A",
        "label": "__gap",
        "offset": 0,
        "slot": "9",
        "type": "t_array(t_uint256)50_storage"
      },
      {
        "astId": 10,
        "contract": "contracts/mint/AxelarSeaNft721A.sol:AxelarSeaNft721A",
        "label": "_owner",
        "offset": 0,
        "slot": "59",
        "type": "t_address"
      },
      {
        "astId": 130,
        "contract": "contracts/mint/AxelarSeaNft721A.sol:AxelarSeaNft721A",
        "label": "__gap",
        "offset": 0,
        "slot": "60",
        "type": "t_array(t_uint256)49_storage"
      },
      {
        "astId": 296,
        "contract": "contracts/mint/AxelarSeaNft721A.sol:AxelarSeaNft721A",
        "label": "_status",
        "offset": 0,
        "slot": "109",
        "type": "t_uint256"
      },
      {
        "astId": 340,
        "contract": "contracts/mint/AxelarSeaNft721A.sol:AxelarSeaNft721A",
        "label": "__gap",
        "offset": 0,
        "slot": "110",
        "type": "t_array(t_uint256)49_storage"
      },
      {
        "astId": 6356,
        "contract": "contracts/mint/AxelarSeaNft721A.sol:AxelarSeaNft721A",
        "label": "newMinterStopped",
        "offset": 0,
        "slot": "159",
        "type": "t_bool"
      },
      {
        "astId": 6359,
        "contract": "contracts/mint/AxelarSeaNft721A.sol:AxelarSeaNft721A",
        "label": "registry",
        "offset": 1,
        "slot": "159",
        "type": "t_contract(AxelarSeaProjectRegistry)6297"
      },
      {
        "astId": 6361,
        "contract": "contracts/mint/AxelarSeaNft721A.sol:AxelarSeaNft721A",
        "label": "fundAddress",
        "offset": 0,
        "slot": "160",
        "type": "t_address"
      },
      {
        "astId": 6363,
        "contract": "contracts/mint/AxelarSeaNft721A.sol:AxelarSeaNft721A",
        "label": "collectionId",
        "offset": 0,
        "slot": "161",
        "type": "t_bytes32"
      },
      {
        "astId": 6365,
        "contract": "contracts/mint/AxelarSeaNft721A.sol:AxelarSeaNft721A",
        "label": "nftName",
        "offset": 0,
        "slot": "162",
        "type": "t_string_storage"
      },
      {
        "astId": 6367,
        "contract": "contracts/mint/AxelarSeaNft721A.sol:AxelarSeaNft721A",
        "label": "nftSymbol",
        "offset": 0,
        "slot": "163",
        "type": "t_string_storage"
      },
      {
        "astId": 6369,
        "contract": "contracts/mint/AxelarSeaNft721A.sol:AxelarSeaNft721A",
        "label": "exclusiveLevel",
        "offset": 0,
        "slot": "164",
        "type": "t_uint256"
      },
      {
        "astId": 6371,
        "contract": "contracts/mint/AxelarSeaNft721A.sol:AxelarSeaNft721A",
        "label": "maxSupply",
        "offset": 0,
        "slot": "165",
        "type": "t_uint256"
      },
      {
        "astId": 6375,
        "contract": "contracts/mint/AxelarSeaNft721A.sol:AxelarSeaNft721A",
        "label": "exclusiveContract",
        "offset": 0,
        "slot": "166",
        "type": "t_mapping(t_address,t_bool)"
      },
      {
        "astId": 6378,
        "contract": "contracts/mint/AxelarSeaNft721A.sol:AxelarSeaNft721A",
        "label": "minters",
        "offset": 0,
        "slot": "167",
        "type": "t_struct(AddressSet)3706_storage"
      },
      {
        "astId": 6382,
        "contract": "contracts/mint/AxelarSeaNft721A.sol:AxelarSeaNft721A",
        "label": "walletMinted",
        "offset": 0,
        "slot": "169",
        "type": "t_mapping(t_address,t_uint256)"
      },
      {
        "astId": 6384,
        "contract": "contracts/mint/AxelarSeaNft721A.sol:AxelarSeaNft721A",
        "label": "mintFeeOverride",
        "offset": 0,
        "slot": "170",
        "type": "t_uint256"
      },
      {
        "astId": 6386,
        "contract": "contracts/mint/AxelarSeaNft721A.sol:AxelarSeaNft721A",
        "label": "enableMintFeeOverride",
        "offset": 0,
        "slot": "171",
        "type": "t_bool"
      },
      {
        "astId": 6388,
        "contract": "contracts/mint/AxelarSeaNft721A.sol:AxelarSeaNft721A",
        "label": "baseTokenUriPrefix",
        "offset": 0,
        "slot": "172",
        "type": "t_string_storage"
      },
      {
        "astId": 6390,
        "contract": "contracts/mint/AxelarSeaNft721A.sol:AxelarSeaNft721A",
        "label": "baseTokenUriSuffix",
        "offset": 0,
        "slot": "173",
        "type": "t_string_storage"
      },
      {
        "astId": 6392,
        "contract": "contracts/mint/AxelarSeaNft721A.sol:AxelarSeaNft721A",
        "label": "royaltyReceiver",
        "offset": 0,
        "slot": "174",
        "type": "t_address"
      },
      {
        "astId": 6394,
        "contract": "contracts/mint/AxelarSeaNft721A.sol:AxelarSeaNft721A",
        "label": "royaltyPercentage",
        "offset": 0,
        "slot": "175",
        "type": "t_uint256"
      }
    ],
    "types": {
      "t_address": {
        "encoding": "inplace",
        "label": "address",
        "numberOfBytes": "20"
      },
      "t_array(t_bytes32)dyn_storage": {
        "base": "t_bytes32",
        "encoding": "dynamic_array",
        "label": "bytes32[]",
        "numberOfBytes": "32"
      },
      "t_array(t_uint256)49_storage": {
        "base": "t_uint256",
        "encoding": "inplace",
        "label": "uint256[49]",
        "numberOfBytes": "1568"
      },
      "t_array(t_uint256)50_storage": {
        "base": "t_uint256",
        "encoding": "inplace",
        "label": "uint256[50]",
        "numberOfBytes": "1600"
      },
      "t_bool": {
        "encoding": "inplace",
        "label": "bool",
        "numberOfBytes": "1"
      },
      "t_bytes32": {
        "encoding": "inplace",
        "label": "bytes32",
        "numberOfBytes": "32"
      },
      "t_contract(AxelarSeaProjectRegistry)6297": {
        "encoding": "inplace",
        "label": "contract AxelarSeaProjectRegistry",
        "numberOfBytes": "20"
      },
      "t_mapping(t_address,t_bool)": {
        "encoding": "mapping",
        "key": "t_address",
        "label": "mapping(address => bool)",
        "numberOfBytes": "32",
        "value": "t_bool"
      },
      "t_mapping(t_address,t_mapping(t_address,t_bool))": {
        "encoding": "mapping",
        "key": "t_address",
        "label": "mapping(address => mapping(address => bool))",
        "numberOfBytes": "32",
        "value": "t_mapping(t_address,t_bool)"
      },
      "t_mapping(t_address,t_uint256)": {
        "encoding": "mapping",
        "key": "t_address",
        "label": "mapping(address => uint256)",
        "numberOfBytes": "32",
        "value": "t_uint256"
      },
      "t_mapping(t_bytes32,t_uint256)": {
        "encoding": "mapping",
        "key": "t_bytes32",
        "label": "mapping(bytes32 => uint256)",
        "numberOfBytes": "32",
        "value": "t_uint256"
      },
      "t_mapping(t_uint256,t_struct(TokenApprovalRef)8376_storage)": {
        "encoding": "mapping",
        "key": "t_uint256",
        "label": "mapping(uint256 => struct ERC721A.TokenApprovalRef)",
        "numberOfBytes": "32",
        "value": "t_struct(TokenApprovalRef)8376_storage"
      },
      "t_mapping(t_uint256,t_uint256)": {
        "encoding": "mapping",
        "key": "t_uint256",
        "label": "mapping(uint256 => uint256)",
        "numberOfBytes": "32",
        "value": "t_uint256"
      },
      "t_string_storage": {
        "encoding": "bytes",
        "label": "string",
        "numberOfBytes": "32"
      },
      "t_struct(AddressSet)3706_storage": {
        "encoding": "inplace",
        "label": "struct EnumerableSet.AddressSet",
        "members": [
          {
            "astId": 3705,
            "contract": "contracts/mint/AxelarSeaNft721A.sol:AxelarSeaNft721A",
            "label": "_inner",
            "offset": 0,
            "slot": "0",
            "type": "t_struct(Set)3405_storage"
          }
        ],
        "numberOfBytes": "64"
      },
      "t_struct(Set)3405_storage": {
        "encoding": "inplace",
        "label": "struct EnumerableSet.Set",
        "members": [
          {
            "astId": 3400,
            "contract": "contracts/mint/AxelarSeaNft721A.sol:AxelarSeaNft721A",
            "label": "_values",
            "offset": 0,
            "slot": "0",
            "type": "t_array(t_bytes32)dyn_storage"
          },
          {
            "astId": 3404,
            "contract": "contracts/mint/AxelarSeaNft721A.sol:AxelarSeaNft721A",
            "label": "_indexes",
            "offset": 0,
            "slot": "1",
            "type": "t_mapping(t_bytes32,t_uint256)"
          }
        ],
        "numberOfBytes": "64"
      },
      "t_struct(TokenApprovalRef)8376_storage": {
        "encoding": "inplace",
        "label": "struct ERC721A.TokenApprovalRef",
        "members": [
          {
            "astId": 8375,
            "contract": "contracts/mint/AxelarSeaNft721A.sol:AxelarSeaNft721A",
            "label": "value",
            "offset": 0,
            "slot": "0",
            "type": "t_address"
          }
        ],
        "numberOfBytes": "32"
      },
      "t_uint256": {
        "encoding": "inplace",
        "label": "uint256",
        "numberOfBytes": "32"
      },
      "t_uint8": {
        "encoding": "inplace",
        "label": "uint8",
        "numberOfBytes": "1"
      }
    }
  }
}