{
  "address": "0xe7f1725E7734CE288F8367e1Bb143E90bb3F0512",
  "abi": [
    {
      "inputs": [],
      "name": "BadContractSignature",
      "type": "error"
    },
    {
      "inputs": [
        {
          "internalType": "uint8",
          "name": "v",
          "type": "uint8"
        }
      ],
      "name": "BadSignatureV",
      "type": "error"
    },
    {
      "inputs": [
        {
          "internalType": "bytes32",
          "name": "collectionId",
          "type": "bytes32"
        }
      ],
      "name": "DuplicatedCollection",
      "type": "error"
    },
    {
      "inputs": [],
      "name": "Forbidden",
      "type": "error"
    },
    {
      "inputs": [],
      "name": "InvalidSignature",
      "type": "error"
    },
    {
      "inputs": [],
      "name": "InvalidSigner",
      "type": "error"
    },
    {
      "inputs": [
        {
          "internalType": "address",
          "name": "template",
          "type": "address"
        }
      ],
      "name": "InvalidTemplate",
      "type": "error"
    },
    {
      "anonymous": false,
      "inputs": [
        {
          "indexed": true,
          "internalType": "address",
          "name": "template",
          "type": "address"
        },
        {
          "indexed": true,
          "internalType": "address",
          "name": "owner",
          "type": "address"
        },
        {
          "indexed": true,
          "internalType": "address",
          "name": "contractAddress",
          "type": "address"
        },
        {
          "indexed": false,
          "internalType": "bytes32",
          "name": "collectionId",
          "type": "bytes32"
        },
        {
          "indexed": false,
          "internalType": "bytes32",
          "name": "projectId",
          "type": "bytes32"
        }
      ],
      "name": "DeployNft",
      "type": "event"
    },
    {
      "anonymous": false,
      "inputs": [
        {
          "indexed": false,
          "internalType": "uint8",
          "name": "version",
          "type": "uint8"
        }
      ],
      "name": "Initialized",
      "type": "event"
    },
    {
      "anonymous": false,
      "inputs": [
        {
          "indexed": true,
          "internalType": "address",
          "name": "contractAddress",
          "type": "address"
        },
        {
          "indexed": false,
          "internalType": "bytes32",
          "name": "projectId",
          "type": "bytes32"
        }
      ],
      "name": "LinkProject",
      "type": "event"
    },
    {
      "anonymous": false,
      "inputs": [
        {
          "indexed": false,
          "internalType": "address",
          "name": "userAddress",
          "type": "address"
        },
        {
          "indexed": false,
          "internalType": "address payable",
          "name": "relayerAddress",
          "type": "address"
        },
        {
          "indexed": false,
          "internalType": "bytes",
          "name": "functionSignature",
          "type": "bytes"
        }
      ],
      "name": "MetaTransactionExecuted",
      "type": "event"
    },
    {
      "anonymous": false,
      "inputs": [
        {
          "indexed": true,
          "internalType": "address",
          "name": "owner",
          "type": "address"
        },
        {
          "indexed": false,
          "internalType": "bytes32",
          "name": "projectId",
          "type": "bytes32"
        }
      ],
      "name": "NewProject",
      "type": "event"
    },
    {
      "anonymous": false,
      "inputs": [
        {
          "indexed": true,
          "internalType": "address",
          "name": "previousOwner",
          "type": "address"
        },
        {
          "indexed": true,
          "internalType": "address",
          "name": "newOwner",
          "type": "address"
        }
      ],
      "name": "OwnershipTransferred",
      "type": "event"
    },
    {
      "anonymous": false,
      "inputs": [
        {
          "indexed": true,
          "internalType": "address",
          "name": "addr",
          "type": "address"
        },
        {
          "indexed": false,
          "internalType": "bool",
          "name": "enabled",
          "type": "bool"
        }
      ],
      "name": "SetAxelarSeaContract",
      "type": "event"
    },
    {
      "anonymous": false,
      "inputs": [
        {
          "indexed": true,
          "internalType": "address",
          "name": "addr",
          "type": "address"
        },
        {
          "indexed": false,
          "internalType": "uint256",
          "name": "fee",
          "type": "uint256"
        }
      ],
      "name": "SetMintFee",
      "type": "event"
    },
    {
      "anonymous": false,
      "inputs": [
        {
          "indexed": true,
          "internalType": "address",
          "name": "template",
          "type": "address"
        },
        {
          "indexed": false,
          "internalType": "bool",
          "name": "enabled",
          "type": "bool"
        }
      ],
      "name": "SetMinterTemplate",
      "type": "event"
    },
    {
      "anonymous": false,
      "inputs": [
        {
          "indexed": true,
          "internalType": "address",
          "name": "token",
          "type": "address"
        },
        {
          "indexed": false,
          "internalType": "uint256",
          "name": "fee",
          "type": "uint256"
        }
      ],
      "name": "SetNewCollectionFee",
      "type": "event"
    },
    {
      "anonymous": false,
      "inputs": [
        {
          "indexed": true,
          "internalType": "address",
          "name": "token",
          "type": "address"
        },
        {
          "indexed": false,
          "internalType": "uint256",
          "name": "fee",
          "type": "uint256"
        }
      ],
      "name": "SetNewProjectFee",
      "type": "event"
    },
    {
      "anonymous": false,
      "inputs": [
        {
          "indexed": true,
          "internalType": "address",
          "name": "operator",
          "type": "address"
        },
        {
          "indexed": false,
          "internalType": "bool",
          "name": "enabled",
          "type": "bool"
        }
      ],
      "name": "SetOperator",
      "type": "event"
    },
    {
      "anonymous": false,
      "inputs": [
        {
          "indexed": true,
          "internalType": "bytes32",
          "name": "projectId",
          "type": "bytes32"
        },
        {
          "indexed": true,
          "internalType": "address",
          "name": "member",
          "type": "address"
        },
        {
          "indexed": false,
          "internalType": "uint256",
          "name": "level",
          "type": "uint256"
        }
      ],
      "name": "SetProjectMember",
      "type": "event"
    },
    {
      "anonymous": false,
      "inputs": [
        {
          "indexed": true,
          "internalType": "bytes32",
          "name": "projectId",
          "type": "bytes32"
        },
        {
          "indexed": true,
          "internalType": "address",
          "name": "owner",
          "type": "address"
        }
      ],
      "name": "SetProjectOwner",
      "type": "event"
    },
    {
      "anonymous": false,
      "inputs": [
        {
          "indexed": true,
          "internalType": "address",
          "name": "template",
          "type": "address"
        },
        {
          "indexed": false,
          "internalType": "bool",
          "name": "enabled",
          "type": "bool"
        }
      ],
      "name": "SetTemplate",
      "type": "event"
    },
    {
      "inputs": [],
      "name": "ERC712_VERSION",
      "outputs": [
        {
          "internalType": "string",
          "name": "",
          "type": "string"
        }
      ],
      "stateMutability": "view",
      "type": "function"
    },
    {
      "inputs": [
        {
          "internalType": "address",
          "name": "owner",
          "type": "address"
        },
        {
          "internalType": "bytes32",
          "name": "projectId",
          "type": "bytes32"
        }
      ],
      "name": "_newProject",
      "outputs": [],
      "stateMutability": "nonpayable",
      "type": "function"
    },
    {
      "inputs": [
        {
          "internalType": "address",
          "name": "",
          "type": "address"
        }
      ],
      "name": "axelarSeaContract",
      "outputs": [
        {
          "internalType": "bool",
          "name": "",
          "type": "bool"
        }
      ],
      "stateMutability": "view",
      "type": "function"
    },
    {
      "inputs": [],
      "name": "baseContractURI",
      "outputs": [
        {
          "internalType": "string",
          "name": "",
          "type": "string"
        }
      ],
      "stateMutability": "view",
      "type": "function"
    },
    {
      "inputs": [],
      "name": "baseMintFee",
      "outputs": [
        {
          "internalType": "uint256",
          "name": "",
          "type": "uint256"
        }
      ],
      "stateMutability": "view",
      "type": "function"
    },
    {
      "inputs": [],
      "name": "baseTokenURI",
      "outputs": [
        {
          "internalType": "string",
          "name": "",
          "type": "string"
        }
      ],
      "stateMutability": "view",
      "type": "function"
    },
    {
      "inputs": [
        {
          "internalType": "bytes32",
          "name": "",
          "type": "bytes32"
        }
      ],
      "name": "collectionMapping",
      "outputs": [
        {
          "internalType": "address",
          "name": "",
          "type": "address"
        }
      ],
      "stateMutability": "view",
      "type": "function"
    },
    {
      "inputs": [
        {
          "internalType": "address",
          "name": "template",
          "type": "address"
        },
        {
          "internalType": "address",
          "name": "owner",
          "type": "address"
        },
        {
          "internalType": "bytes32",
          "name": "collectionId",
          "type": "bytes32"
        },
        {
          "internalType": "bytes32",
          "name": "projectId",
          "type": "bytes32"
        },
        {
          "internalType": "uint256",
          "name": "exclusiveLevel",
          "type": "uint256"
        },
        {
          "internalType": "uint256",
          "name": "maxSupply",
          "type": "uint256"
        },
        {
          "internalType": "address",
          "name": "royaltyReceiver",
          "type": "address"
        },
        {
          "internalType": "uint256",
          "name": "royaltyPercentage",
          "type": "uint256"
        },
        {
          "internalType": "string",
          "name": "name",
          "type": "string"
        },
        {
          "internalType": "string",
          "name": "symbol",
          "type": "string"
        }
      ],
      "name": "deployNft",
      "outputs": [
        {
          "internalType": "contract IAxelarSeaNftInitializable",
          "name": "nft",
          "type": "address"
        }
      ],
      "stateMutability": "nonpayable",
      "type": "function"
    },
    {
      "inputs": [
        {
          "internalType": "address",
          "name": "template",
          "type": "address"
        },
        {
          "internalType": "address",
          "name": "minterTemplate",
          "type": "address"
        },
        {
          "internalType": "address",
          "name": "owner",
          "type": "address"
        },
        {
          "internalType": "bytes32",
          "name": "collectionId",
          "type": "bytes32"
        },
        {
          "internalType": "bytes32",
          "name": "projectId",
          "type": "bytes32"
        },
        {
          "internalType": "uint256",
          "name": "exclusiveLevel",
          "type": "uint256"
        },
        {
          "internalType": "uint256",
          "name": "maxSupply",
          "type": "uint256"
        },
        {
          "internalType": "address",
          "name": "royaltyReceiver",
          "type": "address"
        },
        {
          "internalType": "uint256",
          "name": "royaltyPercentage",
          "type": "uint256"
        },
        {
          "internalType": "string",
          "name": "name",
          "type": "string"
        },
        {
          "internalType": "string",
          "name": "symbol",
          "type": "string"
        },
        {
          "internalType": "bytes",
          "name": "data",
          "type": "bytes"
        }
      ],
      "name": "deployNftWithMinter",
      "outputs": [
        {
          "internalType": "contract IAxelarSeaNftInitializable",
          "name": "nft",
          "type": "address"
        },
        {
          "internalType": "contract IAxelarSeaMinterInitializable",
          "name": "minter",
          "type": "address"
        }
      ],
      "stateMutability": "nonpayable",
      "type": "function"
    },
    {
      "inputs": [
        {
          "internalType": "address",
          "name": "userAddress",
          "type": "address"
        },
        {
          "internalType": "uint256",
          "name": "nonce",
          "type": "uint256"
        },
        {
          "internalType": "bytes",
          "name": "functionSignature",
          "type": "bytes"
        },
        {
          "internalType": "bytes",
          "name": "signature",
          "type": "bytes"
        }
      ],
      "name": "executeMetaTransaction",
      "outputs": [
        {
          "internalType": "bytes",
          "name": "",
          "type": "bytes"
        }
      ],
      "stateMutability": "payable",
      "type": "function"
    },
    {
      "inputs": [],
      "name": "feeAddress",
      "outputs": [
        {
          "internalType": "address",
          "name": "",
          "type": "address"
        }
      ],
      "stateMutability": "view",
      "type": "function"
    },
    {
      "inputs": [],
      "name": "getChainId",
      "outputs": [
        {
          "internalType": "uint256",
          "name": "",
          "type": "uint256"
        }
      ],
      "stateMutability": "view",
      "type": "function"
    },
    {
      "inputs": [],
      "name": "getDomainSeperator",
      "outputs": [
        {
          "internalType": "bytes32",
          "name": "",
          "type": "bytes32"
        }
      ],
      "stateMutability": "view",
      "type": "function"
    },
    {
      "inputs": [],
      "name": "initialize",
      "outputs": [],
      "stateMutability": "nonpayable",
      "type": "function"
    },
    {
      "inputs": [
        {
          "internalType": "address",
          "name": "contractAddress",
          "type": "address"
        },
        {
          "internalType": "bytes32",
          "name": "projectId",
          "type": "bytes32"
        }
      ],
      "name": "linkProject",
      "outputs": [],
      "stateMutability": "nonpayable",
      "type": "function"
    },
    {
      "inputs": [
        {
          "internalType": "address",
          "name": "",
          "type": "address"
        }
      ],
      "name": "minterTemplates",
      "outputs": [
        {
          "internalType": "bool",
          "name": "",
          "type": "bool"
        }
      ],
      "stateMutability": "view",
      "type": "function"
    },
    {
      "inputs": [],
      "name": "newCollectionFeeAddress",
      "outputs": [
        {
          "internalType": "address",
          "name": "",
          "type": "address"
        }
      ],
      "stateMutability": "view",
      "type": "function"
    },
    {
      "inputs": [],
      "name": "newCollectionFeeAmount",
      "outputs": [
        {
          "internalType": "uint256",
          "name": "",
          "type": "uint256"
        }
      ],
      "stateMutability": "view",
      "type": "function"
    },
    {
      "inputs": [
        {
          "internalType": "address",
          "name": "owner",
          "type": "address"
        },
        {
          "internalType": "bytes32",
          "name": "projectId",
          "type": "bytes32"
        }
      ],
      "name": "newProject",
      "outputs": [],
      "stateMutability": "nonpayable",
      "type": "function"
    },
    {
      "inputs": [],
      "name": "newProjectFeeAddress",
      "outputs": [
        {
          "internalType": "address",
          "name": "",
          "type": "address"
        }
      ],
      "stateMutability": "view",
      "type": "function"
    },
    {
      "inputs": [],
      "name": "newProjectFeeAmount",
      "outputs": [
        {
          "internalType": "uint256",
          "name": "",
          "type": "uint256"
        }
      ],
      "stateMutability": "view",
      "type": "function"
    },
    {
      "inputs": [
        {
          "internalType": "address",
          "name": "",
          "type": "address"
        }
      ],
      "name": "nftProject",
      "outputs": [
        {
          "internalType": "bytes32",
          "name": "",
          "type": "bytes32"
        }
      ],
      "stateMutability": "view",
      "type": "function"
    },
    {
      "inputs": [
        {
          "internalType": "address",
          "name": "",
          "type": "address"
        }
      ],
      "name": "operators",
      "outputs": [
        {
          "internalType": "bool",
          "name": "",
          "type": "bool"
        }
      ],
      "stateMutability": "view",
      "type": "function"
    },
    {
      "inputs": [],
      "name": "owner",
      "outputs": [
        {
          "internalType": "address",
          "name": "",
          "type": "address"
        }
      ],
      "stateMutability": "view",
      "type": "function"
    },
    {
      "inputs": [
        {
          "internalType": "bytes32",
          "name": "",
          "type": "bytes32"
        },
        {
          "internalType": "address",
          "name": "",
          "type": "address"
        }
      ],
      "name": "projectMember",
      "outputs": [
        {
          "internalType": "uint256",
          "name": "",
          "type": "uint256"
        }
      ],
      "stateMutability": "view",
      "type": "function"
    },
    {
      "inputs": [
        {
          "internalType": "bytes32",
          "name": "",
          "type": "bytes32"
        }
      ],
      "name": "projectOwner",
      "outputs": [
        {
          "internalType": "address",
          "name": "",
          "type": "address"
        }
      ],
      "stateMutability": "view",
      "type": "function"
    },
    {
      "inputs": [],
      "name": "renounceOwnership",
      "outputs": [],
      "stateMutability": "nonpayable",
      "type": "function"
    },
    {
      "inputs": [
        {
          "internalType": "address",
          "name": "addr",
          "type": "address"
        },
        {
          "internalType": "bool",
          "name": "enabled",
          "type": "bool"
        }
      ],
      "name": "setAxelarSeaContract",
      "outputs": [],
      "stateMutability": "nonpayable",
      "type": "function"
    },
    {
      "inputs": [
        {
          "internalType": "string",
          "name": "_uri",
          "type": "string"
        }
      ],
      "name": "setBaseContractURI",
      "outputs": [],
      "stateMutability": "nonpayable",
      "type": "function"
    },
    {
      "inputs": [
        {
          "internalType": "string",
          "name": "_uri",
          "type": "string"
        }
      ],
      "name": "setBaseTokenURI",
      "outputs": [],
      "stateMutability": "nonpayable",
      "type": "function"
    },
    {
      "inputs": [
        {
          "internalType": "address",
          "name": "addr",
          "type": "address"
        },
        {
          "internalType": "uint256",
          "name": "fee",
          "type": "uint256"
        }
      ],
      "name": "setMintFee",
      "outputs": [],
      "stateMutability": "nonpayable",
      "type": "function"
    },
    {
      "inputs": [
        {
          "internalType": "address",
          "name": "template",
          "type": "address"
        },
        {
          "internalType": "bool",
          "name": "enabled",
          "type": "bool"
        }
      ],
      "name": "setMinterTemplate",
      "outputs": [],
      "stateMutability": "nonpayable",
      "type": "function"
    },
    {
      "inputs": [
        {
          "internalType": "address",
          "name": "token",
          "type": "address"
        },
        {
          "internalType": "uint256",
          "name": "fee",
          "type": "uint256"
        }
      ],
      "name": "setNewCollectionFee",
      "outputs": [],
      "stateMutability": "nonpayable",
      "type": "function"
    },
    {
      "inputs": [
        {
          "internalType": "address",
          "name": "token",
          "type": "address"
        },
        {
          "internalType": "uint256",
          "name": "fee",
          "type": "uint256"
        }
      ],
      "name": "setNewProjectFee",
      "outputs": [],
      "stateMutability": "nonpayable",
      "type": "function"
    },
    {
      "inputs": [
        {
          "internalType": "address",
          "name": "operator",
          "type": "address"
        },
        {
          "internalType": "bool",
          "name": "enabled",
          "type": "bool"
        }
      ],
      "name": "setOperator",
      "outputs": [],
      "stateMutability": "nonpayable",
      "type": "function"
    },
    {
      "inputs": [
        {
          "internalType": "bytes32",
          "name": "projectId",
          "type": "bytes32"
        },
        {
          "internalType": "address",
          "name": "member",
          "type": "address"
        },
        {
          "internalType": "uint256",
          "name": "level",
          "type": "uint256"
        }
      ],
      "name": "setProjectMember",
      "outputs": [],
      "stateMutability": "nonpayable",
      "type": "function"
    },
    {
      "inputs": [
        {
          "internalType": "bytes32",
          "name": "projectId",
          "type": "bytes32"
        },
        {
          "internalType": "address",
          "name": "owner",
          "type": "address"
        }
      ],
      "name": "setProjectOwner",
      "outputs": [],
      "stateMutability": "nonpayable",
      "type": "function"
    },
    {
      "inputs": [
        {
          "internalType": "address",
          "name": "template",
          "type": "address"
        },
        {
          "internalType": "bool",
          "name": "enabled",
          "type": "bool"
        }
      ],
      "name": "setTemplate",
      "outputs": [],
      "stateMutability": "nonpayable",
      "type": "function"
    },
    {
      "inputs": [
        {
          "internalType": "address",
          "name": "",
          "type": "address"
        }
      ],
      "name": "templates",
      "outputs": [
        {
          "internalType": "bool",
          "name": "",
          "type": "bool"
        }
      ],
      "stateMutability": "view",
      "type": "function"
    },
    {
      "inputs": [
        {
          "internalType": "address",
          "name": "newOwner",
          "type": "address"
        }
      ],
      "name": "transferOwnership",
      "outputs": [],
      "stateMutability": "nonpayable",
      "type": "function"
    }
  ],
  "transactionHash": "0x33d75235233ff37a90efd963f03dd5227839256ae44961e39ec8baae39a77e53",
  "args": [],
  "numDeployments": 1,
  "solcInputHash": "b4400175bf4ba4fd154fdd2b4f6ab738",
  "bytecode": "0x608060405234801561001057600080fd5b50612de7806100206000396000f3fe60806040526004361061023b5760003560e01c806380f2152e1161012e578063cc272f50116100ab578063e6416b211161006f578063e6416b211461071b578063ebc27b821461073b578063eecb59ee14610771578063f2fde38b146107a1578063f70210ea146107c157600080fd5b8063cc272f5014610686578063d2c678e0146106a6578063d547cfb7146106c6578063dcc2fc4a146106db578063e2dac973146106fb57600080fd5b80638da5cb5b116100f25780638da5cb5b146105d8578063a90cb89b146105f6578063ac54d37d14610626578063aee914df14610646578063bbe4b2aa1461066657600080fd5b806380f2152e146105415780638129fc1c146105565780638488e2f31461056b5780638bb468d91461058b5780638d247d30146105ab57600080fd5b80632c30eca4116101bc578063412753581161018057806341275358146104b6578063558a7297146104d6578063715018a6146104f65780637365d7c31461050b5780637f7335e51461052b57600080fd5b80632c30eca4146104185780632cf696e41461045057806330176e13146104635780633408e47014610483578063402911391461049657600080fd5b806313e7c9d81161020357806313e7c9d8146103255780631ea42c481461036557806320379ee51461038557806320a99bd01461039a5780632365e8e2146103ca57600080fd5b806303fc365314610240578063083bb838146102625780630cd3a538146102a75780630f7e5970146102c7578063124dceaa14610301575b600080fd5b34801561024c57600080fd5b5061026061025b3660046125ae565b6107d7565b005b34801561026e57600080fd5b5061028261027d36600461268a565b61083f565b604080516001600160a01b039384168152929091166020830152015b60405180910390f35b3480156102b357600080fd5b506102606102c236600461279d565b610c41565b3480156102d357600080fd5b506102f4604051806040016040528060018152602001603160f81b81525081565b60405161029e9190612832565b34801561030d57600080fd5b5061031760a65481565b60405190815260200161029e565b34801561033157600080fd5b5061035561034036600461284c565b60996020526000908152604090205460ff1681565b604051901515815260200161029e565b34801561037157600080fd5b50610260610380366004612869565b610c60565b34801561039157600080fd5b50606554610317565b3480156103a657600080fd5b506103556103b536600461284c565b609a6020526000908152604090205460ff1681565b3480156103d657600080fd5b506104006103e5366004612895565b60a0602052600090815260409020546001600160a01b031681565b6040516001600160a01b03909116815260200161029e565b34801561042457600080fd5b506103176104333660046128ae565b609f60209081526000928352604080842090915290825290205481565b6102f461045e36600461291c565b610d7d565b34801561046f57600080fd5b5061026061047e36600461279d565b610eae565b34801561048f57600080fd5b5046610317565b3480156104a257600080fd5b506102606104b1366004612869565b610ec9565b3480156104c257600080fd5b5060a154610400906001600160a01b031681565b3480156104e257600080fd5b506102606104f13660046125ae565b61104d565b34801561050257600080fd5b506102606110ad565b34801561051757600080fd5b5060a754610400906001600160a01b031681565b34801561053757600080fd5b5061031760a85481565b34801561054d57600080fd5b506102f46110c1565b34801561056257600080fd5b5061026061114f565b34801561057757600080fd5b506102606105863660046129a8565b6112d6565b34801561059757600080fd5b506102606105a6366004612869565b6113ef565b3480156105b757600080fd5b506103176105c636600461284c565b609e6020526000908152604090205481565b3480156105e457600080fd5b506033546001600160a01b0316610400565b34801561060257600080fd5b5061035561061136600461284c565b609b6020526000908152604090205460ff1681565b34801561063257600080fd5b50610260610641366004612869565b61144a565b34801561065257600080fd5b5060a554610400906001600160a01b031681565b34801561067257600080fd5b506104006106813660046129e0565b6114df565b34801561069257600080fd5b506102606106a13660046125ae565b6117dd565b3480156106b257600080fd5b506102606106c1366004612869565b61183d565b3480156106d257600080fd5b506102f46118df565b3480156106e757600080fd5b506102606106f63660046125ae565b6118ec565b34801561070757600080fd5b50610260610716366004612869565b61194c565b34801561072757600080fd5b506102606107363660046128ae565b6119a7565b34801561074757600080fd5b50610400610756366004612895565b609d602052600090815260409020546001600160a01b031681565b34801561077d57600080fd5b5061035561078c36600461284c565b609c6020526000908152604090205460ff1681565b3480156107ad57600080fd5b506102606107bc36600461284c565b611aa9565b3480156107cd57600080fd5b5061031760a25481565b6107df611b1f565b6001600160a01b0382166000818152609b6020908152604091829020805460ff191685151590811790915591519182527fca57e885a5d1ac77a68275053a576ebc03d57987c2bbcd5aeeff81f0171a1f7c91015b60405180910390a25050565b6000806099600061084e611b79565b6001600160a01b0316815260208101919091526040016000205460ff166108ab5760405162461bcd60e51b815260206004820152600c60248201526b2737ba1027b832b930ba37b960a11b60448201526064015b60405180910390fd5b6002606754036108fd5760405162461bcd60e51b815260206004820152601f60248201527f5265656e7472616e637947756172643a207265656e7472616e742063616c6c0060448201526064016108a2565b60026067556001600160a01b038e166000908152609a602052604090205460ff1661094657604051633855dd1960e21b81526001600160a01b038f1660048201526024016108a2565b6001600160a01b038d166000908152609b602052604090205460ff1661098a57604051633855dd1960e21b81526001600160a01b038e1660048201526024016108a2565b60008b815260a060205260409020546001600160a01b0316156109c3576040516337f2f1e560e21b8152600481018c90526024016108a2565b60a7546001600160a01b0316158015906109df5750600060a854115b15610a0757610a076109ef611b79565b60a85460a7546001600160a01b031691903090611bd5565b610a108e611c68565b6040516390b2464b60e01b81529092506001600160a01b038316906390b2464b90610a49908f908f908e908e908c908c90600401612aa8565b600060405180830381600087803b158015610a6357600080fd5b505af1158015610a77573d6000803e3d6000fd5b50505060008b8152609d60205260409020546001600160a01b03169050610aa257610aa28c8b610c60565b610aac828b611d15565b816001600160a01b031663ace0103d8e856040518363ffffffff1660e01b8152600401610ada929190612afb565b6020604051808303816000875af1158015610af9573d6000803e3d6000fd5b505050506040513d601f19601f82011682018060405250810190610b1d9190612b1d565b90506001600160a01b03871615610b91576040516310fd332b60e01b81526001600160a01b038881166004830152602482018890528316906310fd332b90604401600060405180830381600087803b158015610b7857600080fd5b505af1158015610b8c573d6000803e3d6000fd5b505050505b8160a060008d815260200190815260200160002060006101000a8154816001600160a01b0302191690836001600160a01b03160217905550816001600160a01b03168c6001600160a01b03168f6001600160a01b03167f0a6bbba28cc60a0dfc5d2f1e3f06916cef04f5f63323f5a28e4c6865453371438e8e604051610c21929190918252602082015260400190565b60405180910390a46001606755909d909c509a5050505050505050505050565b610c49611b1f565b8051610c5c9060a39060208401906124e7565b5050565b60996000610c6c611b79565b6001600160a01b0316815260208101919091526040016000205460ff16610cc45760405162461bcd60e51b815260206004820152600c60248201526b2737ba1027b832b930ba37b960a11b60448201526064016108a2565b6000818152609d6020908152604080832080546001600160a01b0319166001600160a01b03878116918217909255609f84528285209085529092529091206002905560a5541615801590610d1a5750600060a654115b15610d4257610d42610d2a611b79565b60a65460a5546001600160a01b031691903090611bd5565b816001600160a01b03167fbd4c7d0804a13b6db386501ad7b7c00f445bd6468a9551161bbb643c83102f0b8260405161083391815260200190565b6060610d8d878787878787611e29565b7f5845892132946850460bff5a0083f71031bc5bf9aadcd40f1de79423eac9b10b87338787604051610dc29493929190612b3a565b60405180910390a1600080306001600160a01b031687878b604051602001610dec93929190612b87565b60408051601f1981840301815290829052610e0691612bad565b6000604051808303816000865af19150503d8060008114610e43576040519150601f19603f3d011682016040523d82523d6000602084013e610e48565b606091505b509150915081610ea257610e5a611f55565b60405162461bcd60e51b815260206004820152601c60248201527f46756e6374696f6e2063616c6c206e6f74207375636365737366756c0000000060448201526064016108a2565b98975050505050505050565b610eb6611b1f565b8051610c5c9060a49060208401906124e7565b600260675403610f1b5760405162461bcd60e51b815260206004820152601f60248201527f5265656e7472616e637947756172643a207265656e7472616e742063616c6c0060448201526064016108a2565b60026067556040516301ffc9a760e01b81526380ac58cd60e01b60048201526001600160a01b038316906301ffc9a790602401602060405180830381865afa158015610f6b573d6000803e3d6000fd5b505050506040513d601f19601f82011682018060405250810190610f8f9190612bc9565b8061100457506040516301ffc9a760e01b8152636cdb3d1360e11b60048201526001600160a01b038316906301ffc9a790602401602060405180830381865afa158015610fe0573d6000803e3d6000fd5b505050506040513d601f19601f820116820180604052508101906110049190612bc9565b61103a5760405162461bcd60e51b8152602060048201526007602482015266139bdd0813919560ca1b60448201526064016108a2565b6110448282611d15565b50506001606755565b611055611b1f565b6001600160a01b038216600081815260996020908152604091829020805460ff191685151590811790915591519182527f1618a22a3b00b9ac70fd5a82f1f5cdd8cb272bd0f1b740ddf7c26ab05881dd5b9101610833565b6110b5611b1f565b6110bf6000611fa2565b565b60a380546110ce90612be6565b80601f01602080910402602001604051908101604052809291908181526020018280546110fa90612be6565b80156111475780601f1061111c57610100808354040283529160200191611147565b820191906000526020600020905b81548152906001019060200180831161112a57829003601f168201915b505050505081565b600054610100900460ff161580801561116f5750600054600160ff909116105b806111895750303b158015611189575060005460ff166001145b6111a55760405162461bcd60e51b81526004016108a290612c20565b6000805460ff1916600117905580156111c8576000805461ff0019166101001790555b66470de4df82000060a25560408051606081019091526033808252612d7f602083013980516111ff9160a3916020909101906124e7565b50604051806060016040528060308152602001612cba60309139805161122d9160a4916020909101906124e7565b5060a180546001600160a01b0319163317905560408051808201909152601881527f4178656c617253656150726f6a65637452656769737472790000000000000000602082015261127d90611ff4565b6112856120bf565b61128d6120ee565b80156112d3576000805461ff0019169055604051600181527f7f26b83ff96e1f2b6a682f133852f6798a09c465da95921460cefb38474024989060200160405180910390a15b50565b600281118061131d57506000838152609f60205260408120906112f7611b79565b6001600160a01b03166001600160a01b0316815260200190815260200160002054600214155b8061134157506000838152609d60205260409020546001600160a01b038381169116145b8061136157506000838152609d60205260409020546001600160a01b0316155b8061137357506001600160a01b038216155b1561139157604051631dd2188d60e31b815260040160405180910390fd5b6000838152609f602090815260408083206001600160a01b038616808552908352928190208490555183815285917ffb96ce06da4ab27eb9983d735592d95976e88d04262fcdcd2962df5ad409255b910160405180910390a3505050565b6113f7611b1f565b60a580546001600160a01b0319166001600160a01b03841690811790915560a68290556040518281527fe73f45ef5a0827c577483c939cdc6ed5f7a6a9f92ce43e9a7823d74b29b424af90602001610833565b60996000611456611b79565b6001600160a01b0316815260208101919091526040016000205460ff166114ae5760405162461bcd60e51b815260206004820152600c60248201526b2737ba1027b832b930ba37b960a11b60448201526064016108a2565b6001600160a01b0382166114d557604051631dd2188d60e31b815260040160405180910390fd5b610c5c8282610c60565b6000609960006114ed611b79565b6001600160a01b0316815260208101919091526040016000205460ff166115455760405162461bcd60e51b815260206004820152600c60248201526b2737ba1027b832b930ba37b960a11b60448201526064016108a2565b6002606754036115975760405162461bcd60e51b815260206004820152601f60248201527f5265656e7472616e637947756172643a207265656e7472616e742063616c6c0060448201526064016108a2565b60026067556001600160a01b038b166000908152609a602052604090205460ff166115e057604051633855dd1960e21b81526001600160a01b038c1660048201526024016108a2565b600089815260a060205260409020546001600160a01b031615611619576040516337f2f1e560e21b8152600481018a90526024016108a2565b60a7546001600160a01b0316158015906116355750600060a854115b15611645576116456109ef611b79565b61164e8b611c68565b6040516390b2464b60e01b81529091506001600160a01b038216906390b2464b90611687908d908d908c908c908a908a90600401612aa8565b600060405180830381600087803b1580156116a157600080fd5b505af11580156116b5573d6000803e3d6000fd5b5050506000898152609d60205260409020546001600160a01b031690506116e0576116e08a89610c60565b6116ea8189611d15565b6001600160a01b0385161561175c576040516310fd332b60e01b81526001600160a01b038681166004830152602482018690528216906310fd332b90604401600060405180830381600087803b15801561174357600080fd5b505af1158015611757573d6000803e3d6000fd5b505050505b600089815260a0602090815260409182902080546001600160a01b0319166001600160a01b0385811691821790925583518d81529283018c9052928d821692918f16917f0a6bbba28cc60a0dfc5d2f1e3f06916cef04f5f63323f5a28e4c686545337143910160405180910390a460016067559a9950505050505050505050565b6117e5611b1f565b6001600160a01b0382166000818152609c6020908152604091829020805460ff191685151590811790915591519182527ff56d410e239c108d6e55cb5c365b20047d7f54fe8b11739bc2fdc3cd3f449df09101610833565b611845611b1f565b670de0b6b3a764000081111561188c5760405162461bcd60e51b815260206004820152600c60248201526b546f6f206d7563682066656560a01b60448201526064016108a2565b60a180546001600160a01b0319166001600160a01b03841690811790915560a28290556040518281527fdd198e1876b1e7fbeb87ad607b58c7c4374eacbbf1275469f2528e47e7e5e27590602001610833565b60a480546110ce90612be6565b6118f4611b1f565b6001600160a01b0382166000818152609a6020908152604091829020805460ff191685151590811790915591519182527f0af1eba046b032ac810dd4d2a22f34c68a7a4c749c87fa8036e23ae197e67e359101610833565b611954611b1f565b60a780546001600160a01b0319166001600160a01b03841690811790915560a88290556040518281527f0190ac0d68ef839b56a9447f5f999a72ed9970cd193f6f1f3b7a7130f08bfc8a90602001610833565b6000828152609d60205260409020546001600160a01b03166119c7611b79565b6001600160a01b0316141580611a0057506000828152609f602090815260408083206001600160a01b0385168452909152902054600214155b80611a2057506000828152609d60205260409020546001600160a01b0316155b80611a3257506001600160a01b038116155b15611a5057604051631dd2188d60e31b815260040160405180910390fd5b6000828152609d602052604080822080546001600160a01b0319166001600160a01b0385169081179091559051909184917f87956a6e554ad7100ef716fa8f414ccb2982f2f81ed9f7ee85f79a68221525e19190a35050565b611ab1611b1f565b6001600160a01b038116611b165760405162461bcd60e51b815260206004820152602660248201527f4f776e61626c653a206e6577206f776e657220697320746865207a65726f206160448201526564647265737360d01b60648201526084016108a2565b6112d381611fa2565b6033546001600160a01b031633146110bf5760405162461bcd60e51b815260206004820181905260248201527f4f776e61626c653a2063616c6c6572206973206e6f7420746865206f776e657260448201526064016108a2565b6000303303611bcf57600080368080601f0160208091040260200160405190810160405280939291908181526020018383808284376000920191909152505050503601516001600160a01b03169150611bd29050565b50335b90565b60006040516323b872dd60e01b81528460048201528360248201528260448201526020600060648360008a5af13d15601f3d1160016000511416171691505080611c615760405162461bcd60e51b815260206004820152601460248201527f5452414e534645525f46524f4d5f4641494c454400000000000000000000000060448201526064016108a2565b5050505050565b60006040517f3d602d80600a3d3981f3363d3d373d3d3d363d7300000000000000000000000081528260601b60148201526e5af43d82803e903d91602b57fd5bf360881b60288201526037816000f09150506001600160a01b038116611d105760405162461bcd60e51b815260206004820152601660248201527f455243313136373a20637265617465206661696c65640000000000000000000060448201526064016108a2565b919050565b6000826001600160a01b0316638da5cb5b6040518163ffffffff1660e01b8152600401602060405180830381865afa158015611d55573d6000803e3d6000fd5b505050506040513d601f19601f82011682018060405250810190611d799190612b1d565b90506001600160a01b0381161580611db157506000828152609f602090815260408083206001600160a01b0385168452909152902054155b15611dcf57604051631dd2188d60e31b815260040160405180910390fd5b6001600160a01b0383166000818152609e602052604090819020849055517f610d1ef25954bf1ca1f23c0142ccbbadbc1e8ec8dd12dd2bab6ff09280df123490611e1c9085815260200190565b60405180910390a2505050565b60008581526066602052604090205460ff1615611e765760405162461bcd60e51b815260206004820152600b60248201526a20b63932b0b23c90393ab760a91b60448201526064016108a2565b60006040518060600160405280878152602001886001600160a01b0316815260200186868080601f01602080910402602001604051908101604052809392919081815260200183838082843760009201919091525050509152509050611ede8782858561211d565b611f345760405162461bcd60e51b815260206004820152602160248201527f5369676e657220616e64207369676e617475726520646f206e6f74206d6174636044820152600d60fb1b60648201526084016108a2565b50505060009283525050606660205260409020805460ff1916600117905550565b3d156110bf576020601f3d01046020604051048160030281831115611f8857818303600302610200838002858002030401015b5a602082011015611f9d573d6000803e3d6000fd5b505050565b603380546001600160a01b038381166001600160a01b0319831681179093556040519116919082907f8be0079c531659141344cd1fd0a4f28419497f9722a3daafe3b4186f6b6457e090600090a35050565b600054610100900460ff16158080156120145750600054600160ff909116105b8061202e5750303b15801561202e575060005460ff166001145b61204a5760405162461bcd60e51b81526004016108a290612c20565b6000805460ff19166001179055801561206d576000805461ff0019166101001790555b612076826121df565b8015610c5c576000805461ff0019169055604051600181527f7f26b83ff96e1f2b6a682f133852f6798a09c465da95921460cefb38474024989060200160405180910390a15050565b600054610100900460ff166120e65760405162461bcd60e51b81526004016108a290612c6e565b6110bf612285565b600054610100900460ff166121155760405162461bcd60e51b81526004016108a290612c6e565b6110bf6122b5565b60006001600160a01b0385166121835760405162461bcd60e51b815260206004820152602560248201527f4e61746976654d6574615472616e73616374696f6e3a20494e56414c49445f5360448201526424a3a722a960d91b60648201526084016108a2565b6121d485612198612193876122e3565b612360565b85858080601f01602080910402602001604051908101604052809392919081815260200183838082843760009201919091525061239092505050565b506001949350505050565b604051806080016040528060528152602001612d2d6052913980516020918201208251838301206040805180820190915260018152603160f81b930192909252907fc89efdaa54c0f20c7adf612882df0950f5a951637e0307cdcb4c672f298b8bc646604080516020810195909552840192909252606083015260808201523060a082015260c00160408051601f19818403018152919052805160209091012060655550565b600054610100900460ff166122ac5760405162461bcd60e51b81526004016108a290612c6e565b6110bf33611fa2565b600054610100900460ff166122dc5760405162461bcd60e51b81526004016108a290612c6e565b6001606755565b6000604051806080016040528060438152602001612cea6043913980516020918201208351848301516040808701518051908601209051612343950193845260208401929092526001600160a01b03166040830152606082015260800190565b604051602081830303815290604052805190602001209050919050565b600061236b60655490565b60405161190160f01b6020820152602281019190915260428101839052606201612343565b60008060005260008251602084038051826041036000600182116123fe576040880151606089015160001a965082156123dc57601b8160ff1c0196506001600160ff1b03811660408a01525b8689528985526020600060808760015afa508385528589526040890152506000515b89148915151695508590506124bf5760408252604486038051604088038051630b135d3f60e11b84528a82526020600060648901868f5afa985088156124b557630b135d3f60e11b600051146124b5578b3b1561246657634f7fb80d60e01b60005260046000fd5b600187604103111561248357638baa579f60e01b60005260046000fd5b640101000000881a6124a457630f801e8560e11b6000528760045260246000fd5b632057875960e21b60005260046000fd5b8486529190925290525b50505050806124e1576124d0611f55565b634f7fb80d60e01b60005260046000fd5b50505050565b8280546124f390612be6565b90600052602060002090601f016020900481019282612515576000855561255b565b82601f1061252e57805160ff191683800117855561255b565b8280016001018555821561255b579182015b8281111561255b578251825591602001919060010190612540565b5061256792915061256b565b5090565b5b80821115612567576000815560010161256c565b6001600160a01b03811681146112d357600080fd5b8035611d1081612580565b80151581146112d357600080fd5b600080604083850312156125c157600080fd5b82356125cc81612580565b915060208301356125dc816125a0565b809150509250929050565b634e487b7160e01b600052604160045260246000fd5b600082601f83011261260e57600080fd5b813567ffffffffffffffff80821115612629576126296125e7565b604051601f8301601f19908116603f01168101908282118183101715612651576126516125e7565b8160405283815286602085880101111561266a57600080fd5b836020870160208301376000602085830101528094505050505092915050565b6000806000806000806000806000806000806101808d8f0312156126ad57600080fd5b6126b68d612595565b9b506126c460208e01612595565b9a506126d260408e01612595565b995060608d0135985060808d0135975060a08d0135965060c08d013595506126fc60e08e01612595565b94506101008d0135935067ffffffffffffffff6101208e0135111561272057600080fd5b6127318e6101208f01358f016125fd565b925067ffffffffffffffff6101408e0135111561274d57600080fd5b61275e8e6101408f01358f016125fd565b915067ffffffffffffffff6101608e0135111561277a57600080fd5b61278b8e6101608f01358f016125fd565b90509295989b509295989b509295989b565b6000602082840312156127af57600080fd5b813567ffffffffffffffff8111156127c657600080fd5b6127d2848285016125fd565b949350505050565b60005b838110156127f55781810151838201526020016127dd565b838111156124e15750506000910152565b6000815180845261281e8160208601602086016127da565b601f01601f19169290920160200192915050565b6020815260006128456020830184612806565b9392505050565b60006020828403121561285e57600080fd5b813561284581612580565b6000806040838503121561287c57600080fd5b823561288781612580565b946020939093013593505050565b6000602082840312156128a757600080fd5b5035919050565b600080604083850312156128c157600080fd5b8235915060208301356125dc81612580565b60008083601f8401126128e557600080fd5b50813567ffffffffffffffff8111156128fd57600080fd5b60208301915083602082850101111561291557600080fd5b9250929050565b6000806000806000806080878903121561293557600080fd5b863561294081612580565b955060208701359450604087013567ffffffffffffffff8082111561296457600080fd5b6129708a838b016128d3565b9096509450606089013591508082111561298957600080fd5b5061299689828a016128d3565b979a9699509497509295939492505050565b6000806000606084860312156129bd57600080fd5b8335925060208401356129cf81612580565b929592945050506040919091013590565b6000806000806000806000806000806101408b8d031215612a0057600080fd5b612a098b612595565b9950612a1760208c01612595565b985060408b0135975060608b0135965060808b0135955060a08b01359450612a4160c08c01612595565b935060e08b013592506101008b013567ffffffffffffffff80821115612a6657600080fd5b612a728e838f016125fd565b93506101208d0135915080821115612a8957600080fd5b50612a968d828e016125fd565b9150509295989b9194979a5092959850565b6001600160a01b038716815285602082015284604082015283606082015260c060808201526000612adc60c0830185612806565b82810360a0840152612aee8185612806565b9998505050505050505050565b6001600160a01b03831681526040602082015260006127d26040830184612806565b600060208284031215612b2f57600080fd5b815161284581612580565b60006001600160a01b03808716835280861660208401525060606040830152826060830152828460808401376000608084840101526080601f19601f850116830101905095945050505050565b8284823760609190911b6bffffffffffffffffffffffff19169101908152601401919050565b60008251612bbf8184602087016127da565b9190910192915050565b600060208284031215612bdb57600080fd5b8151612845816125a0565b600181811c90821680612bfa57607f821691505b602082108103612c1a57634e487b7160e01b600052602260045260246000fd5b50919050565b6020808252602e908201527f496e697469616c697a61626c653a20636f6e747261637420697320616c72656160408201526d191e481a5b9a5d1a585b1a5e995960921b606082015260800190565b6020808252602b908201527f496e697469616c697a61626c653a20636f6e7472616374206973206e6f74206960408201526a6e697469616c697a696e6760a81b60608201526080019056fe68747470733a2f2f6170692d6e667464726f702e6178656c61727365612e636f6d2f746f6b656e4d657461646174612f4d6574615472616e73616374696f6e2875696e74323536206e6f6e63652c616464726573732066726f6d2c62797465732066756e6374696f6e5369676e617475726529454950373132446f6d61696e28737472696e67206e616d652c737472696e672076657273696f6e2c75696e7432353620636861696e49642c6164647265737320766572696679696e67436f6e74726163742968747470733a2f2f6170692d6e667464726f702e6178656c61727365612e636f6d2f636f6e74726163744d657461646174612fa264697066735822122072173d37551c0a49a7d184cd34913433fe3d21b60a77d6488b01c525db3f28a664736f6c634300080d0033",
  "devdoc": {
    "errors": {
      "BadContractSignature()": [
        {
          "details": "Revert with an error when an EIP-1271 call to an account fails."
        }
      ],
      "BadSignatureV(uint8)": [
        {
          "details": "Revert with an error when a signature that does not contain a v      value of 27 or 28 has been supplied.",
          "params": {
            "v": "The invalid v value."
          }
        }
      ],
      "InvalidSignature()": [
        {
          "details": "Revert with an error when a signer cannot be recovered from the      supplied signature."
        }
      ],
      "InvalidSigner()": [
        {
          "details": "Revert with an error when the signer recovered by the supplied      signature does not match the offerer or an allowed EIP-1271 signer      as specified by the offerer in the event they are a contract."
        }
      ]
    },
    "kind": "dev",
    "methods": {
      "owner()": {
        "details": "Returns the address of the current owner."
      },
      "renounceOwnership()": {
        "details": "Leaves the contract without owner. It will not be possible to call `onlyOwner` functions anymore. Can only be called by the current owner. NOTE: Renouncing ownership will leave the contract without an owner, thereby removing any functionality that is only available to the owner."
      },
      "transferOwnership(address)": {
        "details": "Transfers ownership of the contract to a new account (`newOwner`). Can only be called by the current owner."
      }
    },
    "version": 1
  },
  "userdoc": {
    "kind": "user",
    "methods": {},
    "version": 1
  },
  "storageLayout": {
    "storage": [
      {
        "astId": 138,
        "contract": "contracts/mint/AxelarSeaProjectRegistry.sol:AxelarSeaProjectRegistry",
        "label": "_initialized",
        "offset": 0,
        "slot": "0",
        "type": "t_uint8"
      },
      {
        "astId": 141,
        "contract": "contracts/mint/AxelarSeaProjectRegistry.sol:AxelarSeaProjectRegistry",
        "label": "_initializing",
        "offset": 1,
        "slot": "0",
        "type": "t_bool"
      },
      {
        "astId": 625,
        "contract": "contracts/mint/AxelarSeaProjectRegistry.sol:AxelarSeaProjectRegistry",
        "label": "__gap",
        "offset": 0,
        "slot": "1",
        "type": "t_array(t_uint256)50_storage"
      },
      {
        "astId": 10,
        "contract": "contracts/mint/AxelarSeaProjectRegistry.sol:AxelarSeaProjectRegistry",
        "label": "_owner",
        "offset": 0,
        "slot": "51",
        "type": "t_address"
      },
      {
        "astId": 130,
        "contract": "contracts/mint/AxelarSeaProjectRegistry.sol:AxelarSeaProjectRegistry",
        "label": "__gap",
        "offset": 0,
        "slot": "52",
        "type": "t_array(t_uint256)49_storage"
      },
      {
        "astId": 4259,
        "contract": "contracts/mint/AxelarSeaProjectRegistry.sol:AxelarSeaProjectRegistry",
        "label": "domainSeperator",
        "offset": 0,
        "slot": "101",
        "type": "t_bytes32"
      },
      {
        "astId": 4373,
        "contract": "contracts/mint/AxelarSeaProjectRegistry.sol:AxelarSeaProjectRegistry",
        "label": "nonces",
        "offset": 0,
        "slot": "102",
        "type": "t_mapping(t_uint256,t_bool)"
      },
      {
        "astId": 296,
        "contract": "contracts/mint/AxelarSeaProjectRegistry.sol:AxelarSeaProjectRegistry",
        "label": "_status",
        "offset": 0,
        "slot": "103",
        "type": "t_uint256"
      },
      {
        "astId": 340,
        "contract": "contracts/mint/AxelarSeaProjectRegistry.sol:AxelarSeaProjectRegistry",
        "label": "__gap",
        "offset": 0,
        "slot": "104",
        "type": "t_array(t_uint256)49_storage"
      },
      {
        "astId": 5325,
        "contract": "contracts/mint/AxelarSeaProjectRegistry.sol:AxelarSeaProjectRegistry",
        "label": "operators",
        "offset": 0,
        "slot": "153",
        "type": "t_mapping(t_address,t_bool)"
      },
      {
        "astId": 5329,
        "contract": "contracts/mint/AxelarSeaProjectRegistry.sol:AxelarSeaProjectRegistry",
        "label": "templates",
        "offset": 0,
        "slot": "154",
        "type": "t_mapping(t_address,t_bool)"
      },
      {
        "astId": 5333,
        "contract": "contracts/mint/AxelarSeaProjectRegistry.sol:AxelarSeaProjectRegistry",
        "label": "minterTemplates",
        "offset": 0,
        "slot": "155",
        "type": "t_mapping(t_address,t_bool)"
      },
      {
        "astId": 5337,
        "contract": "contracts/mint/AxelarSeaProjectRegistry.sol:AxelarSeaProjectRegistry",
        "label": "axelarSeaContract",
        "offset": 0,
        "slot": "156",
        "type": "t_mapping(t_address,t_bool)"
      },
      {
        "astId": 5341,
        "contract": "contracts/mint/AxelarSeaProjectRegistry.sol:AxelarSeaProjectRegistry",
        "label": "projectOwner",
        "offset": 0,
        "slot": "157",
        "type": "t_mapping(t_bytes32,t_address)"
      },
      {
        "astId": 5345,
        "contract": "contracts/mint/AxelarSeaProjectRegistry.sol:AxelarSeaProjectRegistry",
        "label": "nftProject",
        "offset": 0,
        "slot": "158",
        "type": "t_mapping(t_address,t_bytes32)"
      },
      {
        "astId": 5351,
        "contract": "contracts/mint/AxelarSeaProjectRegistry.sol:AxelarSeaProjectRegistry",
        "label": "projectMember",
        "offset": 0,
        "slot": "159",
        "type": "t_mapping(t_bytes32,t_mapping(t_address,t_uint256))"
      },
      {
        "astId": 5355,
        "contract": "contracts/mint/AxelarSeaProjectRegistry.sol:AxelarSeaProjectRegistry",
        "label": "collectionMapping",
        "offset": 0,
        "slot": "160",
        "type": "t_mapping(t_bytes32,t_address)"
      },
      {
        "astId": 5357,
        "contract": "contracts/mint/AxelarSeaProjectRegistry.sol:AxelarSeaProjectRegistry",
        "label": "feeAddress",
        "offset": 0,
        "slot": "161",
        "type": "t_address"
      },
      {
        "astId": 5359,
        "contract": "contracts/mint/AxelarSeaProjectRegistry.sol:AxelarSeaProjectRegistry",
        "label": "baseMintFee",
        "offset": 0,
        "slot": "162",
        "type": "t_uint256"
      },
      {
        "astId": 5361,
        "contract": "contracts/mint/AxelarSeaProjectRegistry.sol:AxelarSeaProjectRegistry",
        "label": "baseContractURI",
        "offset": 0,
        "slot": "163",
        "type": "t_string_storage"
      },
      {
        "astId": 5363,
        "contract": "contracts/mint/AxelarSeaProjectRegistry.sol:AxelarSeaProjectRegistry",
        "label": "baseTokenURI",
        "offset": 0,
        "slot": "164",
        "type": "t_string_storage"
      },
      {
        "astId": 5365,
        "contract": "contracts/mint/AxelarSeaProjectRegistry.sol:AxelarSeaProjectRegistry",
        "label": "newProjectFeeAddress",
        "offset": 0,
        "slot": "165",
        "type": "t_address"
      },
      {
        "astId": 5367,
        "contract": "contracts/mint/AxelarSeaProjectRegistry.sol:AxelarSeaProjectRegistry",
        "label": "newProjectFeeAmount",
        "offset": 0,
        "slot": "166",
        "type": "t_uint256"
      },
      {
        "astId": 5369,
        "contract": "contracts/mint/AxelarSeaProjectRegistry.sol:AxelarSeaProjectRegistry",
        "label": "newCollectionFeeAddress",
        "offset": 0,
        "slot": "167",
        "type": "t_address"
      },
      {
        "astId": 5371,
        "contract": "contracts/mint/AxelarSeaProjectRegistry.sol:AxelarSeaProjectRegistry",
        "label": "newCollectionFeeAmount",
        "offset": 0,
        "slot": "168",
        "type": "t_uint256"
      },
      {
        "astId": 5375,
        "contract": "contracts/mint/AxelarSeaProjectRegistry.sol:AxelarSeaProjectRegistry",
        "label": "__GAP",
        "offset": 0,
        "slot": "169",
        "type": "t_array(t_uint256)200_storage"
      }
    ],
    "types": {
      "t_address": {
        "encoding": "inplace",
        "label": "address",
        "numberOfBytes": "20"
      },
      "t_array(t_uint256)200_storage": {
        "base": "t_uint256",
        "encoding": "inplace",
        "label": "uint256[200]",
        "numberOfBytes": "6400"
      },
      "t_array(t_uint256)49_storage": {
        "base": "t_uint256",
        "encoding": "inplace",
        "label": "uint256[49]",
        "numberOfBytes": "1568"
      },
      "t_array(t_uint256)50_storage": {
        "base": "t_uint256",
        "encoding": "inplace",
        "label": "uint256[50]",
        "numberOfBytes": "1600"
      },
      "t_bool": {
        "encoding": "inplace",
        "label": "bool",
        "numberOfBytes": "1"
      },
      "t_bytes32": {
        "encoding": "inplace",
        "label": "bytes32",
        "numberOfBytes": "32"
      },
      "t_mapping(t_address,t_bool)": {
        "encoding": "mapping",
        "key": "t_address",
        "label": "mapping(address => bool)",
        "numberOfBytes": "32",
        "value": "t_bool"
      },
      "t_mapping(t_address,t_bytes32)": {
        "encoding": "mapping",
        "key": "t_address",
        "label": "mapping(address => bytes32)",
        "numberOfBytes": "32",
        "value": "t_bytes32"
      },
      "t_mapping(t_address,t_uint256)": {
        "encoding": "mapping",
        "key": "t_address",
        "label": "mapping(address => uint256)",
        "numberOfBytes": "32",
        "value": "t_uint256"
      },
      "t_mapping(t_bytes32,t_address)": {
        "encoding": "mapping",
        "key": "t_bytes32",
        "label": "mapping(bytes32 => address)",
        "numberOfBytes": "32",
        "value": "t_address"
      },
      "t_mapping(t_bytes32,t_mapping(t_address,t_uint256))": {
        "encoding": "mapping",
        "key": "t_bytes32",
        "label": "mapping(bytes32 => mapping(address => uint256))",
        "numberOfBytes": "32",
        "value": "t_mapping(t_address,t_uint256)"
      },
      "t_mapping(t_uint256,t_bool)": {
        "encoding": "mapping",
        "key": "t_uint256",
        "label": "mapping(uint256 => bool)",
        "numberOfBytes": "32",
        "value": "t_bool"
      },
      "t_string_storage": {
        "encoding": "bytes",
        "label": "string",
        "numberOfBytes": "32"
      },
      "t_uint256": {
        "encoding": "inplace",
        "label": "uint256",
        "numberOfBytes": "32"
      },
      "t_uint8": {
        "encoding": "inplace",
        "label": "uint8",
        "numberOfBytes": "1"
      }
    }
  }
}