{
  "address": "0x2279B7A0a67DB372996a5FaB50D91eAA73d2eBe6",
  "abi": [
    {
      "inputs": [
        {
          "internalType": "uint256",
          "name": "maxAmount",
          "type": "uint256"
        }
      ],
      "name": "MintPerWalletLimited",
      "type": "error"
    },
    {
      "inputs": [],
      "name": "NotMintingTime",
      "type": "error"
    },
    {
      "inputs": [],
      "name": "NotWhitelisted",
      "type": "error"
    },
    {
      "inputs": [],
      "name": "TransferFailed",
      "type": "error"
    },
    {
      "anonymous": false,
      "inputs": [
        {
          "indexed": false,
          "internalType": "uint8",
          "name": "version",
          "type": "uint8"
        }
      ],
      "name": "Initialized",
      "type": "event"
    },
    {
      "anonymous": false,
      "inputs": [
        {
          "indexed": true,
          "internalType": "address",
          "name": "previousOwner",
          "type": "address"
        },
        {
          "indexed": true,
          "internalType": "address",
          "name": "newOwner",
          "type": "address"
        }
      ],
      "name": "OwnershipTransferred",
      "type": "event"
    },
    {
      "anonymous": false,
      "inputs": [
        {
          "indexed": true,
          "internalType": "address",
          "name": "nftAddress",
          "type": "address"
        },
        {
          "indexed": true,
          "internalType": "bytes32",
          "name": "collectionId",
          "type": "bytes32"
        },
        {
          "indexed": true,
          "internalType": "bytes32",
          "name": "projectId",
          "type": "bytes32"
        },
        {
          "indexed": false,
          "internalType": "bytes32",
          "name": "merkleRoot",
          "type": "bytes32"
        },
        {
          "components": [
            {
              "internalType": "uint256",
              "name": "mintPriceStart",
              "type": "uint256"
            },
            {
              "internalType": "uint256",
              "name": "mintPriceEnd",
              "type": "uint256"
            },
            {
              "internalType": "uint256",
              "name": "mintPriceStep",
              "type": "uint256"
            },
            {
              "internalType": "uint256",
              "name": "mintStart",
              "type": "uint256"
            },
            {
              "internalType": "uint256",
              "name": "mintEnd",
              "type": "uint256"
            },
            {
              "internalType": "contract IERC20",
              "name": "mintTokenAddress",
              "type": "address"
            }
          ],
          "indexed": false,
          "internalType": "struct AxelarSeaNftMinterBase.AxelarSeaNftPriceData",
          "name": "priceData",
          "type": "tuple"
        }
      ],
      "name": "UpdateConfigMerkleMinter",
      "type": "event"
    },
    {
      "inputs": [
        {
          "internalType": "address",
          "name": "toCheck",
          "type": "address"
        },
        {
          "internalType": "uint256",
          "name": "maxAmount",
          "type": "uint256"
        },
        {
          "internalType": "bytes32[]",
          "name": "proof",
          "type": "bytes32[]"
        }
      ],
      "name": "checkMerkle",
      "outputs": [
        {
          "internalType": "bool",
          "name": "",
          "type": "bool"
        }
      ],
      "stateMutability": "view",
      "type": "function"
    },
    {
      "inputs": [
        {
          "internalType": "address",
          "name": "targetNft",
          "type": "address"
        },
        {
          "internalType": "address",
          "name": "owner",
          "type": "address"
        },
        {
          "internalType": "bytes",
          "name": "data",
          "type": "bytes"
        }
      ],
      "name": "initialize",
      "outputs": [],
      "stateMutability": "nonpayable",
      "type": "function"
    },
    {
      "inputs": [],
      "name": "merkleRoot",
      "outputs": [
        {
          "internalType": "bytes32",
          "name": "",
          "type": "bytes32"
        }
      ],
      "stateMutability": "view",
      "type": "function"
    },
    {
      "inputs": [],
      "name": "mintFee",
      "outputs": [
        {
          "internalType": "uint256",
          "name": "",
          "type": "uint256"
        }
      ],
      "stateMutability": "view",
      "type": "function"
    },
    {
      "inputs": [
        {
          "internalType": "address",
          "name": "to",
          "type": "address"
        },
        {
          "internalType": "uint256",
          "name": "maxAmount",
          "type": "uint256"
        },
        {
          "internalType": "uint256",
          "name": "amount",
          "type": "uint256"
        },
        {
          "internalType": "bytes32[]",
          "name": "proof",
          "type": "bytes32[]"
        }
      ],
      "name": "mintMerkle",
      "outputs": [],
      "stateMutability": "payable",
      "type": "function"
    },
    {
      "inputs": [],
      "name": "mintPrice",
      "outputs": [
        {
          "internalType": "uint256",
          "name": "",
          "type": "uint256"
        }
      ],
      "stateMutability": "view",
      "type": "function"
    },
    {
      "inputs": [],
      "name": "nft",
      "outputs": [
        {
          "internalType": "contract AxelarSeaNftBase",
          "name": "",
          "type": "address"
        }
      ],
      "stateMutability": "view",
      "type": "function"
    },
    {
      "inputs": [],
      "name": "owner",
      "outputs": [
        {
          "internalType": "address",
          "name": "",
          "type": "address"
        }
      ],
      "stateMutability": "view",
      "type": "function"
    },
    {
      "inputs": [],
      "name": "priceData",
      "outputs": [
        {
          "internalType": "uint256",
          "name": "mintPriceStart",
          "type": "uint256"
        },
        {
          "internalType": "uint256",
          "name": "mintPriceEnd",
          "type": "uint256"
        },
        {
          "internalType": "uint256",
          "name": "mintPriceStep",
          "type": "uint256"
        },
        {
          "internalType": "uint256",
          "name": "mintStart",
          "type": "uint256"
        },
        {
          "internalType": "uint256",
          "name": "mintEnd",
          "type": "uint256"
        },
        {
          "internalType": "contract IERC20",
          "name": "mintTokenAddress",
          "type": "address"
        }
      ],
      "stateMutability": "view",
      "type": "function"
    },
    {
      "inputs": [
        {
          "internalType": "contract IERC20",
          "name": "token",
          "type": "address"
        }
      ],
      "name": "recoverERC20",
      "outputs": [],
      "stateMutability": "nonpayable",
      "type": "function"
    },
    {
      "inputs": [],
      "name": "recoverETH",
      "outputs": [],
      "stateMutability": "nonpayable",
      "type": "function"
    },
    {
      "inputs": [],
      "name": "registry",
      "outputs": [
        {
          "internalType": "contract AxelarSeaProjectRegistry",
          "name": "",
          "type": "address"
        }
      ],
      "stateMutability": "view",
      "type": "function"
    },
    {
      "inputs": [],
      "name": "renounceOwnership",
      "outputs": [],
      "stateMutability": "nonpayable",
      "type": "function"
    },
    {
      "inputs": [
        {
          "internalType": "address",
          "name": "newOwner",
          "type": "address"
        }
      ],
      "name": "transferOwnership",
      "outputs": [],
      "stateMutability": "nonpayable",
      "type": "function"
    },
    {
      "inputs": [
        {
          "internalType": "bytes",
          "name": "data",
          "type": "bytes"
        }
      ],
      "name": "updateConfig",
      "outputs": [],
      "stateMutability": "nonpayable",
      "type": "function"
    },
    {
      "inputs": [
        {
          "internalType": "address",
          "name": "",
          "type": "address"
        }
      ],
      "name": "walletMinted",
      "outputs": [
        {
          "internalType": "uint256",
          "name": "",
          "type": "uint256"
        }
      ],
      "stateMutability": "view",
      "type": "function"
    }
  ],
  "transactionHash": "0x419033d6eb1ae37030bf2b57a249420ea3649aab65e4cf2adf614f35e7b67965",
  "args": [],
  "numDeployments": 1,
  "solcInputHash": "b4400175bf4ba4fd154fdd2b4f6ab738",
  "bytecode": "0x608060405234801561001057600080fd5b5061143d806100206000396000f3fe6080604052600436106100f35760003560e01c80637b1039991161008a578063cf7a1d7711610059578063cf7a1d7714610270578063d3738fc814610290578063e61a5fe4146102bd578063f2fde38b1461032757600080fd5b80637b103999146101f25780638cc6acce146102125780638da5cb5b146102325780639e8c708e1461025057600080fd5b80636817c76c116100c65780636817c76c14610185578063715018a61461019a57806379d71380146101af5780637a7ec167146101c257600080fd5b80630614117a146100f857806313966db51461010f5780632eb4a7ab1461013757806347ccca021461014d575b600080fd5b34801561010457600080fd5b5061010d610347565b005b34801561011b57600080fd5b506101246103bb565b6040519081526020015b60405180910390f35b34801561014357600080fd5b5061012460a05481565b34801561015957600080fd5b50609e5461016d906001600160a01b031681565b6040516001600160a01b03909116815260200161012e565b34801561019157600080fd5b5061012461042e565b3480156101a657600080fd5b5061010d6104bc565b61010d6101bd36600461100c565b6104d0565b3480156101ce57600080fd5b506101e26101dd366004611076565b6105dc565b604051901515815260200161012e565b3480156101fe57600080fd5b5060975461016d906001600160a01b031681565b34801561021e57600080fd5b5061010d61022d366004611175565b610664565b34801561023e57600080fd5b506033546001600160a01b031661016d565b34801561025c57600080fd5b5061010d61026b3660046111b2565b610675565b34801561027c57600080fd5b5061010d61028b3660046111cf565b6106fc565b34801561029c57600080fd5b506101246102ab3660046111b2565b609f6020526000908152604090205481565b3480156102c957600080fd5b50609854609954609a54609b54609c54609d546102f19594939291906001600160a01b031686565b60408051968752602087019590955293850192909252606084015260808301526001600160a01b031660a082015260c00161012e565b34801561033357600080fd5b5061010d6103423660046111b2565b6108bf565b61034f610935565b604051600090339047908381818185875af1925050503d8060008114610391576040519150601f19603f3d011682016040523d82523d6000602084013e610396565b606091505b50509050806103b8576040516312171d8360e31b815260040160405180910390fd5b50565b609e54604080516313966db560e01b815290516000926001600160a01b0316916313966db59160048083019260209291908290030181865afa158015610405573d6000803e3d6000fd5b505050506040513d601f19601f820116820180604052508101906104299190611231565b905090565b609a546000908103610441575060985490565b609b54421015610452575060985490565b609b54609a54609854609954429390930390910291600091101561047c5760985460995403610484565b609954609854035b9050808210156104b25760985460995411156104a45760985482016104ab565b6098548290035b9250505090565b5050609954919050565b6104c4610935565b6104ce600061098f565b565b6002606554036105275760405162461bcd60e51b815260206004820152601f60248201527f5265656e7472616e637947756172643a207265656e7472616e742063616c6c0060448201526064015b60405180910390fd5b6002606555610538858584846105dc565b61055557604051630b094f2760e31b815260040160405180910390fd5b6105608585856109e1565b61056a3384610a4f565b609e546040516340c10f1960e01b81526001600160a01b03878116600483015260248201869052909116906340c10f1990604401600060405180830381600087803b1580156105b857600080fd5b505af11580156105cc573d6000803e3d6000fd5b5050600160655550505050505050565b600061065b8383808060200260200160405190810160405280939291908181526020018383602002808284376000920191909152505060a0546040516bffffffffffffffffffffffff1960608c901b166020820152603481018a9052909250605401905060405160208183030381529060405280519060200120610c3b565b95945050505050565b61066c610935565b6103b881610c51565b61067d610935565b6040516370a0823160e01b81523060048201526103b89033906001600160a01b038416906370a0823190602401602060405180830381865afa1580156106c7573d6000803e3d6000fd5b505050506040513d601f19601f820116820180604052508101906106eb9190611231565b6001600160a01b0384169190610ca2565b600054610100900460ff161580801561071c5750600054600160ff909116105b806107365750303b158015610736575060005460ff166001145b6107995760405162461bcd60e51b815260206004820152602e60248201527f496e697469616c697a61626c653a20636f6e747261637420697320616c72656160448201526d191e481a5b9a5d1a585b1a5e995960921b606482015260840161051e565b6000805460ff1916600117905580156107bc576000805461ff0019166101001790555b609e80546001600160a01b0319166001600160a01b03861690811790915560408051637b10399960e01b81529051637b103999916004808201926020929091908290030181865afa158015610815573d6000803e3d6000fd5b505050506040513d601f19601f82011682018060405250810190610839919061124a565b609780546001600160a01b0319166001600160a01b039290921691909117905561086282610c51565b61086b8361098f565b610873610d1a565b80156108b9576000805461ff0019169055604051600181527f7f26b83ff96e1f2b6a682f133852f6798a09c465da95921460cefb38474024989060200160405180910390a15b50505050565b6108c7610935565b6001600160a01b03811661092c5760405162461bcd60e51b815260206004820152602660248201527f4f776e61626c653a206e6577206f776e657220697320746865207a65726f206160448201526564647265737360d01b606482015260840161051e565b6103b88161098f565b6033546001600160a01b031633146104ce5760405162461bcd60e51b815260206004820181905260248201527f4f776e61626c653a2063616c6c6572206973206e6f7420746865206f776e6572604482015260640161051e565b603380546001600160a01b038381166001600160a01b0319831681179093556040519116919082907f8be0079c531659141344cd1fd0a4f28419497f9722a3daafe3b4186f6b6457e090600090a35050565b6001600160a01b0383166000908152609f602052604081208054839290610a0990849061127d565b90915550506001600160a01b0383166000908152609f6020526040902054821015610a4a57604051630f733ba960e41b81526004810183905260240161051e565b505050565b609b54421080610a605750609c5442115b15610a7e576040516319d3eeb960e31b815260040160405180910390fd5b609854151580610a8f575060995415155b15610c3757600081610a9f61042e565b610aa99190611295565b90506000670de0b6b3a7640000610abe6103bb565b610ac89084611295565b610ad291906112b4565b90506000610ae082846112d6565b90506000610aee84346112d6565b90506000609760009054906101000a90046001600160a01b03166001600160a01b031663412753586040518163ffffffff1660e01b8152600401602060405180830381865afa158015610b45573d6000803e3d6000fd5b505050506040513d601f19601f82011682018060405250810190610b69919061124a565b90506000609e60009054906101000a90046001600160a01b03166001600160a01b031663e82bef296040518163ffffffff1660e01b8152600401602060405180830381865afa158015610bc0573d6000803e3d6000fd5b505050506040513d601f19601f82011682018060405250810190610be4919061124a565b9050600080600080600089875af1905060008060008088865af1168315610c115760008060008087335af1165b80610c2f576040516312171d8360e31b815260040160405180910390fd5b505050505050505b5050565b600082610c488584610d49565b14949350505050565b610c5a81610d96565b609b54609c5410156103b85760405162461bcd60e51b81526020600482015260116024820152700496e76616c69642074696d657374616d7607c1b604482015260640161051e565b600060405163a9059cbb60e01b8152836004820152826024820152602060006044836000895af13d15601f3d11600160005114161716915050806108b95760405162461bcd60e51b815260206004820152600f60248201526e1514905394d1915497d19052531151608a1b604482015260640161051e565b600054610100900460ff16610d415760405162461bcd60e51b815260040161051e906112ed565b6104ce610f4b565b600081815b8451811015610d8e57610d7a82868381518110610d6d57610d6d611338565b6020026020010151610f79565b915080610d868161134e565b915050610d4e565b509392505050565b80806020019051810190610daa9190611367565b8051609855602080820151609955604080830151609a556060830151609b556080830151609c5560a092830151609d80546001600160a01b0319166001600160a01b0392831617905593909255609e548251633fafa12760e01b81529251931692633fafa1279260048082019392918290030181865afa158015610e32573d6000803e3d6000fd5b505050506040513d601f19601f82011682018060405250810190610e569190611231565b609e60009054906101000a90046001600160a01b03166001600160a01b0316633d26bb676040518163ffffffff1660e01b8152600401602060405180830381865afa158015610ea9573d6000803e3d6000fd5b505050506040513d601f19601f82011682018060405250810190610ecd9190611231565b609e5460a0805460408051918252609854602083015260995490820152609a546060820152609b546080820152609c5491810191909152609d546001600160a01b0390811660c0830152909116907f3b54365c25025ba22bde5937fb5a354036a8c5fc4de6b605e03f4c2c574ce7e19060e00160405180910390a450565b600054610100900460ff16610f725760405162461bcd60e51b815260040161051e906112ed565b6001606555565b6000818310610f95576000828152602084905260409020610fa4565b60008381526020839052604090205b9392505050565b6001600160a01b03811681146103b857600080fd5b60008083601f840112610fd257600080fd5b50813567ffffffffffffffff811115610fea57600080fd5b6020830191508360208260051b850101111561100557600080fd5b9250929050565b60008060008060006080868803121561102457600080fd5b853561102f81610fab565b94506020860135935060408601359250606086013567ffffffffffffffff81111561105957600080fd5b61106588828901610fc0565b969995985093965092949392505050565b6000806000806060858703121561108c57600080fd5b843561109781610fab565b935060208501359250604085013567ffffffffffffffff8111156110ba57600080fd5b6110c687828801610fc0565b95989497509550505050565b634e487b7160e01b600052604160045260246000fd5b600082601f8301126110f957600080fd5b813567ffffffffffffffff80821115611114576111146110d2565b604051601f8301601f19908116603f0116810190828211818310171561113c5761113c6110d2565b8160405283815286602085880101111561115557600080fd5b836020870160208301376000602085830101528094505050505092915050565b60006020828403121561118757600080fd5b813567ffffffffffffffff81111561119e57600080fd5b6111aa848285016110e8565b949350505050565b6000602082840312156111c457600080fd5b8135610fa481610fab565b6000806000606084860312156111e457600080fd5b83356111ef81610fab565b925060208401356111ff81610fab565b9150604084013567ffffffffffffffff81111561121b57600080fd5b611227868287016110e8565b9150509250925092565b60006020828403121561124357600080fd5b5051919050565b60006020828403121561125c57600080fd5b8151610fa481610fab565b634e487b7160e01b600052601160045260246000fd5b6000821982111561129057611290611267565b500190565b60008160001904831182151516156112af576112af611267565b500290565b6000826112d157634e487b7160e01b600052601260045260246000fd5b500490565b6000828210156112e8576112e8611267565b500390565b6020808252602b908201527f496e697469616c697a61626c653a20636f6e7472616374206973206e6f74206960408201526a6e697469616c697a696e6760a81b606082015260800190565b634e487b7160e01b600052603260045260246000fd5b60006001820161136057611360611267565b5060010190565b60008082840360e081121561137b57600080fd5b8351925060c0601f198201121561139157600080fd5b5060405160c0810181811067ffffffffffffffff821117156113b5576113b56110d2565b80604052506020840151815260408401516020820152606084015160408201526080840151606082015260a0840151608082015260c08401516113f781610fab565b60a082015291949193509091505056fea264697066735822122060b0f8747610986bd6f76c92adee833d30f20b2ab7dbf9aa5fc20226bf64dfb264736f6c634300080d0033",
  "devdoc": {
    "kind": "dev",
    "methods": {
      "owner()": {
        "details": "Returns the address of the current owner."
      },
      "renounceOwnership()": {
        "details": "Leaves the contract without owner. It will not be possible to call `onlyOwner` functions anymore. Can only be called by the current owner. NOTE: Renouncing ownership will leave the contract without an owner, thereby removing any functionality that is only available to the owner."
      },
      "transferOwnership(address)": {
        "details": "Transfers ownership of the contract to a new account (`newOwner`). Can only be called by the current owner."
      }
    },
    "version": 1
  },
  "userdoc": {
    "kind": "user",
    "methods": {},
    "version": 1
  },
  "storageLayout": {
    "storage": [
      {
        "astId": 138,
        "contract": "contracts/mint/AxelarSeaNftMerkleMinter.sol:AxelarSeaNftMerkleMinterNative",
        "label": "_initialized",
        "offset": 0,
        "slot": "0",
        "type": "t_uint8"
      },
      {
        "astId": 141,
        "contract": "contracts/mint/AxelarSeaNftMerkleMinter.sol:AxelarSeaNftMerkleMinterNative",
        "label": "_initializing",
        "offset": 1,
        "slot": "0",
        "type": "t_bool"
      },
      {
        "astId": 625,
        "contract": "contracts/mint/AxelarSeaNftMerkleMinter.sol:AxelarSeaNftMerkleMinterNative",
        "label": "__gap",
        "offset": 0,
        "slot": "1",
        "type": "t_array(t_uint256)50_storage"
      },
      {
        "astId": 10,
        "contract": "contracts/mint/AxelarSeaNftMerkleMinter.sol:AxelarSeaNftMerkleMinterNative",
        "label": "_owner",
        "offset": 0,
        "slot": "51",
        "type": "t_address"
      },
      {
        "astId": 130,
        "contract": "contracts/mint/AxelarSeaNftMerkleMinter.sol:AxelarSeaNftMerkleMinterNative",
        "label": "__gap",
        "offset": 0,
        "slot": "52",
        "type": "t_array(t_uint256)49_storage"
      },
      {
        "astId": 296,
        "contract": "contracts/mint/AxelarSeaNftMerkleMinter.sol:AxelarSeaNftMerkleMinterNative",
        "label": "_status",
        "offset": 0,
        "slot": "101",
        "type": "t_uint256"
      },
      {
        "astId": 340,
        "contract": "contracts/mint/AxelarSeaNftMerkleMinter.sol:AxelarSeaNftMerkleMinterNative",
        "label": "__gap",
        "offset": 0,
        "slot": "102",
        "type": "t_array(t_uint256)49_storage"
      },
      {
        "astId": 7196,
        "contract": "contracts/mint/AxelarSeaNftMerkleMinter.sol:AxelarSeaNftMerkleMinterNative",
        "label": "registry",
        "offset": 0,
        "slot": "151",
        "type": "t_contract(AxelarSeaProjectRegistry)6297"
      },
      {
        "astId": 7199,
        "contract": "contracts/mint/AxelarSeaNftMerkleMinter.sol:AxelarSeaNftMerkleMinterNative",
        "label": "priceData",
        "offset": 0,
        "slot": "152",
        "type": "t_struct(AxelarSeaNftPriceData)7193_storage"
      },
      {
        "astId": 7202,
        "contract": "contracts/mint/AxelarSeaNftMerkleMinter.sol:AxelarSeaNftMerkleMinterNative",
        "label": "nft",
        "offset": 0,
        "slot": "158",
        "type": "t_contract(AxelarSeaNftBase)7164"
      },
      {
        "astId": 7206,
        "contract": "contracts/mint/AxelarSeaNftMerkleMinter.sol:AxelarSeaNftMerkleMinterNative",
        "label": "walletMinted",
        "offset": 0,
        "slot": "159",
        "type": "t_mapping(t_address,t_uint256)"
      },
      {
        "astId": 4939,
        "contract": "contracts/mint/AxelarSeaNftMerkleMinter.sol:AxelarSeaNftMerkleMinterNative",
        "label": "merkleRoot",
        "offset": 0,
        "slot": "160",
        "type": "t_bytes32"
      }
    ],
    "types": {
      "t_address": {
        "encoding": "inplace",
        "label": "address",
        "numberOfBytes": "20"
      },
      "t_array(t_uint256)49_storage": {
        "base": "t_uint256",
        "encoding": "inplace",
        "label": "uint256[49]",
        "numberOfBytes": "1568"
      },
      "t_array(t_uint256)50_storage": {
        "base": "t_uint256",
        "encoding": "inplace",
        "label": "uint256[50]",
        "numberOfBytes": "1600"
      },
      "t_bool": {
        "encoding": "inplace",
        "label": "bool",
        "numberOfBytes": "1"
      },
      "t_bytes32": {
        "encoding": "inplace",
        "label": "bytes32",
        "numberOfBytes": "32"
      },
      "t_contract(AxelarSeaNftBase)7164": {
        "encoding": "inplace",
        "label": "contract AxelarSeaNftBase",
        "numberOfBytes": "20"
      },
      "t_contract(AxelarSeaProjectRegistry)6297": {
        "encoding": "inplace",
        "label": "contract AxelarSeaProjectRegistry",
        "numberOfBytes": "20"
      },
      "t_contract(IERC20)916": {
        "encoding": "inplace",
        "label": "contract IERC20",
        "numberOfBytes": "20"
      },
      "t_mapping(t_address,t_uint256)": {
        "encoding": "mapping",
        "key": "t_address",
        "label": "mapping(address => uint256)",
        "numberOfBytes": "32",
        "value": "t_uint256"
      },
      "t_struct(AxelarSeaNftPriceData)7193_storage": {
        "encoding": "inplace",
        "label": "struct AxelarSeaNftMinterBase.AxelarSeaNftPriceData",
        "members": [
          {
            "astId": 7181,
            "contract": "contracts/mint/AxelarSeaNftMerkleMinter.sol:AxelarSeaNftMerkleMinterNative",
            "label": "mintPriceStart",
            "offset": 0,
            "slot": "0",
            "type": "t_uint256"
          },
          {
            "astId": 7183,
            "contract": "contracts/mint/AxelarSeaNftMerkleMinter.sol:AxelarSeaNftMerkleMinterNative",
            "label": "mintPriceEnd",
            "offset": 0,
            "slot": "1",
            "type": "t_uint256"
          },
          {
            "astId": 7185,
            "contract": "contracts/mint/AxelarSeaNftMerkleMinter.sol:AxelarSeaNftMerkleMinterNative",
            "label": "mintPriceStep",
            "offset": 0,
            "slot": "2",
            "type": "t_uint256"
          },
          {
            "astId": 7187,
            "contract": "contracts/mint/AxelarSeaNftMerkleMinter.sol:AxelarSeaNftMerkleMinterNative",
            "label": "mintStart",
            "offset": 0,
            "slot": "3",
            "type": "t_uint256"
          },
          {
            "astId": 7189,
            "contract": "contracts/mint/AxelarSeaNftMerkleMinter.sol:AxelarSeaNftMerkleMinterNative",
            "label": "mintEnd",
            "offset": 0,
            "slot": "4",
            "type": "t_uint256"
          },
          {
            "astId": 7192,
            "contract": "contracts/mint/AxelarSeaNftMerkleMinter.sol:AxelarSeaNftMerkleMinterNative",
            "label": "mintTokenAddress",
            "offset": 0,
            "slot": "5",
            "type": "t_contract(IERC20)916"
          }
        ],
        "numberOfBytes": "192"
      },
      "t_uint256": {
        "encoding": "inplace",
        "label": "uint256",
        "numberOfBytes": "32"
      },
      "t_uint8": {
        "encoding": "inplace",
        "label": "uint8",
        "numberOfBytes": "1"
      }
    }
  }
}